{
	"contracts/MainContract.sol": {
		"MainContract": {
			"abi": [
				{
					"inputs": [
						{
							"internalType": "uint256",
							"name": "_target",
							"type": "uint256"
						},
						{
							"internalType": "uint256",
							"name": "_deadline",
							"type": "uint256"
						}
					],
					"stateMutability": "nonpayable",
					"type": "constructor"
				},
				{
					"inputs": [],
					"name": "checkBalance",
					"outputs": [
						{
							"internalType": "uint256",
							"name": "",
							"type": "uint256"
						}
					],
					"stateMutability": "view",
					"type": "function"
				},
				{
					"inputs": [
						{
							"internalType": "address",
							"name": "",
							"type": "address"
						}
					],
					"name": "contributors",
					"outputs": [
						{
							"internalType": "uint256",
							"name": "",
							"type": "uint256"
						}
					],
					"stateMutability": "view",
					"type": "function"
				},
				{
					"inputs": [],
					"name": "contrubution",
					"outputs": [],
					"stateMutability": "payable",
					"type": "function"
				},
				{
					"inputs": [
						{
							"internalType": "string",
							"name": "_description",
							"type": "string"
						},
						{
							"internalType": "address payable",
							"name": "_receipient",
							"type": "address"
						},
						{
							"internalType": "uint256",
							"name": "_value",
							"type": "uint256"
						}
					],
					"name": "createRequest",
					"outputs": [],
					"stateMutability": "nonpayable",
					"type": "function"
				},
				{
					"inputs": [],
					"name": "deadline",
					"outputs": [
						{
							"internalType": "uint256",
							"name": "",
							"type": "uint256"
						}
					],
					"stateMutability": "view",
					"type": "function"
				},
				{
					"inputs": [
						{
							"internalType": "uint256",
							"name": "_requestNo",
							"type": "uint256"
						}
					],
					"name": "makePayment",
					"outputs": [],
					"stateMutability": "nonpayable",
					"type": "function"
				},
				{
					"inputs": [],
					"name": "manager",
					"outputs": [
						{
							"internalType": "address",
							"name": "",
							"type": "address"
						}
					],
					"stateMutability": "view",
					"type": "function"
				},
				{
					"inputs": [],
					"name": "minimumContribution",
					"outputs": [
						{
							"internalType": "uint256",
							"name": "",
							"type": "uint256"
						}
					],
					"stateMutability": "view",
					"type": "function"
				},
				{
					"inputs": [],
					"name": "noOfContributors",
					"outputs": [
						{
							"internalType": "uint256",
							"name": "",
							"type": "uint256"
						}
					],
					"stateMutability": "view",
					"type": "function"
				},
				{
					"inputs": [],
					"name": "noOfRequests",
					"outputs": [
						{
							"internalType": "uint256",
							"name": "",
							"type": "uint256"
						}
					],
					"stateMutability": "view",
					"type": "function"
				},
				{
					"inputs": [],
					"name": "raisedAmount",
					"outputs": [
						{
							"internalType": "uint256",
							"name": "",
							"type": "uint256"
						}
					],
					"stateMutability": "view",
					"type": "function"
				},
				{
					"inputs": [],
					"name": "refund",
					"outputs": [],
					"stateMutability": "nonpayable",
					"type": "function"
				},
				{
					"inputs": [
						{
							"internalType": "uint256",
							"name": "",
							"type": "uint256"
						}
					],
					"name": "requests",
					"outputs": [
						{
							"internalType": "string",
							"name": "description",
							"type": "string"
						},
						{
							"internalType": "address payable",
							"name": "recipient",
							"type": "address"
						},
						{
							"internalType": "uint256",
							"name": "value",
							"type": "uint256"
						},
						{
							"internalType": "bool",
							"name": "completed",
							"type": "bool"
						},
						{
							"internalType": "uint256",
							"name": "noOfVoters",
							"type": "uint256"
						}
					],
					"stateMutability": "view",
					"type": "function"
				},
				{
					"inputs": [],
					"name": "target",
					"outputs": [
						{
							"internalType": "uint256",
							"name": "",
							"type": "uint256"
						}
					],
					"stateMutability": "view",
					"type": "function"
				},
				{
					"inputs": [
						{
							"internalType": "uint256",
							"name": "_requestNo",
							"type": "uint256"
						}
					],
					"name": "voteRequest",
					"outputs": [],
					"stateMutability": "nonpayable",
					"type": "function"
				}
			],
			"devdoc": {
				"kind": "dev",
				"methods": {},
				"version": 1
			},
			"evm": {
				"assembly": "    /* \"contracts/MainContract.sol\":58:2966  contract MainContract{... */\n  mstore(0x40, 0x80)\n    /* \"contracts/MainContract.sol\":607:792  constructor(uint _target,uint _deadline) {... */\n  callvalue\n  dup1\n  iszero\n  tag_1\n  jumpi\n  0x00\n  dup1\n  revert\ntag_1:\n  pop\n  mload(0x40)\n  sub(codesize, bytecodeSize)\n  dup1\n  bytecodeSize\n  dup4\n  codecopy\n  dup2\n  dup2\n  add\n  0x40\n  mstore\n  dup2\n  add\n  swap1\n  tag_2\n  swap2\n  swap1\n  tag_3\n  jump\t// in\ntag_2:\n    /* \"contracts/MainContract.sol\":666:673  _target */\n  dup2\n    /* \"contracts/MainContract.sol\":659:665  target */\n  0x06\n    /* \"contracts/MainContract.sol\":659:673  target=_target */\n  dup2\n  swap1\n  sstore\n  pop\n    /* \"contracts/MainContract.sol\":709:718  _deadline */\n  dup1\n    /* \"contracts/MainContract.sol\":693:708  block.timestamp */\n  timestamp\n    /* \"contracts/MainContract.sol\":693:718  block.timestamp+_deadline */\n  tag_6\n  swap2\n  swap1\n  tag_7\n  jump\t// in\ntag_6:\n    /* \"contracts/MainContract.sol\":684:692  deadline */\n  0x05\n    /* \"contracts/MainContract.sol\":684:718  deadline=block.timestamp+_deadline */\n  dup2\n  swap1\n  sstore\n  pop\n    /* \"contracts/MainContract.sol\":749:755  10 wei */\n  0x0a\n    /* \"contracts/MainContract.sol\":729:748  minimumContribution */\n  0x04\n    /* \"contracts/MainContract.sol\":729:755  minimumContribution=10 wei */\n  dup2\n  swap1\n  sstore\n  pop\n    /* \"contracts/MainContract.sol\":774:784  msg.sender */\n  caller\n    /* \"contracts/MainContract.sol\":766:773  manager */\n  0x03\n  0x00\n    /* \"contracts/MainContract.sol\":766:784  manager=msg.sender */\n  0x0100\n  exp\n  dup2\n  sload\n  dup2\n  0xffffffffffffffffffffffffffffffffffffffff\n  mul\n  not\n  and\n  swap1\n  dup4\n  0xffffffffffffffffffffffffffffffffffffffff\n  and\n  mul\n  or\n  swap1\n  sstore\n  pop\n    /* \"contracts/MainContract.sol\":607:792  constructor(uint _target,uint _deadline) {... */\n  pop\n  pop\n    /* \"contracts/MainContract.sol\":58:2966  contract MainContract{... */\n  jump(tag_8)\n    /* \"#utility.yul\":88:205   */\ntag_10:\n    /* \"#utility.yul\":197:198   */\n  0x00\n    /* \"#utility.yul\":194:195   */\n  dup1\n    /* \"#utility.yul\":187:199   */\n  revert\n    /* \"#utility.yul\":334:411   */\ntag_12:\n    /* \"#utility.yul\":371:378   */\n  0x00\n    /* \"#utility.yul\":400:405   */\n  dup2\n    /* \"#utility.yul\":389:405   */\n  swap1\n  pop\n    /* \"#utility.yul\":334:411   */\n  swap2\n  swap1\n  pop\n  jump\t// out\n    /* \"#utility.yul\":417:539   */\ntag_13:\n    /* \"#utility.yul\":490:514   */\n  tag_22\n    /* \"#utility.yul\":508:513   */\n  dup2\n    /* \"#utility.yul\":490:514   */\n  tag_12\n  jump\t// in\ntag_22:\n    /* \"#utility.yul\":483:488   */\n  dup2\n    /* \"#utility.yul\":480:515   */\n  eq\n    /* \"#utility.yul\":470:533   */\n  tag_23\n  jumpi\n    /* \"#utility.yul\":529:530   */\n  0x00\n    /* \"#utility.yul\":526:527   */\n  dup1\n    /* \"#utility.yul\":519:531   */\n  revert\n    /* \"#utility.yul\":470:533   */\ntag_23:\n    /* \"#utility.yul\":417:539   */\n  pop\n  jump\t// out\n    /* \"#utility.yul\":545:688   */\ntag_14:\n    /* \"#utility.yul\":602:607   */\n  0x00\n    /* \"#utility.yul\":633:639   */\n  dup2\n    /* \"#utility.yul\":627:640   */\n  mload\n    /* \"#utility.yul\":618:640   */\n  swap1\n  pop\n    /* \"#utility.yul\":649:682   */\n  tag_25\n    /* \"#utility.yul\":676:681   */\n  dup2\n    /* \"#utility.yul\":649:682   */\n  tag_13\n  jump\t// in\ntag_25:\n    /* \"#utility.yul\":545:688   */\n  swap3\n  swap2\n  pop\n  pop\n  jump\t// out\n    /* \"#utility.yul\":694:1201   */\ntag_3:\n    /* \"#utility.yul\":773:779   */\n  0x00\n    /* \"#utility.yul\":781:787   */\n  dup1\n    /* \"#utility.yul\":830:832   */\n  0x40\n    /* \"#utility.yul\":818:827   */\n  dup4\n    /* \"#utility.yul\":809:816   */\n  dup6\n    /* \"#utility.yul\":805:828   */\n  sub\n    /* \"#utility.yul\":801:833   */\n  slt\n    /* \"#utility.yul\":798:917   */\n  iszero\n  tag_27\n  jumpi\n    /* \"#utility.yul\":836:915   */\n  tag_28\n  tag_10\n  jump\t// in\ntag_28:\n    /* \"#utility.yul\":798:917   */\ntag_27:\n    /* \"#utility.yul\":956:957   */\n  0x00\n    /* \"#utility.yul\":981:1045   */\n  tag_29\n    /* \"#utility.yul\":1037:1044   */\n  dup6\n    /* \"#utility.yul\":1028:1034   */\n  dup3\n    /* \"#utility.yul\":1017:1026   */\n  dup7\n    /* \"#utility.yul\":1013:1035   */\n  add\n    /* \"#utility.yul\":981:1045   */\n  tag_14\n  jump\t// in\ntag_29:\n    /* \"#utility.yul\":971:1045   */\n  swap3\n  pop\n    /* \"#utility.yul\":927:1055   */\n  pop\n    /* \"#utility.yul\":1094:1096   */\n  0x20\n    /* \"#utility.yul\":1120:1184   */\n  tag_30\n    /* \"#utility.yul\":1176:1183   */\n  dup6\n    /* \"#utility.yul\":1167:1173   */\n  dup3\n    /* \"#utility.yul\":1156:1165   */\n  dup7\n    /* \"#utility.yul\":1152:1174   */\n  add\n    /* \"#utility.yul\":1120:1184   */\n  tag_14\n  jump\t// in\ntag_30:\n    /* \"#utility.yul\":1110:1184   */\n  swap2\n  pop\n    /* \"#utility.yul\":1065:1194   */\n  pop\n    /* \"#utility.yul\":694:1201   */\n  swap3\n  pop\n  swap3\n  swap1\n  pop\n  jump\t// out\n    /* \"#utility.yul\":1207:1387   */\ntag_15:\n    /* \"#utility.yul\":1255:1332   */\n  0x4e487b7100000000000000000000000000000000000000000000000000000000\n    /* \"#utility.yul\":1252:1253   */\n  0x00\n    /* \"#utility.yul\":1245:1333   */\n  mstore\n    /* \"#utility.yul\":1352:1356   */\n  0x11\n    /* \"#utility.yul\":1349:1350   */\n  0x04\n    /* \"#utility.yul\":1342:1357   */\n  mstore\n    /* \"#utility.yul\":1376:1380   */\n  0x24\n    /* \"#utility.yul\":1373:1374   */\n  0x00\n    /* \"#utility.yul\":1366:1381   */\n  revert\n    /* \"#utility.yul\":1393:1698   */\ntag_7:\n    /* \"#utility.yul\":1433:1436   */\n  0x00\n    /* \"#utility.yul\":1452:1472   */\n  tag_33\n    /* \"#utility.yul\":1470:1471   */\n  dup3\n    /* \"#utility.yul\":1452:1472   */\n  tag_12\n  jump\t// in\ntag_33:\n    /* \"#utility.yul\":1447:1472   */\n  swap2\n  pop\n    /* \"#utility.yul\":1486:1506   */\n  tag_34\n    /* \"#utility.yul\":1504:1505   */\n  dup4\n    /* \"#utility.yul\":1486:1506   */\n  tag_12\n  jump\t// in\ntag_34:\n    /* \"#utility.yul\":1481:1506   */\n  swap3\n  pop\n    /* \"#utility.yul\":1640:1641   */\n  dup3\n    /* \"#utility.yul\":1572:1638   */\n  0xffffffffffffffffffffffffffffffffffffffffffffffffffffffffffffffff\n    /* \"#utility.yul\":1568:1642   */\n  sub\n    /* \"#utility.yul\":1565:1566   */\n  dup3\n    /* \"#utility.yul\":1562:1643   */\n  gt\n    /* \"#utility.yul\":1559:1666   */\n  iszero\n  tag_35\n  jumpi\n    /* \"#utility.yul\":1646:1664   */\n  tag_36\n  tag_15\n  jump\t// in\ntag_36:\n    /* \"#utility.yul\":1559:1666   */\ntag_35:\n    /* \"#utility.yul\":1690:1691   */\n  dup3\n    /* \"#utility.yul\":1687:1688   */\n  dup3\n    /* \"#utility.yul\":1683:1692   */\n  add\n    /* \"#utility.yul\":1676:1692   */\n  swap1\n  pop\n    /* \"#utility.yul\":1393:1698   */\n  swap3\n  swap2\n  pop\n  pop\n  jump\t// out\n    /* \"contracts/MainContract.sol\":58:2966  contract MainContract{... */\ntag_8:\n  dataSize(sub_0)\n  dup1\n  dataOffset(sub_0)\n  0x00\n  codecopy\n  0x00\n  return\nstop\n\nsub_0: assembly {\n        /* \"contracts/MainContract.sol\":58:2966  contract MainContract{... */\n      mstore(0x40, 0x80)\n      jumpi(tag_1, lt(calldatasize, 0x04))\n      shr(0xe0, calldataload(0x00))\n      dup1\n      0x5114cb52\n      gt\n      tag_17\n      jumpi\n      dup1\n      0xc1f11b4c\n      gt\n      tag_18\n      jumpi\n      dup1\n      0xc1f11b4c\n      eq\n      tag_13\n      jumpi\n      dup1\n      0xc59ee1dc\n      eq\n      tag_14\n      jumpi\n      dup1\n      0xc71daccb\n      eq\n      tag_15\n      jumpi\n      dup1\n      0xd4b83992\n      eq\n      tag_16\n      jumpi\n      jump(tag_1)\n    tag_18:\n      dup1\n      0x5114cb52\n      eq\n      tag_9\n      jumpi\n      dup1\n      0x590e1ae3\n      eq\n      tag_10\n      jumpi\n      dup1\n      0x81d12c58\n      eq\n      tag_11\n      jumpi\n      dup1\n      0x937e09b1\n      eq\n      tag_12\n      jumpi\n      jump(tag_1)\n    tag_17:\n      dup1\n      0x2f81a635\n      gt\n      tag_19\n      jumpi\n      dup1\n      0x2f81a635\n      eq\n      tag_5\n      jumpi\n      dup1\n      0x481c6a75\n      eq\n      tag_6\n      jumpi\n      dup1\n      0x4cb6f4a5\n      eq\n      tag_7\n      jumpi\n      dup1\n      0x4e260f6f\n      eq\n      tag_8\n      jumpi\n      jump(tag_1)\n    tag_19:\n      dup1\n      0x1b16bb5c\n      eq\n      tag_2\n      jumpi\n      dup1\n      0x1f6d4942\n      eq\n      tag_3\n      jumpi\n      dup1\n      0x29dcb0cf\n      eq\n      tag_4\n      jumpi\n    tag_1:\n      0x00\n      dup1\n      revert\n        /* \"contracts/MainContract.sol\":1038:1437  function createRequest(string calldata _description,address payable _receipient, uint _value) public onlyManager{... */\n    tag_2:\n      callvalue\n      dup1\n      iszero\n      tag_20\n      jumpi\n      0x00\n      dup1\n      revert\n    tag_20:\n      pop\n      tag_21\n      0x04\n      dup1\n      calldatasize\n      sub\n      dup2\n      add\n      swap1\n      tag_22\n      swap2\n      swap1\n      tag_23\n      jump\t// in\n    tag_22:\n      tag_24\n      jump\t// in\n    tag_21:\n      stop\n        /* \"contracts/MainContract.sol\":371:413  mapping(address=>uint) public contributors */\n    tag_3:\n      callvalue\n      dup1\n      iszero\n      tag_25\n      jumpi\n      0x00\n      dup1\n      revert\n    tag_25:\n      pop\n      tag_26\n      0x04\n      dup1\n      calldatasize\n      sub\n      dup2\n      add\n      swap1\n      tag_27\n      swap2\n      swap1\n      tag_28\n      jump\t// in\n    tag_27:\n      tag_29\n      jump\t// in\n    tag_26:\n      mload(0x40)\n      tag_30\n      swap2\n      swap1\n      tag_31\n      jump\t// in\n    tag_30:\n      mload(0x40)\n      dup1\n      swap2\n      sub\n      swap1\n      return\n        /* \"contracts/MainContract.sol\":487:507  uint public deadline */\n    tag_4:\n      callvalue\n      dup1\n      iszero\n      tag_32\n      jumpi\n      0x00\n      dup1\n      revert\n    tag_32:\n      pop\n      tag_33\n      tag_34\n      jump\t// in\n    tag_33:\n      mload(0x40)\n      tag_35\n      swap2\n      swap1\n      tag_31\n      jump\t// in\n    tag_35:\n      mload(0x40)\n      dup1\n      swap2\n      sub\n      swap1\n      return\n        /* \"contracts/MainContract.sol\":1443:1815  function contrubution() public payable{... */\n    tag_5:\n      tag_36\n      tag_37\n      jump\t// in\n    tag_36:\n      stop\n        /* \"contracts/MainContract.sol\":420:442  address public manager */\n    tag_6:\n      callvalue\n      dup1\n      iszero\n      tag_38\n      jumpi\n      0x00\n      dup1\n      revert\n    tag_38:\n      pop\n      tag_39\n      tag_40\n      jump\t// in\n    tag_39:\n      mload(0x40)\n      tag_41\n      swap2\n      swap1\n      tag_42\n      jump\t// in\n    tag_41:\n      mload(0x40)\n      dup1\n      swap2\n      sub\n      swap1\n      return\n        /* \"contracts/MainContract.sol\":2187:2480  function voteRequest(uint _requestNo) public onlyContributors{... */\n    tag_7:\n      callvalue\n      dup1\n      iszero\n      tag_43\n      jumpi\n      0x00\n      dup1\n      revert\n    tag_43:\n      pop\n      tag_44\n      0x04\n      dup1\n      calldatasize\n      sub\n      dup2\n      add\n      swap1\n      tag_45\n      swap2\n      swap1\n      tag_46\n      jump\t// in\n    tag_45:\n      tag_47\n      jump\t// in\n    tag_44:\n      stop\n        /* \"contracts/MainContract.sol\":570:598  uint public noOfContributors */\n    tag_8:\n      callvalue\n      dup1\n      iszero\n      tag_48\n      jumpi\n      0x00\n      dup1\n      revert\n    tag_48:\n      pop\n      tag_49\n      tag_50\n      jump\t// in\n    tag_49:\n      mload(0x40)\n      tag_51\n      swap2\n      swap1\n      tag_31\n      jump\t// in\n    tag_51:\n      mload(0x40)\n      dup1\n      swap2\n      sub\n      swap1\n      return\n        /* \"contracts/MainContract.sol\":2486:2963  function makePayment(uint _requestNo) public onlyManager{... */\n    tag_9:\n      callvalue\n      dup1\n      iszero\n      tag_52\n      jumpi\n      0x00\n      dup1\n      revert\n    tag_52:\n      pop\n      tag_53\n      0x04\n      dup1\n      calldatasize\n      sub\n      dup2\n      add\n      swap1\n      tag_54\n      swap2\n      swap1\n      tag_46\n      jump\t// in\n    tag_54:\n      tag_55\n      jump\t// in\n    tag_53:\n      stop\n        /* \"contracts/MainContract.sol\":1923:2181  function refund() public onlyContributors{... */\n    tag_10:\n      callvalue\n      dup1\n      iszero\n      tag_56\n      jumpi\n      0x00\n      dup1\n      revert\n    tag_56:\n      pop\n      tag_57\n      tag_58\n      jump\t// in\n    tag_57:\n      stop\n        /* \"contracts/MainContract.sol\":293:331  mapping(uint=>Request) public requests */\n    tag_11:\n      callvalue\n      dup1\n      iszero\n      tag_59\n      jumpi\n      0x00\n      dup1\n      revert\n    tag_59:\n      pop\n      tag_60\n      0x04\n      dup1\n      calldatasize\n      sub\n      dup2\n      add\n      swap1\n      tag_61\n      swap2\n      swap1\n      tag_46\n      jump\t// in\n    tag_61:\n      tag_62\n      jump\t// in\n    tag_60:\n      mload(0x40)\n      tag_63\n      swap6\n      swap5\n      swap4\n      swap3\n      swap2\n      swap1\n      tag_64\n      jump\t// in\n    tag_63:\n      mload(0x40)\n      dup1\n      swap2\n      sub\n      swap1\n      return\n        /* \"contracts/MainContract.sol\":449:480  uint public minimumContribution */\n    tag_12:\n      callvalue\n      dup1\n      iszero\n      tag_65\n      jumpi\n      0x00\n      dup1\n      revert\n    tag_65:\n      pop\n      tag_66\n      tag_67\n      jump\t// in\n    tag_66:\n      mload(0x40)\n      tag_68\n      swap2\n      swap1\n      tag_31\n      jump\t// in\n    tag_68:\n      mload(0x40)\n      dup1\n      swap2\n      sub\n      swap1\n      return\n        /* \"contracts/MainContract.sol\":338:362  uint public noOfRequests */\n    tag_13:\n      callvalue\n      dup1\n      iszero\n      tag_69\n      jumpi\n      0x00\n      dup1\n      revert\n    tag_69:\n      pop\n      tag_70\n      tag_71\n      jump\t// in\n    tag_70:\n      mload(0x40)\n      tag_72\n      swap2\n      swap1\n      tag_31\n      jump\t// in\n    tag_72:\n      mload(0x40)\n      dup1\n      swap2\n      sub\n      swap1\n      return\n        /* \"contracts/MainContract.sol\":539:563  uint public raisedAmount */\n    tag_14:\n      callvalue\n      dup1\n      iszero\n      tag_73\n      jumpi\n      0x00\n      dup1\n      revert\n    tag_73:\n      pop\n      tag_74\n      tag_75\n      jump\t// in\n    tag_74:\n      mload(0x40)\n      tag_76\n      swap2\n      swap1\n      tag_31\n      jump\t// in\n    tag_76:\n      mload(0x40)\n      dup1\n      swap2\n      sub\n      swap1\n      return\n        /* \"contracts/MainContract.sol\":1821:1917  function checkBalance() public view returns(uint){... */\n    tag_15:\n      callvalue\n      dup1\n      iszero\n      tag_77\n      jumpi\n      0x00\n      dup1\n      revert\n    tag_77:\n      pop\n      tag_78\n      tag_79\n      jump\t// in\n    tag_78:\n      mload(0x40)\n      tag_80\n      swap2\n      swap1\n      tag_31\n      jump\t// in\n    tag_80:\n      mload(0x40)\n      dup1\n      swap2\n      sub\n      swap1\n      return\n        /* \"contracts/MainContract.sol\":514:532  uint public target */\n    tag_16:\n      callvalue\n      dup1\n      iszero\n      tag_81\n      jumpi\n      0x00\n      dup1\n      revert\n    tag_81:\n      pop\n      tag_82\n      tag_83\n      jump\t// in\n    tag_82:\n      mload(0x40)\n      tag_84\n      swap2\n      swap1\n      tag_31\n      jump\t// in\n    tag_84:\n      mload(0x40)\n      dup1\n      swap2\n      sub\n      swap1\n      return\n        /* \"contracts/MainContract.sol\":1038:1437  function createRequest(string calldata _description,address payable _receipient, uint _value) public onlyManager{... */\n    tag_24:\n        /* \"contracts/MainContract.sol\":853:860  manager */\n      0x03\n      0x00\n      swap1\n      sload\n      swap1\n      0x0100\n      exp\n      swap1\n      div\n      0xffffffffffffffffffffffffffffffffffffffff\n      and\n        /* \"contracts/MainContract.sol\":841:860  msg.sender==manager */\n      0xffffffffffffffffffffffffffffffffffffffff\n      and\n        /* \"contracts/MainContract.sol\":841:851  msg.sender */\n      caller\n        /* \"contracts/MainContract.sol\":841:860  msg.sender==manager */\n      0xffffffffffffffffffffffffffffffffffffffff\n      and\n      eq\n        /* \"contracts/MainContract.sol\":833:887  require(msg.sender==manager,\"You are not the manager\") */\n      tag_86\n      jumpi\n      mload(0x40)\n      0x08c379a000000000000000000000000000000000000000000000000000000000\n      dup2\n      mstore\n      0x04\n      add\n      tag_87\n      swap1\n      tag_88\n      jump\t// in\n    tag_87:\n      mload(0x40)\n      dup1\n      swap2\n      sub\n      swap1\n      revert\n    tag_86:\n        /* \"contracts/MainContract.sol\":1161:1187  Request storage newRequest */\n      0x00\n        /* \"contracts/MainContract.sol\":1188:1196  requests */\n      dup1\n        /* \"contracts/MainContract.sol\":1188:1210  requests[noOfRequests] */\n      0x00\n        /* \"contracts/MainContract.sol\":1197:1209  noOfRequests */\n      sload(0x01)\n        /* \"contracts/MainContract.sol\":1188:1210  requests[noOfRequests] */\n      dup2\n      mstore\n      0x20\n      add\n      swap1\n      dup2\n      mstore\n      0x20\n      add\n      0x00\n      keccak256\n        /* \"contracts/MainContract.sol\":1161:1210  Request storage newRequest=requests[noOfRequests] */\n      swap1\n      pop\n        /* \"contracts/MainContract.sol\":1221:1233  noOfRequests */\n      0x01\n      0x00\n        /* \"contracts/MainContract.sol\":1221:1235  noOfRequests++ */\n      dup2\n      sload\n      dup1\n      swap3\n      swap2\n      swap1\n      tag_90\n      swap1\n      tag_91\n      jump\t// in\n    tag_90:\n      swap2\n      swap1\n      pop\n      sstore\n      pop\n        /* \"contracts/MainContract.sol\":1269:1281  _description */\n      dup5\n      dup5\n        /* \"contracts/MainContract.sol\":1246:1256  newRequest */\n      dup3\n        /* \"contracts/MainContract.sol\":1246:1268  newRequest.description */\n      0x00\n      add\n        /* \"contracts/MainContract.sol\":1246:1281  newRequest.description=_description */\n      swap2\n      swap1\n      tag_92\n      swap3\n      swap2\n      swap1\n      tag_93\n      jump\t// in\n    tag_92:\n      pop\n        /* \"contracts/MainContract.sol\":1313:1324  _receipient */\n      dup3\n        /* \"contracts/MainContract.sol\":1292:1302  newRequest */\n      dup2\n        /* \"contracts/MainContract.sol\":1292:1312  newRequest.recipient */\n      0x01\n      add\n      0x00\n        /* \"contracts/MainContract.sol\":1292:1324  newRequest.recipient=_receipient */\n      0x0100\n      exp\n      dup2\n      sload\n      dup2\n      0xffffffffffffffffffffffffffffffffffffffff\n      mul\n      not\n      and\n      swap1\n      dup4\n      0xffffffffffffffffffffffffffffffffffffffff\n      and\n      mul\n      or\n      swap1\n      sstore\n      pop\n        /* \"contracts/MainContract.sol\":1352:1358  _value */\n      dup2\n        /* \"contracts/MainContract.sol\":1335:1345  newRequest */\n      dup2\n        /* \"contracts/MainContract.sol\":1335:1351  newRequest.value */\n      0x02\n      add\n        /* \"contracts/MainContract.sol\":1335:1358  newRequest.value=_value */\n      dup2\n      swap1\n      sstore\n      pop\n        /* \"contracts/MainContract.sol\":1390:1395  false */\n      0x00\n        /* \"contracts/MainContract.sol\":1369:1379  newRequest */\n      dup2\n        /* \"contracts/MainContract.sol\":1369:1389  newRequest.completed */\n      0x03\n      add\n      0x00\n        /* \"contracts/MainContract.sol\":1369:1395  newRequest.completed=false */\n      0x0100\n      exp\n      dup2\n      sload\n      dup2\n      0xff\n      mul\n      not\n      and\n      swap1\n      dup4\n      iszero\n      iszero\n      mul\n      or\n      swap1\n      sstore\n      pop\n        /* \"contracts/MainContract.sol\":1428:1429  0 */\n      0x00\n        /* \"contracts/MainContract.sol\":1406:1416  newRequest */\n      dup2\n        /* \"contracts/MainContract.sol\":1406:1427  newRequest.noOfVoters */\n      0x04\n      add\n        /* \"contracts/MainContract.sol\":1406:1429  newRequest.noOfVoters=0 */\n      dup2\n      swap1\n      sstore\n      pop\n        /* \"contracts/MainContract.sol\":1150:1437  {... */\n      pop\n        /* \"contracts/MainContract.sol\":1038:1437  function createRequest(string calldata _description,address payable _receipient, uint _value) public onlyManager{... */\n      pop\n      pop\n      pop\n      pop\n      jump\t// out\n        /* \"contracts/MainContract.sol\":371:413  mapping(address=>uint) public contributors */\n    tag_29:\n      mstore(0x20, 0x02)\n      dup1\n      0x00\n      mstore\n      keccak256(0x00, 0x40)\n      0x00\n      swap2\n      pop\n      swap1\n      pop\n      sload\n      dup2\n      jump\t// out\n        /* \"contracts/MainContract.sol\":487:507  uint public deadline */\n    tag_34:\n      sload(0x05)\n      dup2\n      jump\t// out\n        /* \"contracts/MainContract.sol\":1443:1815  function contrubution() public payable{... */\n    tag_37:\n        /* \"contracts/MainContract.sol\":1516:1524  deadline */\n      sload(0x05)\n        /* \"contracts/MainContract.sol\":1500:1515  block.timestamp */\n      timestamp\n        /* \"contracts/MainContract.sol\":1500:1524  block.timestamp<deadline */\n      lt\n        /* \"contracts/MainContract.sol\":1492:1547  require(block.timestamp<deadline,\"Deadline has passed\") */\n      tag_95\n      jumpi\n      mload(0x40)\n      0x08c379a000000000000000000000000000000000000000000000000000000000\n      dup2\n      mstore\n      0x04\n      add\n      tag_96\n      swap1\n      tag_97\n      jump\t// in\n    tag_96:\n      mload(0x40)\n      dup1\n      swap2\n      sub\n      swap1\n      revert\n    tag_95:\n        /* \"contracts/MainContract.sol\":1577:1596  minimumContribution */\n      sload(0x04)\n        /* \"contracts/MainContract.sol\":1566:1575  msg.value */\n      callvalue\n        /* \"contracts/MainContract.sol\":1566:1596  msg.value>=minimumContribution */\n      lt\n      iszero\n        /* \"contracts/MainContract.sol\":1558:1639  require(msg.value>=minimumContribution,\"Minimum contribution required is 10 Wei\") */\n      tag_98\n      jumpi\n      mload(0x40)\n      0x08c379a000000000000000000000000000000000000000000000000000000000\n      dup2\n      mstore\n      0x04\n      add\n      tag_99\n      swap1\n      tag_100\n      jump\t// in\n    tag_99:\n      mload(0x40)\n      dup1\n      swap2\n      sub\n      swap1\n      revert\n    tag_98:\n        /* \"contracts/MainContract.sol\":1679:1680  0 */\n      0x00\n        /* \"contracts/MainContract.sol\":1653:1665  contributors */\n      0x02\n        /* \"contracts/MainContract.sol\":1653:1677  contributors[msg.sender] */\n      0x00\n        /* \"contracts/MainContract.sol\":1666:1676  msg.sender */\n      caller\n        /* \"contracts/MainContract.sol\":1653:1677  contributors[msg.sender] */\n      0xffffffffffffffffffffffffffffffffffffffff\n      and\n      0xffffffffffffffffffffffffffffffffffffffff\n      and\n      dup2\n      mstore\n      0x20\n      add\n      swap1\n      dup2\n      mstore\n      0x20\n      add\n      0x00\n      keccak256\n      sload\n        /* \"contracts/MainContract.sol\":1653:1680  contributors[msg.sender]==0 */\n      sub\n        /* \"contracts/MainContract.sol\":1650:1726  if(contributors[msg.sender]==0){... */\n      tag_101\n      jumpi\n        /* \"contracts/MainContract.sol\":1696:1712  noOfContributors */\n      0x08\n      0x00\n        /* \"contracts/MainContract.sol\":1696:1714  noOfContributors++ */\n      dup2\n      sload\n      dup1\n      swap3\n      swap2\n      swap1\n      tag_102\n      swap1\n      tag_91\n      jump\t// in\n    tag_102:\n      swap2\n      swap1\n      pop\n      sstore\n      pop\n        /* \"contracts/MainContract.sol\":1650:1726  if(contributors[msg.sender]==0){... */\n    tag_101:\n        /* \"contracts/MainContract.sol\":1762:1771  msg.value */\n      callvalue\n        /* \"contracts/MainContract.sol\":1736:1748  contributors */\n      0x02\n        /* \"contracts/MainContract.sol\":1736:1760  contributors[msg.sender] */\n      0x00\n        /* \"contracts/MainContract.sol\":1749:1759  msg.sender */\n      caller\n        /* \"contracts/MainContract.sol\":1736:1760  contributors[msg.sender] */\n      0xffffffffffffffffffffffffffffffffffffffff\n      and\n      0xffffffffffffffffffffffffffffffffffffffff\n      and\n      dup2\n      mstore\n      0x20\n      add\n      swap1\n      dup2\n      mstore\n      0x20\n      add\n      0x00\n      keccak256\n      0x00\n        /* \"contracts/MainContract.sol\":1736:1771  contributors[msg.sender]+=msg.value */\n      dup3\n      dup3\n      sload\n      tag_103\n      swap2\n      swap1\n      tag_104\n      jump\t// in\n    tag_103:\n      swap3\n      pop\n      pop\n      dup2\n      swap1\n      sstore\n      pop\n        /* \"contracts/MainContract.sol\":1796:1805  msg.value */\n      callvalue\n        /* \"contracts/MainContract.sol\":1782:1794  raisedAmount */\n      0x07\n      0x00\n        /* \"contracts/MainContract.sol\":1782:1805  raisedAmount+=msg.value */\n      dup3\n      dup3\n      sload\n      tag_105\n      swap2\n      swap1\n      tag_104\n      jump\t// in\n    tag_105:\n      swap3\n      pop\n      pop\n      dup2\n      swap1\n      sstore\n      pop\n        /* \"contracts/MainContract.sol\":1443:1815  function contrubution() public payable{... */\n      jump\t// out\n        /* \"contracts/MainContract.sol\":420:442  address public manager */\n    tag_40:\n      0x03\n      0x00\n      swap1\n      sload\n      swap1\n      0x0100\n      exp\n      swap1\n      div\n      0xffffffffffffffffffffffffffffffffffffffff\n      and\n      dup2\n      jump\t// out\n        /* \"contracts/MainContract.sol\":2187:2480  function voteRequest(uint _requestNo) public onlyContributors{... */\n    tag_47:\n        /* \"contracts/MainContract.sol\":982:983  0 */\n      0x00\n        /* \"contracts/MainContract.sol\":957:969  contributors */\n      0x02\n        /* \"contracts/MainContract.sol\":957:981  contributors[msg.sender] */\n      0x00\n        /* \"contracts/MainContract.sol\":970:980  msg.sender */\n      caller\n        /* \"contracts/MainContract.sol\":957:981  contributors[msg.sender] */\n      0xffffffffffffffffffffffffffffffffffffffff\n      and\n      0xffffffffffffffffffffffffffffffffffffffff\n      and\n      dup2\n      mstore\n      0x20\n      add\n      swap1\n      dup2\n      mstore\n      0x20\n      add\n      0x00\n      keccak256\n      sload\n        /* \"contracts/MainContract.sol\":957:983  contributors[msg.sender]>0 */\n      gt\n        /* \"contracts/MainContract.sol\":949:1012  require(contributors[msg.sender]>0,\"You are not a contributor\") */\n      tag_107\n      jumpi\n      mload(0x40)\n      0x08c379a000000000000000000000000000000000000000000000000000000000\n      dup2\n      mstore\n      0x04\n      add\n      tag_108\n      swap1\n      tag_109\n      jump\t// in\n    tag_108:\n      mload(0x40)\n      dup1\n      swap2\n      sub\n      swap1\n      revert\n    tag_107:\n        /* \"contracts/MainContract.sol\":2259:2286  Request storage thisRequest */\n      0x00\n        /* \"contracts/MainContract.sol\":2287:2295  requests */\n      dup1\n        /* \"contracts/MainContract.sol\":2287:2307  requests[_requestNo] */\n      0x00\n        /* \"contracts/MainContract.sol\":2296:2306  _requestNo */\n      dup4\n        /* \"contracts/MainContract.sol\":2287:2307  requests[_requestNo] */\n      dup2\n      mstore\n      0x20\n      add\n      swap1\n      dup2\n      mstore\n      0x20\n      add\n      0x00\n      keccak256\n        /* \"contracts/MainContract.sol\":2259:2307  Request storage thisRequest=requests[_requestNo] */\n      swap1\n      pop\n        /* \"contracts/MainContract.sol\":2358:2363  false */\n      0x00\n        /* \"contracts/MainContract.sol\":2326:2363  thisRequest.voters[msg.sender]==false */\n      iszero\n      iszero\n        /* \"contracts/MainContract.sol\":2326:2337  thisRequest */\n      dup2\n        /* \"contracts/MainContract.sol\":2326:2344  thisRequest.voters */\n      0x05\n      add\n        /* \"contracts/MainContract.sol\":2326:2356  thisRequest.voters[msg.sender] */\n      0x00\n        /* \"contracts/MainContract.sol\":2345:2355  msg.sender */\n      caller\n        /* \"contracts/MainContract.sol\":2326:2356  thisRequest.voters[msg.sender] */\n      0xffffffffffffffffffffffffffffffffffffffff\n      and\n      0xffffffffffffffffffffffffffffffffffffffff\n      and\n      dup2\n      mstore\n      0x20\n      add\n      swap1\n      dup2\n      mstore\n      0x20\n      add\n      0x00\n      keccak256\n      0x00\n      swap1\n      sload\n      swap1\n      0x0100\n      exp\n      swap1\n      div\n      0xff\n      and\n        /* \"contracts/MainContract.sol\":2326:2363  thisRequest.voters[msg.sender]==false */\n      iszero\n      iszero\n      eq\n        /* \"contracts/MainContract.sol\":2318:2389  require(thisRequest.voters[msg.sender]==false,\"You have already voted\") */\n      tag_111\n      jumpi\n      mload(0x40)\n      0x08c379a000000000000000000000000000000000000000000000000000000000\n      dup2\n      mstore\n      0x04\n      add\n      tag_112\n      swap1\n      tag_113\n      jump\t// in\n    tag_112:\n      mload(0x40)\n      dup1\n      swap2\n      sub\n      swap1\n      revert\n    tag_111:\n        /* \"contracts/MainContract.sol\":2431:2435  true */\n      0x01\n        /* \"contracts/MainContract.sol\":2400:2411  thisRequest */\n      dup2\n        /* \"contracts/MainContract.sol\":2400:2418  thisRequest.voters */\n      0x05\n      add\n        /* \"contracts/MainContract.sol\":2400:2430  thisRequest.voters[msg.sender] */\n      0x00\n        /* \"contracts/MainContract.sol\":2419:2429  msg.sender */\n      caller\n        /* \"contracts/MainContract.sol\":2400:2430  thisRequest.voters[msg.sender] */\n      0xffffffffffffffffffffffffffffffffffffffff\n      and\n      0xffffffffffffffffffffffffffffffffffffffff\n      and\n      dup2\n      mstore\n      0x20\n      add\n      swap1\n      dup2\n      mstore\n      0x20\n      add\n      0x00\n      keccak256\n      0x00\n        /* \"contracts/MainContract.sol\":2400:2435  thisRequest.voters[msg.sender]=true */\n      0x0100\n      exp\n      dup2\n      sload\n      dup2\n      0xff\n      mul\n      not\n      and\n      swap1\n      dup4\n      iszero\n      iszero\n      mul\n      or\n      swap1\n      sstore\n      pop\n        /* \"contracts/MainContract.sol\":2446:2457  thisRequest */\n      dup1\n        /* \"contracts/MainContract.sol\":2446:2468  thisRequest.noOfVoters */\n      0x04\n      add\n      0x00\n        /* \"contracts/MainContract.sol\":2446:2470  thisRequest.noOfVoters++ */\n      dup2\n      sload\n      dup1\n      swap3\n      swap2\n      swap1\n      tag_114\n      swap1\n      tag_91\n      jump\t// in\n    tag_114:\n      swap2\n      swap1\n      pop\n      sstore\n      pop\n        /* \"contracts/MainContract.sol\":2248:2480  {... */\n      pop\n        /* \"contracts/MainContract.sol\":2187:2480  function voteRequest(uint _requestNo) public onlyContributors{... */\n      pop\n      jump\t// out\n        /* \"contracts/MainContract.sol\":570:598  uint public noOfContributors */\n    tag_50:\n      sload(0x08)\n      dup2\n      jump\t// out\n        /* \"contracts/MainContract.sol\":2486:2963  function makePayment(uint _requestNo) public onlyManager{... */\n    tag_55:\n        /* \"contracts/MainContract.sol\":853:860  manager */\n      0x03\n      0x00\n      swap1\n      sload\n      swap1\n      0x0100\n      exp\n      swap1\n      div\n      0xffffffffffffffffffffffffffffffffffffffff\n      and\n        /* \"contracts/MainContract.sol\":841:860  msg.sender==manager */\n      0xffffffffffffffffffffffffffffffffffffffff\n      and\n        /* \"contracts/MainContract.sol\":841:851  msg.sender */\n      caller\n        /* \"contracts/MainContract.sol\":841:860  msg.sender==manager */\n      0xffffffffffffffffffffffffffffffffffffffff\n      and\n      eq\n        /* \"contracts/MainContract.sol\":833:887  require(msg.sender==manager,\"You are not the manager\") */\n      tag_116\n      jumpi\n      mload(0x40)\n      0x08c379a000000000000000000000000000000000000000000000000000000000\n      dup2\n      mstore\n      0x04\n      add\n      tag_117\n      swap1\n      tag_88\n      jump\t// in\n    tag_117:\n      mload(0x40)\n      dup1\n      swap2\n      sub\n      swap1\n      revert\n    tag_116:\n        /* \"contracts/MainContract.sol\":2575:2581  target */\n      sload(0x06)\n        /* \"contracts/MainContract.sol\":2561:2573  raisedAmount */\n      sload(0x07)\n        /* \"contracts/MainContract.sol\":2561:2581  raisedAmount>=target */\n      lt\n      iszero\n        /* \"contracts/MainContract.sol\":2553:2611  require(raisedAmount>=target,\"Target has no been reached\") */\n      tag_119\n      jumpi\n      mload(0x40)\n      0x08c379a000000000000000000000000000000000000000000000000000000000\n      dup2\n      mstore\n      0x04\n      add\n      tag_120\n      swap1\n      tag_121\n      jump\t// in\n    tag_120:\n      mload(0x40)\n      dup1\n      swap2\n      sub\n      swap1\n      revert\n    tag_119:\n        /* \"contracts/MainContract.sol\":2622:2649  Request storage thisrequest */\n      0x00\n        /* \"contracts/MainContract.sol\":2650:2658  requests */\n      dup1\n        /* \"contracts/MainContract.sol\":2650:2670  requests[_requestNo] */\n      0x00\n        /* \"contracts/MainContract.sol\":2659:2669  _requestNo */\n      dup4\n        /* \"contracts/MainContract.sol\":2650:2670  requests[_requestNo] */\n      dup2\n      mstore\n      0x20\n      add\n      swap1\n      dup2\n      mstore\n      0x20\n      add\n      0x00\n      keccak256\n        /* \"contracts/MainContract.sol\":2622:2670  Request storage thisrequest=requests[_requestNo] */\n      swap1\n      pop\n        /* \"contracts/MainContract.sol\":2712:2717  false */\n      0x00\n        /* \"contracts/MainContract.sol\":2689:2717  thisrequest.completed==false */\n      iszero\n      iszero\n        /* \"contracts/MainContract.sol\":2689:2700  thisrequest */\n      dup2\n        /* \"contracts/MainContract.sol\":2689:2710  thisrequest.completed */\n      0x03\n      add\n      0x00\n      swap1\n      sload\n      swap1\n      0x0100\n      exp\n      swap1\n      div\n      0xff\n      and\n        /* \"contracts/MainContract.sol\":2689:2717  thisrequest.completed==false */\n      iszero\n      iszero\n      eq\n        /* \"contracts/MainContract.sol\":2681:2751  require(thisrequest.completed==false,\"The request has been completed\") */\n      tag_122\n      jumpi\n      mload(0x40)\n      0x08c379a000000000000000000000000000000000000000000000000000000000\n      dup2\n      mstore\n      0x04\n      add\n      tag_123\n      swap1\n      tag_124\n      jump\t// in\n    tag_123:\n      mload(0x40)\n      dup1\n      swap2\n      sub\n      swap1\n      revert\n    tag_122:\n        /* \"contracts/MainContract.sol\":2811:2812  2 */\n      0x02\n        /* \"contracts/MainContract.sol\":2794:2810  noOfContributors */\n      sload(0x08)\n        /* \"contracts/MainContract.sol\":2794:2812  noOfContributors/2 */\n      tag_125\n      swap2\n      swap1\n      tag_126\n      jump\t// in\n    tag_125:\n        /* \"contracts/MainContract.sol\":2770:2781  thisrequest */\n      dup2\n        /* \"contracts/MainContract.sol\":2770:2792  thisrequest.noOfVoters */\n      0x04\n      add\n      sload\n        /* \"contracts/MainContract.sol\":2770:2813  thisrequest.noOfVoters>(noOfContributors/2) */\n      gt\n        /* \"contracts/MainContract.sol\":2762:2854  require(thisrequest.noOfVoters>(noOfContributors/2),\"Majority does not support the request\") */\n      tag_127\n      jumpi\n      mload(0x40)\n      0x08c379a000000000000000000000000000000000000000000000000000000000\n      dup2\n      mstore\n      0x04\n      add\n      tag_128\n      swap1\n      tag_129\n      jump\t// in\n    tag_128:\n      mload(0x40)\n      dup1\n      swap2\n      sub\n      swap1\n      revert\n    tag_127:\n        /* \"contracts/MainContract.sol\":2865:2876  thisrequest */\n      dup1\n        /* \"contracts/MainContract.sol\":2865:2886  thisrequest.recipient */\n      0x01\n      add\n      0x00\n      swap1\n      sload\n      swap1\n      0x0100\n      exp\n      swap1\n      div\n      0xffffffffffffffffffffffffffffffffffffffff\n      and\n        /* \"contracts/MainContract.sol\":2865:2895  thisrequest.recipient.transfer */\n      0xffffffffffffffffffffffffffffffffffffffff\n      and\n        /* \"contracts/MainContract.sol\":2865:2914  thisrequest.recipient.transfer(thisrequest.value) */\n      0x08fc\n        /* \"contracts/MainContract.sol\":2896:2907  thisrequest */\n      dup3\n        /* \"contracts/MainContract.sol\":2896:2913  thisrequest.value */\n      0x02\n      add\n      sload\n        /* \"contracts/MainContract.sol\":2865:2914  thisrequest.recipient.transfer(thisrequest.value) */\n      swap1\n      dup2\n      iszero\n      mul\n      swap1\n      mload(0x40)\n      0x00\n      mload(0x40)\n      dup1\n      dup4\n      sub\n      dup2\n      dup6\n      dup9\n      dup9\n      call\n      swap4\n      pop\n      pop\n      pop\n      pop\n      iszero\n      dup1\n      iszero\n      tag_131\n      jumpi\n      returndatasize\n      0x00\n      dup1\n      returndatacopy\n      revert(0x00, returndatasize)\n    tag_131:\n      pop\n        /* \"contracts/MainContract.sol\":2947:2951  true */\n      0x01\n        /* \"contracts/MainContract.sol\":2925:2936  thisrequest */\n      dup2\n        /* \"contracts/MainContract.sol\":2925:2946  thisrequest.completed */\n      0x03\n      add\n      0x00\n        /* \"contracts/MainContract.sol\":2925:2951  thisrequest.completed=true */\n      0x0100\n      exp\n      dup2\n      sload\n      dup2\n      0xff\n      mul\n      not\n      and\n      swap1\n      dup4\n      iszero\n      iszero\n      mul\n      or\n      swap1\n      sstore\n      pop\n        /* \"contracts/MainContract.sol\":2542:2963  {... */\n      pop\n        /* \"contracts/MainContract.sol\":2486:2963  function makePayment(uint _requestNo) public onlyManager{... */\n      pop\n      jump\t// out\n        /* \"contracts/MainContract.sol\":1923:2181  function refund() public onlyContributors{... */\n    tag_58:\n        /* \"contracts/MainContract.sol\":982:983  0 */\n      0x00\n        /* \"contracts/MainContract.sol\":957:969  contributors */\n      0x02\n        /* \"contracts/MainContract.sol\":957:981  contributors[msg.sender] */\n      0x00\n        /* \"contracts/MainContract.sol\":970:980  msg.sender */\n      caller\n        /* \"contracts/MainContract.sol\":957:981  contributors[msg.sender] */\n      0xffffffffffffffffffffffffffffffffffffffff\n      and\n      0xffffffffffffffffffffffffffffffffffffffff\n      and\n      dup2\n      mstore\n      0x20\n      add\n      swap1\n      dup2\n      mstore\n      0x20\n      add\n      0x00\n      keccak256\n      sload\n        /* \"contracts/MainContract.sol\":957:983  contributors[msg.sender]>0 */\n      gt\n        /* \"contracts/MainContract.sol\":949:1012  require(contributors[msg.sender]>0,\"You are not a contributor\") */\n      tag_133\n      jumpi\n      mload(0x40)\n      0x08c379a000000000000000000000000000000000000000000000000000000000\n      dup2\n      mstore\n      0x04\n      add\n      tag_134\n      swap1\n      tag_109\n      jump\t// in\n    tag_134:\n      mload(0x40)\n      dup1\n      swap2\n      sub\n      swap1\n      revert\n    tag_133:\n        /* \"contracts/MainContract.sol\":1999:2007  deadline */\n      sload(0x05)\n        /* \"contracts/MainContract.sol\":1983:1998  block.timestamp */\n      timestamp\n        /* \"contracts/MainContract.sol\":1983:2007  block.timestamp>deadline */\n      gt\n        /* \"contracts/MainContract.sol\":1983:2030  block.timestamp>deadline && raisedAmount<target */\n      dup1\n      iszero\n      tag_136\n      jumpi\n      pop\n        /* \"contracts/MainContract.sol\":2024:2030  target */\n      sload(0x06)\n        /* \"contracts/MainContract.sol\":2011:2023  raisedAmount */\n      sload(0x07)\n        /* \"contracts/MainContract.sol\":2011:2030  raisedAmount<target */\n      lt\n        /* \"contracts/MainContract.sol\":1983:2030  block.timestamp>deadline && raisedAmount<target */\n    tag_136:\n        /* \"contracts/MainContract.sol\":1975:2069  require(block.timestamp>deadline && raisedAmount<target,\"You are not eligible for refund now\") */\n      tag_137\n      jumpi\n      mload(0x40)\n      0x08c379a000000000000000000000000000000000000000000000000000000000\n      dup2\n      mstore\n      0x04\n      add\n      tag_138\n      swap1\n      tag_139\n      jump\t// in\n    tag_138:\n      mload(0x40)\n      dup1\n      swap2\n      sub\n      swap1\n      revert\n    tag_137:\n        /* \"contracts/MainContract.sol\":2088:2098  msg.sender */\n      caller\n        /* \"contracts/MainContract.sol\":2080:2108  payable(msg.sender).transfer */\n      0xffffffffffffffffffffffffffffffffffffffff\n      and\n        /* \"contracts/MainContract.sol\":2080:2134  payable(msg.sender).transfer(contributors[msg.sender]) */\n      0x08fc\n        /* \"contracts/MainContract.sol\":2109:2121  contributors */\n      0x02\n        /* \"contracts/MainContract.sol\":2109:2133  contributors[msg.sender] */\n      0x00\n        /* \"contracts/MainContract.sol\":2122:2132  msg.sender */\n      caller\n        /* \"contracts/MainContract.sol\":2109:2133  contributors[msg.sender] */\n      0xffffffffffffffffffffffffffffffffffffffff\n      and\n      0xffffffffffffffffffffffffffffffffffffffff\n      and\n      dup2\n      mstore\n      0x20\n      add\n      swap1\n      dup2\n      mstore\n      0x20\n      add\n      0x00\n      keccak256\n      sload\n        /* \"contracts/MainContract.sol\":2080:2134  payable(msg.sender).transfer(contributors[msg.sender]) */\n      swap1\n      dup2\n      iszero\n      mul\n      swap1\n      mload(0x40)\n      0x00\n      mload(0x40)\n      dup1\n      dup4\n      sub\n      dup2\n      dup6\n      dup9\n      dup9\n      call\n      swap4\n      pop\n      pop\n      pop\n      pop\n      iszero\n      dup1\n      iszero\n      tag_141\n      jumpi\n      returndatasize\n      0x00\n      dup1\n      returndatacopy\n      revert(0x00, returndatasize)\n    tag_141:\n      pop\n        /* \"contracts/MainContract.sol\":2170:2171  0 */\n      0x00\n        /* \"contracts/MainContract.sol\":2145:2157  contributors */\n      0x02\n        /* \"contracts/MainContract.sol\":2145:2169  contributors[msg.sender] */\n      0x00\n        /* \"contracts/MainContract.sol\":2158:2168  msg.sender */\n      caller\n        /* \"contracts/MainContract.sol\":2145:2169  contributors[msg.sender] */\n      0xffffffffffffffffffffffffffffffffffffffff\n      and\n      0xffffffffffffffffffffffffffffffffffffffff\n      and\n      dup2\n      mstore\n      0x20\n      add\n      swap1\n      dup2\n      mstore\n      0x20\n      add\n      0x00\n      keccak256\n        /* \"contracts/MainContract.sol\":2145:2171  contributors[msg.sender]=0 */\n      dup2\n      swap1\n      sstore\n      pop\n        /* \"contracts/MainContract.sol\":1923:2181  function refund() public onlyContributors{... */\n      jump\t// out\n        /* \"contracts/MainContract.sol\":293:331  mapping(uint=>Request) public requests */\n    tag_62:\n      mstore(0x20, 0x00)\n      dup1\n      0x00\n      mstore\n      keccak256(0x00, 0x40)\n      0x00\n      swap2\n      pop\n      swap1\n      pop\n      dup1\n      0x00\n      add\n      dup1\n      sload\n      tag_142\n      swap1\n      tag_143\n      jump\t// in\n    tag_142:\n      dup1\n      0x1f\n      add\n      0x20\n      dup1\n      swap2\n      div\n      mul\n      0x20\n      add\n      mload(0x40)\n      swap1\n      dup2\n      add\n      0x40\n      mstore\n      dup1\n      swap3\n      swap2\n      swap1\n      dup2\n      dup2\n      mstore\n      0x20\n      add\n      dup3\n      dup1\n      sload\n      tag_144\n      swap1\n      tag_143\n      jump\t// in\n    tag_144:\n      dup1\n      iszero\n      tag_145\n      jumpi\n      dup1\n      0x1f\n      lt\n      tag_146\n      jumpi\n      0x0100\n      dup1\n      dup4\n      sload\n      div\n      mul\n      dup4\n      mstore\n      swap2\n      0x20\n      add\n      swap2\n      jump(tag_145)\n    tag_146:\n      dup3\n      add\n      swap2\n      swap1\n      0x00\n      mstore\n      keccak256(0x00, 0x20)\n      swap1\n    tag_147:\n      dup2\n      sload\n      dup2\n      mstore\n      swap1\n      0x01\n      add\n      swap1\n      0x20\n      add\n      dup1\n      dup4\n      gt\n      tag_147\n      jumpi\n      dup3\n      swap1\n      sub\n      0x1f\n      and\n      dup3\n      add\n      swap2\n    tag_145:\n      pop\n      pop\n      pop\n      pop\n      pop\n      swap1\n      dup1\n      0x01\n      add\n      0x00\n      swap1\n      sload\n      swap1\n      0x0100\n      exp\n      swap1\n      div\n      0xffffffffffffffffffffffffffffffffffffffff\n      and\n      swap1\n      dup1\n      0x02\n      add\n      sload\n      swap1\n      dup1\n      0x03\n      add\n      0x00\n      swap1\n      sload\n      swap1\n      0x0100\n      exp\n      swap1\n      div\n      0xff\n      and\n      swap1\n      dup1\n      0x04\n      add\n      sload\n      swap1\n      pop\n      dup6\n      jump\t// out\n        /* \"contracts/MainContract.sol\":449:480  uint public minimumContribution */\n    tag_67:\n      sload(0x04)\n      dup2\n      jump\t// out\n        /* \"contracts/MainContract.sol\":338:362  uint public noOfRequests */\n    tag_71:\n      sload(0x01)\n      dup2\n      jump\t// out\n        /* \"contracts/MainContract.sol\":539:563  uint public raisedAmount */\n    tag_75:\n      sload(0x07)\n      dup2\n      jump\t// out\n        /* \"contracts/MainContract.sol\":1821:1917  function checkBalance() public view returns(uint){... */\n    tag_79:\n        /* \"contracts/MainContract.sol\":1865:1869  uint */\n      0x00\n        /* \"contracts/MainContract.sol\":1888:1909  address(this).balance */\n      selfbalance\n        /* \"contracts/MainContract.sol\":1881:1909  return address(this).balance */\n      swap1\n      pop\n        /* \"contracts/MainContract.sol\":1821:1917  function checkBalance() public view returns(uint){... */\n      swap1\n      jump\t// out\n        /* \"contracts/MainContract.sol\":514:532  uint public target */\n    tag_83:\n      sload(0x06)\n      dup2\n      jump\t// out\n    tag_93:\n      dup3\n      dup1\n      sload\n      tag_149\n      swap1\n      tag_143\n      jump\t// in\n    tag_149:\n      swap1\n      0x00\n      mstore\n      keccak256(0x00, 0x20)\n      swap1\n      0x1f\n      add\n      0x20\n      swap1\n      div\n      dup2\n      add\n      swap3\n      dup3\n      tag_151\n      jumpi\n      0x00\n      dup6\n      sstore\n      jump(tag_150)\n    tag_151:\n      dup3\n      0x1f\n      lt\n      tag_152\n      jumpi\n      dup1\n      calldataload\n      not(0xff)\n      and\n      dup4\n      dup1\n      add\n      or\n      dup6\n      sstore\n      jump(tag_150)\n    tag_152:\n      dup3\n      dup1\n      add\n      0x01\n      add\n      dup6\n      sstore\n      dup3\n      iszero\n      tag_150\n      jumpi\n      swap2\n      dup3\n      add\n    tag_153:\n      dup3\n      dup2\n      gt\n      iszero\n      tag_154\n      jumpi\n      dup3\n      calldataload\n      dup3\n      sstore\n      swap2\n      0x20\n      add\n      swap2\n      swap1\n      0x01\n      add\n      swap1\n      jump(tag_153)\n    tag_154:\n    tag_150:\n      pop\n      swap1\n      pop\n      tag_155\n      swap2\n      swap1\n      tag_156\n      jump\t// in\n    tag_155:\n      pop\n      swap1\n      jump\t// out\n    tag_156:\n    tag_157:\n      dup1\n      dup3\n      gt\n      iszero\n      tag_158\n      jumpi\n      0x00\n      dup2\n      0x00\n      swap1\n      sstore\n      pop\n      0x01\n      add\n      jump(tag_157)\n    tag_158:\n      pop\n      swap1\n      jump\t// out\n        /* \"#utility.yul\":88:205   */\n    tag_160:\n        /* \"#utility.yul\":197:198   */\n      0x00\n        /* \"#utility.yul\":194:195   */\n      dup1\n        /* \"#utility.yul\":187:199   */\n      revert\n        /* \"#utility.yul\":211:328   */\n    tag_161:\n        /* \"#utility.yul\":320:321   */\n      0x00\n        /* \"#utility.yul\":317:318   */\n      dup1\n        /* \"#utility.yul\":310:322   */\n      revert\n        /* \"#utility.yul\":334:451   */\n    tag_162:\n        /* \"#utility.yul\":443:444   */\n      0x00\n        /* \"#utility.yul\":440:441   */\n      dup1\n        /* \"#utility.yul\":433:445   */\n      revert\n        /* \"#utility.yul\":457:574   */\n    tag_163:\n        /* \"#utility.yul\":566:567   */\n      0x00\n        /* \"#utility.yul\":563:564   */\n      dup1\n        /* \"#utility.yul\":556:568   */\n      revert\n        /* \"#utility.yul\":580:697   */\n    tag_164:\n        /* \"#utility.yul\":689:690   */\n      0x00\n        /* \"#utility.yul\":686:687   */\n      dup1\n        /* \"#utility.yul\":679:691   */\n      revert\n        /* \"#utility.yul\":717:1270   */\n    tag_165:\n        /* \"#utility.yul\":775:783   */\n      0x00\n        /* \"#utility.yul\":785:791   */\n      dup1\n        /* \"#utility.yul\":835:838   */\n      dup4\n        /* \"#utility.yul\":828:832   */\n      0x1f\n        /* \"#utility.yul\":820:826   */\n      dup5\n        /* \"#utility.yul\":816:833   */\n      add\n        /* \"#utility.yul\":812:839   */\n      slt\n        /* \"#utility.yul\":802:924   */\n      tag_215\n      jumpi\n        /* \"#utility.yul\":843:922   */\n      tag_216\n      tag_162\n      jump\t// in\n    tag_216:\n        /* \"#utility.yul\":802:924   */\n    tag_215:\n        /* \"#utility.yul\":956:962   */\n      dup3\n        /* \"#utility.yul\":943:963   */\n      calldataload\n        /* \"#utility.yul\":933:963   */\n      swap1\n      pop\n        /* \"#utility.yul\":986:1004   */\n      0xffffffffffffffff\n        /* \"#utility.yul\":978:984   */\n      dup2\n        /* \"#utility.yul\":975:1005   */\n      gt\n        /* \"#utility.yul\":972:1089   */\n      iszero\n      tag_217\n      jumpi\n        /* \"#utility.yul\":1008:1087   */\n      tag_218\n      tag_163\n      jump\t// in\n    tag_218:\n        /* \"#utility.yul\":972:1089   */\n    tag_217:\n        /* \"#utility.yul\":1122:1126   */\n      0x20\n        /* \"#utility.yul\":1114:1120   */\n      dup4\n        /* \"#utility.yul\":1110:1127   */\n      add\n        /* \"#utility.yul\":1098:1127   */\n      swap2\n      pop\n        /* \"#utility.yul\":1176:1179   */\n      dup4\n        /* \"#utility.yul\":1168:1172   */\n      0x01\n        /* \"#utility.yul\":1160:1166   */\n      dup3\n        /* \"#utility.yul\":1156:1173   */\n      mul\n        /* \"#utility.yul\":1146:1154   */\n      dup4\n        /* \"#utility.yul\":1142:1174   */\n      add\n        /* \"#utility.yul\":1139:1180   */\n      gt\n        /* \"#utility.yul\":1136:1264   */\n      iszero\n      tag_219\n      jumpi\n        /* \"#utility.yul\":1183:1262   */\n      tag_220\n      tag_164\n      jump\t// in\n    tag_220:\n        /* \"#utility.yul\":1136:1264   */\n    tag_219:\n        /* \"#utility.yul\":717:1270   */\n      swap3\n      pop\n      swap3\n      swap1\n      pop\n      jump\t// out\n        /* \"#utility.yul\":1276:1402   */\n    tag_166:\n        /* \"#utility.yul\":1313:1320   */\n      0x00\n        /* \"#utility.yul\":1353:1395   */\n      0xffffffffffffffffffffffffffffffffffffffff\n        /* \"#utility.yul\":1346:1351   */\n      dup3\n        /* \"#utility.yul\":1342:1396   */\n      and\n        /* \"#utility.yul\":1331:1396   */\n      swap1\n      pop\n        /* \"#utility.yul\":1276:1402   */\n      swap2\n      swap1\n      pop\n      jump\t// out\n        /* \"#utility.yul\":1408:1512   */\n    tag_167:\n        /* \"#utility.yul\":1453:1460   */\n      0x00\n        /* \"#utility.yul\":1482:1506   */\n      tag_223\n        /* \"#utility.yul\":1500:1505   */\n      dup3\n        /* \"#utility.yul\":1482:1506   */\n      tag_166\n      jump\t// in\n    tag_223:\n        /* \"#utility.yul\":1471:1506   */\n      swap1\n      pop\n        /* \"#utility.yul\":1408:1512   */\n      swap2\n      swap1\n      pop\n      jump\t// out\n        /* \"#utility.yul\":1518:1656   */\n    tag_168:\n        /* \"#utility.yul\":1599:1631   */\n      tag_225\n        /* \"#utility.yul\":1625:1630   */\n      dup2\n        /* \"#utility.yul\":1599:1631   */\n      tag_167\n      jump\t// in\n    tag_225:\n        /* \"#utility.yul\":1592:1597   */\n      dup2\n        /* \"#utility.yul\":1589:1632   */\n      eq\n        /* \"#utility.yul\":1579:1650   */\n      tag_226\n      jumpi\n        /* \"#utility.yul\":1646:1647   */\n      0x00\n        /* \"#utility.yul\":1643:1644   */\n      dup1\n        /* \"#utility.yul\":1636:1648   */\n      revert\n        /* \"#utility.yul\":1579:1650   */\n    tag_226:\n        /* \"#utility.yul\":1518:1656   */\n      pop\n      jump\t// out\n        /* \"#utility.yul\":1662:1817   */\n    tag_169:\n        /* \"#utility.yul\":1716:1721   */\n      0x00\n        /* \"#utility.yul\":1754:1760   */\n      dup2\n        /* \"#utility.yul\":1741:1761   */\n      calldataload\n        /* \"#utility.yul\":1732:1761   */\n      swap1\n      pop\n        /* \"#utility.yul\":1770:1811   */\n      tag_228\n        /* \"#utility.yul\":1805:1810   */\n      dup2\n        /* \"#utility.yul\":1770:1811   */\n      tag_168\n      jump\t// in\n    tag_228:\n        /* \"#utility.yul\":1662:1817   */\n      swap3\n      swap2\n      pop\n      pop\n      jump\t// out\n        /* \"#utility.yul\":1823:1900   */\n    tag_170:\n        /* \"#utility.yul\":1860:1867   */\n      0x00\n        /* \"#utility.yul\":1889:1894   */\n      dup2\n        /* \"#utility.yul\":1878:1894   */\n      swap1\n      pop\n        /* \"#utility.yul\":1823:1900   */\n      swap2\n      swap1\n      pop\n      jump\t// out\n        /* \"#utility.yul\":1906:2028   */\n    tag_171:\n        /* \"#utility.yul\":1979:2003   */\n      tag_231\n        /* \"#utility.yul\":1997:2002   */\n      dup2\n        /* \"#utility.yul\":1979:2003   */\n      tag_170\n      jump\t// in\n    tag_231:\n        /* \"#utility.yul\":1972:1977   */\n      dup2\n        /* \"#utility.yul\":1969:2004   */\n      eq\n        /* \"#utility.yul\":1959:2022   */\n      tag_232\n      jumpi\n        /* \"#utility.yul\":2018:2019   */\n      0x00\n        /* \"#utility.yul\":2015:2016   */\n      dup1\n        /* \"#utility.yul\":2008:2020   */\n      revert\n        /* \"#utility.yul\":1959:2022   */\n    tag_232:\n        /* \"#utility.yul\":1906:2028   */\n      pop\n      jump\t// out\n        /* \"#utility.yul\":2034:2173   */\n    tag_172:\n        /* \"#utility.yul\":2080:2085   */\n      0x00\n        /* \"#utility.yul\":2118:2124   */\n      dup2\n        /* \"#utility.yul\":2105:2125   */\n      calldataload\n        /* \"#utility.yul\":2096:2125   */\n      swap1\n      pop\n        /* \"#utility.yul\":2134:2167   */\n      tag_234\n        /* \"#utility.yul\":2161:2166   */\n      dup2\n        /* \"#utility.yul\":2134:2167   */\n      tag_171\n      jump\t// in\n    tag_234:\n        /* \"#utility.yul\":2034:2173   */\n      swap3\n      swap2\n      pop\n      pop\n      jump\t// out\n        /* \"#utility.yul\":2179:3014   */\n    tag_23:\n        /* \"#utility.yul\":2276:2282   */\n      0x00\n        /* \"#utility.yul\":2284:2290   */\n      dup1\n        /* \"#utility.yul\":2292:2298   */\n      0x00\n        /* \"#utility.yul\":2300:2306   */\n      dup1\n        /* \"#utility.yul\":2349:2351   */\n      0x60\n        /* \"#utility.yul\":2337:2346   */\n      dup6\n        /* \"#utility.yul\":2328:2335   */\n      dup8\n        /* \"#utility.yul\":2324:2347   */\n      sub\n        /* \"#utility.yul\":2320:2352   */\n      slt\n        /* \"#utility.yul\":2317:2436   */\n      iszero\n      tag_236\n      jumpi\n        /* \"#utility.yul\":2355:2434   */\n      tag_237\n      tag_160\n      jump\t// in\n    tag_237:\n        /* \"#utility.yul\":2317:2436   */\n    tag_236:\n        /* \"#utility.yul\":2503:2504   */\n      0x00\n        /* \"#utility.yul\":2492:2501   */\n      dup6\n        /* \"#utility.yul\":2488:2505   */\n      add\n        /* \"#utility.yul\":2475:2506   */\n      calldataload\n        /* \"#utility.yul\":2533:2551   */\n      0xffffffffffffffff\n        /* \"#utility.yul\":2525:2531   */\n      dup2\n        /* \"#utility.yul\":2522:2552   */\n      gt\n        /* \"#utility.yul\":2519:2636   */\n      iszero\n      tag_238\n      jumpi\n        /* \"#utility.yul\":2555:2634   */\n      tag_239\n      tag_161\n      jump\t// in\n    tag_239:\n        /* \"#utility.yul\":2519:2636   */\n    tag_238:\n        /* \"#utility.yul\":2668:2733   */\n      tag_240\n        /* \"#utility.yul\":2725:2732   */\n      dup8\n        /* \"#utility.yul\":2716:2722   */\n      dup3\n        /* \"#utility.yul\":2705:2714   */\n      dup9\n        /* \"#utility.yul\":2701:2723   */\n      add\n        /* \"#utility.yul\":2668:2733   */\n      tag_165\n      jump\t// in\n    tag_240:\n        /* \"#utility.yul\":2650:2733   */\n      swap5\n      pop\n      swap5\n      pop\n        /* \"#utility.yul\":2446:2743   */\n      pop\n        /* \"#utility.yul\":2782:2784   */\n      0x20\n        /* \"#utility.yul\":2808:2869   */\n      tag_241\n        /* \"#utility.yul\":2861:2868   */\n      dup8\n        /* \"#utility.yul\":2852:2858   */\n      dup3\n        /* \"#utility.yul\":2841:2850   */\n      dup9\n        /* \"#utility.yul\":2837:2859   */\n      add\n        /* \"#utility.yul\":2808:2869   */\n      tag_169\n      jump\t// in\n    tag_241:\n        /* \"#utility.yul\":2798:2869   */\n      swap3\n      pop\n        /* \"#utility.yul\":2753:2879   */\n      pop\n        /* \"#utility.yul\":2918:2920   */\n      0x40\n        /* \"#utility.yul\":2944:2997   */\n      tag_242\n        /* \"#utility.yul\":2989:2996   */\n      dup8\n        /* \"#utility.yul\":2980:2986   */\n      dup3\n        /* \"#utility.yul\":2969:2978   */\n      dup9\n        /* \"#utility.yul\":2965:2987   */\n      add\n        /* \"#utility.yul\":2944:2997   */\n      tag_172\n      jump\t// in\n    tag_242:\n        /* \"#utility.yul\":2934:2997   */\n      swap2\n      pop\n        /* \"#utility.yul\":2889:3007   */\n      pop\n        /* \"#utility.yul\":2179:3014   */\n      swap3\n      swap6\n      swap2\n      swap5\n      pop\n      swap3\n      pop\n      jump\t// out\n        /* \"#utility.yul\":3020:3116   */\n    tag_173:\n        /* \"#utility.yul\":3057:3064   */\n      0x00\n        /* \"#utility.yul\":3086:3110   */\n      tag_244\n        /* \"#utility.yul\":3104:3109   */\n      dup3\n        /* \"#utility.yul\":3086:3110   */\n      tag_166\n      jump\t// in\n    tag_244:\n        /* \"#utility.yul\":3075:3110   */\n      swap1\n      pop\n        /* \"#utility.yul\":3020:3116   */\n      swap2\n      swap1\n      pop\n      jump\t// out\n        /* \"#utility.yul\":3122:3244   */\n    tag_174:\n        /* \"#utility.yul\":3195:3219   */\n      tag_246\n        /* \"#utility.yul\":3213:3218   */\n      dup2\n        /* \"#utility.yul\":3195:3219   */\n      tag_173\n      jump\t// in\n    tag_246:\n        /* \"#utility.yul\":3188:3193   */\n      dup2\n        /* \"#utility.yul\":3185:3220   */\n      eq\n        /* \"#utility.yul\":3175:3238   */\n      tag_247\n      jumpi\n        /* \"#utility.yul\":3234:3235   */\n      0x00\n        /* \"#utility.yul\":3231:3232   */\n      dup1\n        /* \"#utility.yul\":3224:3236   */\n      revert\n        /* \"#utility.yul\":3175:3238   */\n    tag_247:\n        /* \"#utility.yul\":3122:3244   */\n      pop\n      jump\t// out\n        /* \"#utility.yul\":3250:3389   */\n    tag_175:\n        /* \"#utility.yul\":3296:3301   */\n      0x00\n        /* \"#utility.yul\":3334:3340   */\n      dup2\n        /* \"#utility.yul\":3321:3341   */\n      calldataload\n        /* \"#utility.yul\":3312:3341   */\n      swap1\n      pop\n        /* \"#utility.yul\":3350:3383   */\n      tag_249\n        /* \"#utility.yul\":3377:3382   */\n      dup2\n        /* \"#utility.yul\":3350:3383   */\n      tag_174\n      jump\t// in\n    tag_249:\n        /* \"#utility.yul\":3250:3389   */\n      swap3\n      swap2\n      pop\n      pop\n      jump\t// out\n        /* \"#utility.yul\":3395:3724   */\n    tag_28:\n        /* \"#utility.yul\":3454:3460   */\n      0x00\n        /* \"#utility.yul\":3503:3505   */\n      0x20\n        /* \"#utility.yul\":3491:3500   */\n      dup3\n        /* \"#utility.yul\":3482:3489   */\n      dup5\n        /* \"#utility.yul\":3478:3501   */\n      sub\n        /* \"#utility.yul\":3474:3506   */\n      slt\n        /* \"#utility.yul\":3471:3590   */\n      iszero\n      tag_251\n      jumpi\n        /* \"#utility.yul\":3509:3588   */\n      tag_252\n      tag_160\n      jump\t// in\n    tag_252:\n        /* \"#utility.yul\":3471:3590   */\n    tag_251:\n        /* \"#utility.yul\":3629:3630   */\n      0x00\n        /* \"#utility.yul\":3654:3707   */\n      tag_253\n        /* \"#utility.yul\":3699:3706   */\n      dup5\n        /* \"#utility.yul\":3690:3696   */\n      dup3\n        /* \"#utility.yul\":3679:3688   */\n      dup6\n        /* \"#utility.yul\":3675:3697   */\n      add\n        /* \"#utility.yul\":3654:3707   */\n      tag_175\n      jump\t// in\n    tag_253:\n        /* \"#utility.yul\":3644:3707   */\n      swap2\n      pop\n        /* \"#utility.yul\":3600:3717   */\n      pop\n        /* \"#utility.yul\":3395:3724   */\n      swap3\n      swap2\n      pop\n      pop\n      jump\t// out\n        /* \"#utility.yul\":3730:3848   */\n    tag_176:\n        /* \"#utility.yul\":3817:3841   */\n      tag_255\n        /* \"#utility.yul\":3835:3840   */\n      dup2\n        /* \"#utility.yul\":3817:3841   */\n      tag_170\n      jump\t// in\n    tag_255:\n        /* \"#utility.yul\":3812:3815   */\n      dup3\n        /* \"#utility.yul\":3805:3842   */\n      mstore\n        /* \"#utility.yul\":3730:3848   */\n      pop\n      pop\n      jump\t// out\n        /* \"#utility.yul\":3854:4076   */\n    tag_31:\n        /* \"#utility.yul\":3947:3951   */\n      0x00\n        /* \"#utility.yul\":3985:3987   */\n      0x20\n        /* \"#utility.yul\":3974:3983   */\n      dup3\n        /* \"#utility.yul\":3970:3988   */\n      add\n        /* \"#utility.yul\":3962:3988   */\n      swap1\n      pop\n        /* \"#utility.yul\":3998:4069   */\n      tag_257\n        /* \"#utility.yul\":4066:4067   */\n      0x00\n        /* \"#utility.yul\":4055:4064   */\n      dup4\n        /* \"#utility.yul\":4051:4068   */\n      add\n        /* \"#utility.yul\":4042:4048   */\n      dup5\n        /* \"#utility.yul\":3998:4069   */\n      tag_176\n      jump\t// in\n    tag_257:\n        /* \"#utility.yul\":3854:4076   */\n      swap3\n      swap2\n      pop\n      pop\n      jump\t// out\n        /* \"#utility.yul\":4082:4200   */\n    tag_177:\n        /* \"#utility.yul\":4169:4193   */\n      tag_259\n        /* \"#utility.yul\":4187:4192   */\n      dup2\n        /* \"#utility.yul\":4169:4193   */\n      tag_173\n      jump\t// in\n    tag_259:\n        /* \"#utility.yul\":4164:4167   */\n      dup3\n        /* \"#utility.yul\":4157:4194   */\n      mstore\n        /* \"#utility.yul\":4082:4200   */\n      pop\n      pop\n      jump\t// out\n        /* \"#utility.yul\":4206:4428   */\n    tag_42:\n        /* \"#utility.yul\":4299:4303   */\n      0x00\n        /* \"#utility.yul\":4337:4339   */\n      0x20\n        /* \"#utility.yul\":4326:4335   */\n      dup3\n        /* \"#utility.yul\":4322:4340   */\n      add\n        /* \"#utility.yul\":4314:4340   */\n      swap1\n      pop\n        /* \"#utility.yul\":4350:4421   */\n      tag_261\n        /* \"#utility.yul\":4418:4419   */\n      0x00\n        /* \"#utility.yul\":4407:4416   */\n      dup4\n        /* \"#utility.yul\":4403:4420   */\n      add\n        /* \"#utility.yul\":4394:4400   */\n      dup5\n        /* \"#utility.yul\":4350:4421   */\n      tag_177\n      jump\t// in\n    tag_261:\n        /* \"#utility.yul\":4206:4428   */\n      swap3\n      swap2\n      pop\n      pop\n      jump\t// out\n        /* \"#utility.yul\":4434:4763   */\n    tag_46:\n        /* \"#utility.yul\":4493:4499   */\n      0x00\n        /* \"#utility.yul\":4542:4544   */\n      0x20\n        /* \"#utility.yul\":4530:4539   */\n      dup3\n        /* \"#utility.yul\":4521:4528   */\n      dup5\n        /* \"#utility.yul\":4517:4540   */\n      sub\n        /* \"#utility.yul\":4513:4545   */\n      slt\n        /* \"#utility.yul\":4510:4629   */\n      iszero\n      tag_263\n      jumpi\n        /* \"#utility.yul\":4548:4627   */\n      tag_264\n      tag_160\n      jump\t// in\n    tag_264:\n        /* \"#utility.yul\":4510:4629   */\n    tag_263:\n        /* \"#utility.yul\":4668:4669   */\n      0x00\n        /* \"#utility.yul\":4693:4746   */\n      tag_265\n        /* \"#utility.yul\":4738:4745   */\n      dup5\n        /* \"#utility.yul\":4729:4735   */\n      dup3\n        /* \"#utility.yul\":4718:4727   */\n      dup6\n        /* \"#utility.yul\":4714:4736   */\n      add\n        /* \"#utility.yul\":4693:4746   */\n      tag_172\n      jump\t// in\n    tag_265:\n        /* \"#utility.yul\":4683:4746   */\n      swap2\n      pop\n        /* \"#utility.yul\":4639:4756   */\n      pop\n        /* \"#utility.yul\":4434:4763   */\n      swap3\n      swap2\n      pop\n      pop\n      jump\t// out\n        /* \"#utility.yul\":4769:4868   */\n    tag_178:\n        /* \"#utility.yul\":4821:4827   */\n      0x00\n        /* \"#utility.yul\":4855:4860   */\n      dup2\n        /* \"#utility.yul\":4849:4861   */\n      mload\n        /* \"#utility.yul\":4839:4861   */\n      swap1\n      pop\n        /* \"#utility.yul\":4769:4868   */\n      swap2\n      swap1\n      pop\n      jump\t// out\n        /* \"#utility.yul\":4874:5043   */\n    tag_179:\n        /* \"#utility.yul\":4958:4969   */\n      0x00\n        /* \"#utility.yul\":4992:4998   */\n      dup3\n        /* \"#utility.yul\":4987:4990   */\n      dup3\n        /* \"#utility.yul\":4980:4999   */\n      mstore\n        /* \"#utility.yul\":5032:5036   */\n      0x20\n        /* \"#utility.yul\":5027:5030   */\n      dup3\n        /* \"#utility.yul\":5023:5037   */\n      add\n        /* \"#utility.yul\":5008:5037   */\n      swap1\n      pop\n        /* \"#utility.yul\":4874:5043   */\n      swap3\n      swap2\n      pop\n      pop\n      jump\t// out\n        /* \"#utility.yul\":5049:5356   */\n    tag_180:\n        /* \"#utility.yul\":5117:5118   */\n      0x00\n        /* \"#utility.yul\":5127:5240   */\n    tag_269:\n        /* \"#utility.yul\":5141:5147   */\n      dup4\n        /* \"#utility.yul\":5138:5139   */\n      dup2\n        /* \"#utility.yul\":5135:5148   */\n      lt\n        /* \"#utility.yul\":5127:5240   */\n      iszero\n      tag_271\n      jumpi\n        /* \"#utility.yul\":5226:5227   */\n      dup1\n        /* \"#utility.yul\":5221:5224   */\n      dup3\n        /* \"#utility.yul\":5217:5228   */\n      add\n        /* \"#utility.yul\":5211:5229   */\n      mload\n        /* \"#utility.yul\":5207:5208   */\n      dup2\n        /* \"#utility.yul\":5202:5205   */\n      dup5\n        /* \"#utility.yul\":5198:5209   */\n      add\n        /* \"#utility.yul\":5191:5230   */\n      mstore\n        /* \"#utility.yul\":5163:5165   */\n      0x20\n        /* \"#utility.yul\":5160:5161   */\n      dup2\n        /* \"#utility.yul\":5156:5166   */\n      add\n        /* \"#utility.yul\":5151:5166   */\n      swap1\n      pop\n        /* \"#utility.yul\":5127:5240   */\n      jump(tag_269)\n    tag_271:\n        /* \"#utility.yul\":5258:5264   */\n      dup4\n        /* \"#utility.yul\":5255:5256   */\n      dup2\n        /* \"#utility.yul\":5252:5265   */\n      gt\n        /* \"#utility.yul\":5249:5350   */\n      iszero\n      tag_272\n      jumpi\n        /* \"#utility.yul\":5338:5339   */\n      0x00\n        /* \"#utility.yul\":5329:5335   */\n      dup5\n        /* \"#utility.yul\":5324:5327   */\n      dup5\n        /* \"#utility.yul\":5320:5336   */\n      add\n        /* \"#utility.yul\":5313:5340   */\n      mstore\n        /* \"#utility.yul\":5249:5350   */\n    tag_272:\n        /* \"#utility.yul\":5098:5356   */\n      pop\n        /* \"#utility.yul\":5049:5356   */\n      pop\n      pop\n      pop\n      jump\t// out\n        /* \"#utility.yul\":5362:5464   */\n    tag_181:\n        /* \"#utility.yul\":5403:5409   */\n      0x00\n        /* \"#utility.yul\":5454:5456   */\n      0x1f\n        /* \"#utility.yul\":5450:5457   */\n      not\n        /* \"#utility.yul\":5445:5447   */\n      0x1f\n        /* \"#utility.yul\":5438:5443   */\n      dup4\n        /* \"#utility.yul\":5434:5448   */\n      add\n        /* \"#utility.yul\":5430:5458   */\n      and\n        /* \"#utility.yul\":5420:5458   */\n      swap1\n      pop\n        /* \"#utility.yul\":5362:5464   */\n      swap2\n      swap1\n      pop\n      jump\t// out\n        /* \"#utility.yul\":5470:5834   */\n    tag_182:\n        /* \"#utility.yul\":5558:5561   */\n      0x00\n        /* \"#utility.yul\":5586:5625   */\n      tag_275\n        /* \"#utility.yul\":5619:5624   */\n      dup3\n        /* \"#utility.yul\":5586:5625   */\n      tag_178\n      jump\t// in\n    tag_275:\n        /* \"#utility.yul\":5641:5712   */\n      tag_276\n        /* \"#utility.yul\":5705:5711   */\n      dup2\n        /* \"#utility.yul\":5700:5703   */\n      dup6\n        /* \"#utility.yul\":5641:5712   */\n      tag_179\n      jump\t// in\n    tag_276:\n        /* \"#utility.yul\":5634:5712   */\n      swap4\n      pop\n        /* \"#utility.yul\":5721:5773   */\n      tag_277\n        /* \"#utility.yul\":5766:5772   */\n      dup2\n        /* \"#utility.yul\":5761:5764   */\n      dup6\n        /* \"#utility.yul\":5754:5758   */\n      0x20\n        /* \"#utility.yul\":5747:5752   */\n      dup7\n        /* \"#utility.yul\":5743:5759   */\n      add\n        /* \"#utility.yul\":5721:5773   */\n      tag_180\n      jump\t// in\n    tag_277:\n        /* \"#utility.yul\":5798:5827   */\n      tag_278\n        /* \"#utility.yul\":5820:5826   */\n      dup2\n        /* \"#utility.yul\":5798:5827   */\n      tag_181\n      jump\t// in\n    tag_278:\n        /* \"#utility.yul\":5793:5796   */\n      dup5\n        /* \"#utility.yul\":5789:5828   */\n      add\n        /* \"#utility.yul\":5782:5828   */\n      swap2\n      pop\n        /* \"#utility.yul\":5562:5834   */\n      pop\n        /* \"#utility.yul\":5470:5834   */\n      swap3\n      swap2\n      pop\n      pop\n      jump\t// out\n        /* \"#utility.yul\":5840:5982   */\n    tag_183:\n        /* \"#utility.yul\":5943:5975   */\n      tag_280\n        /* \"#utility.yul\":5969:5974   */\n      dup2\n        /* \"#utility.yul\":5943:5975   */\n      tag_167\n      jump\t// in\n    tag_280:\n        /* \"#utility.yul\":5938:5941   */\n      dup3\n        /* \"#utility.yul\":5931:5976   */\n      mstore\n        /* \"#utility.yul\":5840:5982   */\n      pop\n      pop\n      jump\t// out\n        /* \"#utility.yul\":5988:6078   */\n    tag_184:\n        /* \"#utility.yul\":6022:6029   */\n      0x00\n        /* \"#utility.yul\":6065:6070   */\n      dup2\n        /* \"#utility.yul\":6058:6071   */\n      iszero\n        /* \"#utility.yul\":6051:6072   */\n      iszero\n        /* \"#utility.yul\":6040:6072   */\n      swap1\n      pop\n        /* \"#utility.yul\":5988:6078   */\n      swap2\n      swap1\n      pop\n      jump\t// out\n        /* \"#utility.yul\":6084:6193   */\n    tag_185:\n        /* \"#utility.yul\":6165:6186   */\n      tag_283\n        /* \"#utility.yul\":6180:6185   */\n      dup2\n        /* \"#utility.yul\":6165:6186   */\n      tag_184\n      jump\t// in\n    tag_283:\n        /* \"#utility.yul\":6160:6163   */\n      dup3\n        /* \"#utility.yul\":6153:6187   */\n      mstore\n        /* \"#utility.yul\":6084:6193   */\n      pop\n      pop\n      jump\t// out\n        /* \"#utility.yul\":6199:6974   */\n    tag_64:\n        /* \"#utility.yul\":6434:6438   */\n      0x00\n        /* \"#utility.yul\":6472:6475   */\n      0xa0\n        /* \"#utility.yul\":6461:6470   */\n      dup3\n        /* \"#utility.yul\":6457:6476   */\n      add\n        /* \"#utility.yul\":6449:6476   */\n      swap1\n      pop\n        /* \"#utility.yul\":6522:6531   */\n      dup2\n        /* \"#utility.yul\":6516:6520   */\n      dup2\n        /* \"#utility.yul\":6512:6532   */\n      sub\n        /* \"#utility.yul\":6508:6509   */\n      0x00\n        /* \"#utility.yul\":6497:6506   */\n      dup4\n        /* \"#utility.yul\":6493:6510   */\n      add\n        /* \"#utility.yul\":6486:6533   */\n      mstore\n        /* \"#utility.yul\":6550:6628   */\n      tag_285\n        /* \"#utility.yul\":6623:6627   */\n      dup2\n        /* \"#utility.yul\":6614:6620   */\n      dup9\n        /* \"#utility.yul\":6550:6628   */\n      tag_182\n      jump\t// in\n    tag_285:\n        /* \"#utility.yul\":6542:6628   */\n      swap1\n      pop\n        /* \"#utility.yul\":6638:6726   */\n      tag_286\n        /* \"#utility.yul\":6722:6724   */\n      0x20\n        /* \"#utility.yul\":6711:6720   */\n      dup4\n        /* \"#utility.yul\":6707:6725   */\n      add\n        /* \"#utility.yul\":6698:6704   */\n      dup8\n        /* \"#utility.yul\":6638:6726   */\n      tag_183\n      jump\t// in\n    tag_286:\n        /* \"#utility.yul\":6736:6808   */\n      tag_287\n        /* \"#utility.yul\":6804:6806   */\n      0x40\n        /* \"#utility.yul\":6793:6802   */\n      dup4\n        /* \"#utility.yul\":6789:6807   */\n      add\n        /* \"#utility.yul\":6780:6786   */\n      dup7\n        /* \"#utility.yul\":6736:6808   */\n      tag_176\n      jump\t// in\n    tag_287:\n        /* \"#utility.yul\":6818:6884   */\n      tag_288\n        /* \"#utility.yul\":6880:6882   */\n      0x60\n        /* \"#utility.yul\":6869:6878   */\n      dup4\n        /* \"#utility.yul\":6865:6883   */\n      add\n        /* \"#utility.yul\":6856:6862   */\n      dup6\n        /* \"#utility.yul\":6818:6884   */\n      tag_185\n      jump\t// in\n    tag_288:\n        /* \"#utility.yul\":6894:6967   */\n      tag_289\n        /* \"#utility.yul\":6962:6965   */\n      0x80\n        /* \"#utility.yul\":6951:6960   */\n      dup4\n        /* \"#utility.yul\":6947:6966   */\n      add\n        /* \"#utility.yul\":6938:6944   */\n      dup5\n        /* \"#utility.yul\":6894:6967   */\n      tag_176\n      jump\t// in\n    tag_289:\n        /* \"#utility.yul\":6199:6974   */\n      swap7\n      swap6\n      pop\n      pop\n      pop\n      pop\n      pop\n      pop\n      jump\t// out\n        /* \"#utility.yul\":6980:7153   */\n    tag_186:\n        /* \"#utility.yul\":7120:7145   */\n      0x596f7520617265206e6f7420746865206d616e61676572000000000000000000\n        /* \"#utility.yul\":7116:7117   */\n      0x00\n        /* \"#utility.yul\":7108:7114   */\n      dup3\n        /* \"#utility.yul\":7104:7118   */\n      add\n        /* \"#utility.yul\":7097:7146   */\n      mstore\n        /* \"#utility.yul\":6980:7153   */\n      pop\n      jump\t// out\n        /* \"#utility.yul\":7159:7525   */\n    tag_187:\n        /* \"#utility.yul\":7301:7304   */\n      0x00\n        /* \"#utility.yul\":7322:7389   */\n      tag_292\n        /* \"#utility.yul\":7386:7388   */\n      0x17\n        /* \"#utility.yul\":7381:7384   */\n      dup4\n        /* \"#utility.yul\":7322:7389   */\n      tag_179\n      jump\t// in\n    tag_292:\n        /* \"#utility.yul\":7315:7389   */\n      swap2\n      pop\n        /* \"#utility.yul\":7398:7491   */\n      tag_293\n        /* \"#utility.yul\":7487:7490   */\n      dup3\n        /* \"#utility.yul\":7398:7491   */\n      tag_186\n      jump\t// in\n    tag_293:\n        /* \"#utility.yul\":7516:7518   */\n      0x20\n        /* \"#utility.yul\":7511:7514   */\n      dup3\n        /* \"#utility.yul\":7507:7519   */\n      add\n        /* \"#utility.yul\":7500:7519   */\n      swap1\n      pop\n        /* \"#utility.yul\":7159:7525   */\n      swap2\n      swap1\n      pop\n      jump\t// out\n        /* \"#utility.yul\":7531:7950   */\n    tag_88:\n        /* \"#utility.yul\":7697:7701   */\n      0x00\n        /* \"#utility.yul\":7735:7737   */\n      0x20\n        /* \"#utility.yul\":7724:7733   */\n      dup3\n        /* \"#utility.yul\":7720:7738   */\n      add\n        /* \"#utility.yul\":7712:7738   */\n      swap1\n      pop\n        /* \"#utility.yul\":7784:7793   */\n      dup2\n        /* \"#utility.yul\":7778:7782   */\n      dup2\n        /* \"#utility.yul\":7774:7794   */\n      sub\n        /* \"#utility.yul\":7770:7771   */\n      0x00\n        /* \"#utility.yul\":7759:7768   */\n      dup4\n        /* \"#utility.yul\":7755:7772   */\n      add\n        /* \"#utility.yul\":7748:7795   */\n      mstore\n        /* \"#utility.yul\":7812:7943   */\n      tag_295\n        /* \"#utility.yul\":7938:7942   */\n      dup2\n        /* \"#utility.yul\":7812:7943   */\n      tag_187\n      jump\t// in\n    tag_295:\n        /* \"#utility.yul\":7804:7943   */\n      swap1\n      pop\n        /* \"#utility.yul\":7531:7950   */\n      swap2\n      swap1\n      pop\n      jump\t// out\n        /* \"#utility.yul\":7956:8136   */\n    tag_188:\n        /* \"#utility.yul\":8004:8081   */\n      0x4e487b7100000000000000000000000000000000000000000000000000000000\n        /* \"#utility.yul\":8001:8002   */\n      0x00\n        /* \"#utility.yul\":7994:8082   */\n      mstore\n        /* \"#utility.yul\":8101:8105   */\n      0x11\n        /* \"#utility.yul\":8098:8099   */\n      0x04\n        /* \"#utility.yul\":8091:8106   */\n      mstore\n        /* \"#utility.yul\":8125:8129   */\n      0x24\n        /* \"#utility.yul\":8122:8123   */\n      0x00\n        /* \"#utility.yul\":8115:8130   */\n      revert\n        /* \"#utility.yul\":8142:8375   */\n    tag_91:\n        /* \"#utility.yul\":8181:8184   */\n      0x00\n        /* \"#utility.yul\":8204:8228   */\n      tag_298\n        /* \"#utility.yul\":8222:8227   */\n      dup3\n        /* \"#utility.yul\":8204:8228   */\n      tag_170\n      jump\t// in\n    tag_298:\n        /* \"#utility.yul\":8195:8228   */\n      swap2\n      pop\n        /* \"#utility.yul\":8250:8316   */\n      0xffffffffffffffffffffffffffffffffffffffffffffffffffffffffffffffff\n        /* \"#utility.yul\":8243:8248   */\n      dup3\n        /* \"#utility.yul\":8240:8317   */\n      sub\n        /* \"#utility.yul\":8237:8340   */\n      tag_299\n      jumpi\n        /* \"#utility.yul\":8320:8338   */\n      tag_300\n      tag_188\n      jump\t// in\n    tag_300:\n        /* \"#utility.yul\":8237:8340   */\n    tag_299:\n        /* \"#utility.yul\":8367:8368   */\n      0x01\n        /* \"#utility.yul\":8360:8365   */\n      dup3\n        /* \"#utility.yul\":8356:8369   */\n      add\n        /* \"#utility.yul\":8349:8369   */\n      swap1\n      pop\n        /* \"#utility.yul\":8142:8375   */\n      swap2\n      swap1\n      pop\n      jump\t// out\n        /* \"#utility.yul\":8381:8550   */\n    tag_189:\n        /* \"#utility.yul\":8521:8542   */\n      0x446561646c696e65206861732070617373656400000000000000000000000000\n        /* \"#utility.yul\":8517:8518   */\n      0x00\n        /* \"#utility.yul\":8509:8515   */\n      dup3\n        /* \"#utility.yul\":8505:8519   */\n      add\n        /* \"#utility.yul\":8498:8543   */\n      mstore\n        /* \"#utility.yul\":8381:8550   */\n      pop\n      jump\t// out\n        /* \"#utility.yul\":8556:8922   */\n    tag_190:\n        /* \"#utility.yul\":8698:8701   */\n      0x00\n        /* \"#utility.yul\":8719:8786   */\n      tag_303\n        /* \"#utility.yul\":8783:8785   */\n      0x13\n        /* \"#utility.yul\":8778:8781   */\n      dup4\n        /* \"#utility.yul\":8719:8786   */\n      tag_179\n      jump\t// in\n    tag_303:\n        /* \"#utility.yul\":8712:8786   */\n      swap2\n      pop\n        /* \"#utility.yul\":8795:8888   */\n      tag_304\n        /* \"#utility.yul\":8884:8887   */\n      dup3\n        /* \"#utility.yul\":8795:8888   */\n      tag_189\n      jump\t// in\n    tag_304:\n        /* \"#utility.yul\":8913:8915   */\n      0x20\n        /* \"#utility.yul\":8908:8911   */\n      dup3\n        /* \"#utility.yul\":8904:8916   */\n      add\n        /* \"#utility.yul\":8897:8916   */\n      swap1\n      pop\n        /* \"#utility.yul\":8556:8922   */\n      swap2\n      swap1\n      pop\n      jump\t// out\n        /* \"#utility.yul\":8928:9347   */\n    tag_97:\n        /* \"#utility.yul\":9094:9098   */\n      0x00\n        /* \"#utility.yul\":9132:9134   */\n      0x20\n        /* \"#utility.yul\":9121:9130   */\n      dup3\n        /* \"#utility.yul\":9117:9135   */\n      add\n        /* \"#utility.yul\":9109:9135   */\n      swap1\n      pop\n        /* \"#utility.yul\":9181:9190   */\n      dup2\n        /* \"#utility.yul\":9175:9179   */\n      dup2\n        /* \"#utility.yul\":9171:9191   */\n      sub\n        /* \"#utility.yul\":9167:9168   */\n      0x00\n        /* \"#utility.yul\":9156:9165   */\n      dup4\n        /* \"#utility.yul\":9152:9169   */\n      add\n        /* \"#utility.yul\":9145:9192   */\n      mstore\n        /* \"#utility.yul\":9209:9340   */\n      tag_306\n        /* \"#utility.yul\":9335:9339   */\n      dup2\n        /* \"#utility.yul\":9209:9340   */\n      tag_190\n      jump\t// in\n    tag_306:\n        /* \"#utility.yul\":9201:9340   */\n      swap1\n      pop\n        /* \"#utility.yul\":8928:9347   */\n      swap2\n      swap1\n      pop\n      jump\t// out\n        /* \"#utility.yul\":9353:9579   */\n    tag_191:\n        /* \"#utility.yul\":9493:9527   */\n      0x4d696e696d756d20636f6e747269627574696f6e207265717569726564206973\n        /* \"#utility.yul\":9489:9490   */\n      0x00\n        /* \"#utility.yul\":9481:9487   */\n      dup3\n        /* \"#utility.yul\":9477:9491   */\n      add\n        /* \"#utility.yul\":9470:9528   */\n      mstore\n        /* \"#utility.yul\":9562:9571   */\n      0x2031302057656900000000000000000000000000000000000000000000000000\n        /* \"#utility.yul\":9557:9559   */\n      0x20\n        /* \"#utility.yul\":9549:9555   */\n      dup3\n        /* \"#utility.yul\":9545:9560   */\n      add\n        /* \"#utility.yul\":9538:9572   */\n      mstore\n        /* \"#utility.yul\":9353:9579   */\n      pop\n      jump\t// out\n        /* \"#utility.yul\":9585:9951   */\n    tag_192:\n        /* \"#utility.yul\":9727:9730   */\n      0x00\n        /* \"#utility.yul\":9748:9815   */\n      tag_309\n        /* \"#utility.yul\":9812:9814   */\n      0x27\n        /* \"#utility.yul\":9807:9810   */\n      dup4\n        /* \"#utility.yul\":9748:9815   */\n      tag_179\n      jump\t// in\n    tag_309:\n        /* \"#utility.yul\":9741:9815   */\n      swap2\n      pop\n        /* \"#utility.yul\":9824:9917   */\n      tag_310\n        /* \"#utility.yul\":9913:9916   */\n      dup3\n        /* \"#utility.yul\":9824:9917   */\n      tag_191\n      jump\t// in\n    tag_310:\n        /* \"#utility.yul\":9942:9944   */\n      0x40\n        /* \"#utility.yul\":9937:9940   */\n      dup3\n        /* \"#utility.yul\":9933:9945   */\n      add\n        /* \"#utility.yul\":9926:9945   */\n      swap1\n      pop\n        /* \"#utility.yul\":9585:9951   */\n      swap2\n      swap1\n      pop\n      jump\t// out\n        /* \"#utility.yul\":9957:10376   */\n    tag_100:\n        /* \"#utility.yul\":10123:10127   */\n      0x00\n        /* \"#utility.yul\":10161:10163   */\n      0x20\n        /* \"#utility.yul\":10150:10159   */\n      dup3\n        /* \"#utility.yul\":10146:10164   */\n      add\n        /* \"#utility.yul\":10138:10164   */\n      swap1\n      pop\n        /* \"#utility.yul\":10210:10219   */\n      dup2\n        /* \"#utility.yul\":10204:10208   */\n      dup2\n        /* \"#utility.yul\":10200:10220   */\n      sub\n        /* \"#utility.yul\":10196:10197   */\n      0x00\n        /* \"#utility.yul\":10185:10194   */\n      dup4\n        /* \"#utility.yul\":10181:10198   */\n      add\n        /* \"#utility.yul\":10174:10221   */\n      mstore\n        /* \"#utility.yul\":10238:10369   */\n      tag_312\n        /* \"#utility.yul\":10364:10368   */\n      dup2\n        /* \"#utility.yul\":10238:10369   */\n      tag_192\n      jump\t// in\n    tag_312:\n        /* \"#utility.yul\":10230:10369   */\n      swap1\n      pop\n        /* \"#utility.yul\":9957:10376   */\n      swap2\n      swap1\n      pop\n      jump\t// out\n        /* \"#utility.yul\":10382:10687   */\n    tag_104:\n        /* \"#utility.yul\":10422:10425   */\n      0x00\n        /* \"#utility.yul\":10441:10461   */\n      tag_314\n        /* \"#utility.yul\":10459:10460   */\n      dup3\n        /* \"#utility.yul\":10441:10461   */\n      tag_170\n      jump\t// in\n    tag_314:\n        /* \"#utility.yul\":10436:10461   */\n      swap2\n      pop\n        /* \"#utility.yul\":10475:10495   */\n      tag_315\n        /* \"#utility.yul\":10493:10494   */\n      dup4\n        /* \"#utility.yul\":10475:10495   */\n      tag_170\n      jump\t// in\n    tag_315:\n        /* \"#utility.yul\":10470:10495   */\n      swap3\n      pop\n        /* \"#utility.yul\":10629:10630   */\n      dup3\n        /* \"#utility.yul\":10561:10627   */\n      0xffffffffffffffffffffffffffffffffffffffffffffffffffffffffffffffff\n        /* \"#utility.yul\":10557:10631   */\n      sub\n        /* \"#utility.yul\":10554:10555   */\n      dup3\n        /* \"#utility.yul\":10551:10632   */\n      gt\n        /* \"#utility.yul\":10548:10655   */\n      iszero\n      tag_316\n      jumpi\n        /* \"#utility.yul\":10635:10653   */\n      tag_317\n      tag_188\n      jump\t// in\n    tag_317:\n        /* \"#utility.yul\":10548:10655   */\n    tag_316:\n        /* \"#utility.yul\":10679:10680   */\n      dup3\n        /* \"#utility.yul\":10676:10677   */\n      dup3\n        /* \"#utility.yul\":10672:10681   */\n      add\n        /* \"#utility.yul\":10665:10681   */\n      swap1\n      pop\n        /* \"#utility.yul\":10382:10687   */\n      swap3\n      swap2\n      pop\n      pop\n      jump\t// out\n        /* \"#utility.yul\":10693:10868   */\n    tag_193:\n        /* \"#utility.yul\":10833:10860   */\n      0x596f7520617265206e6f74206120636f6e7472696275746f7200000000000000\n        /* \"#utility.yul\":10829:10830   */\n      0x00\n        /* \"#utility.yul\":10821:10827   */\n      dup3\n        /* \"#utility.yul\":10817:10831   */\n      add\n        /* \"#utility.yul\":10810:10861   */\n      mstore\n        /* \"#utility.yul\":10693:10868   */\n      pop\n      jump\t// out\n        /* \"#utility.yul\":10874:11240   */\n    tag_194:\n        /* \"#utility.yul\":11016:11019   */\n      0x00\n        /* \"#utility.yul\":11037:11104   */\n      tag_320\n        /* \"#utility.yul\":11101:11103   */\n      0x19\n        /* \"#utility.yul\":11096:11099   */\n      dup4\n        /* \"#utility.yul\":11037:11104   */\n      tag_179\n      jump\t// in\n    tag_320:\n        /* \"#utility.yul\":11030:11104   */\n      swap2\n      pop\n        /* \"#utility.yul\":11113:11206   */\n      tag_321\n        /* \"#utility.yul\":11202:11205   */\n      dup3\n        /* \"#utility.yul\":11113:11206   */\n      tag_193\n      jump\t// in\n    tag_321:\n        /* \"#utility.yul\":11231:11233   */\n      0x20\n        /* \"#utility.yul\":11226:11229   */\n      dup3\n        /* \"#utility.yul\":11222:11234   */\n      add\n        /* \"#utility.yul\":11215:11234   */\n      swap1\n      pop\n        /* \"#utility.yul\":10874:11240   */\n      swap2\n      swap1\n      pop\n      jump\t// out\n        /* \"#utility.yul\":11246:11665   */\n    tag_109:\n        /* \"#utility.yul\":11412:11416   */\n      0x00\n        /* \"#utility.yul\":11450:11452   */\n      0x20\n        /* \"#utility.yul\":11439:11448   */\n      dup3\n        /* \"#utility.yul\":11435:11453   */\n      add\n        /* \"#utility.yul\":11427:11453   */\n      swap1\n      pop\n        /* \"#utility.yul\":11499:11508   */\n      dup2\n        /* \"#utility.yul\":11493:11497   */\n      dup2\n        /* \"#utility.yul\":11489:11509   */\n      sub\n        /* \"#utility.yul\":11485:11486   */\n      0x00\n        /* \"#utility.yul\":11474:11483   */\n      dup4\n        /* \"#utility.yul\":11470:11487   */\n      add\n        /* \"#utility.yul\":11463:11510   */\n      mstore\n        /* \"#utility.yul\":11527:11658   */\n      tag_323\n        /* \"#utility.yul\":11653:11657   */\n      dup2\n        /* \"#utility.yul\":11527:11658   */\n      tag_194\n      jump\t// in\n    tag_323:\n        /* \"#utility.yul\":11519:11658   */\n      swap1\n      pop\n        /* \"#utility.yul\":11246:11665   */\n      swap2\n      swap1\n      pop\n      jump\t// out\n        /* \"#utility.yul\":11671:11843   */\n    tag_195:\n        /* \"#utility.yul\":11811:11835   */\n      0x596f75206861766520616c726561647920766f74656400000000000000000000\n        /* \"#utility.yul\":11807:11808   */\n      0x00\n        /* \"#utility.yul\":11799:11805   */\n      dup3\n        /* \"#utility.yul\":11795:11809   */\n      add\n        /* \"#utility.yul\":11788:11836   */\n      mstore\n        /* \"#utility.yul\":11671:11843   */\n      pop\n      jump\t// out\n        /* \"#utility.yul\":11849:12215   */\n    tag_196:\n        /* \"#utility.yul\":11991:11994   */\n      0x00\n        /* \"#utility.yul\":12012:12079   */\n      tag_326\n        /* \"#utility.yul\":12076:12078   */\n      0x16\n        /* \"#utility.yul\":12071:12074   */\n      dup4\n        /* \"#utility.yul\":12012:12079   */\n      tag_179\n      jump\t// in\n    tag_326:\n        /* \"#utility.yul\":12005:12079   */\n      swap2\n      pop\n        /* \"#utility.yul\":12088:12181   */\n      tag_327\n        /* \"#utility.yul\":12177:12180   */\n      dup3\n        /* \"#utility.yul\":12088:12181   */\n      tag_195\n      jump\t// in\n    tag_327:\n        /* \"#utility.yul\":12206:12208   */\n      0x20\n        /* \"#utility.yul\":12201:12204   */\n      dup3\n        /* \"#utility.yul\":12197:12209   */\n      add\n        /* \"#utility.yul\":12190:12209   */\n      swap1\n      pop\n        /* \"#utility.yul\":11849:12215   */\n      swap2\n      swap1\n      pop\n      jump\t// out\n        /* \"#utility.yul\":12221:12640   */\n    tag_113:\n        /* \"#utility.yul\":12387:12391   */\n      0x00\n        /* \"#utility.yul\":12425:12427   */\n      0x20\n        /* \"#utility.yul\":12414:12423   */\n      dup3\n        /* \"#utility.yul\":12410:12428   */\n      add\n        /* \"#utility.yul\":12402:12428   */\n      swap1\n      pop\n        /* \"#utility.yul\":12474:12483   */\n      dup2\n        /* \"#utility.yul\":12468:12472   */\n      dup2\n        /* \"#utility.yul\":12464:12484   */\n      sub\n        /* \"#utility.yul\":12460:12461   */\n      0x00\n        /* \"#utility.yul\":12449:12458   */\n      dup4\n        /* \"#utility.yul\":12445:12462   */\n      add\n        /* \"#utility.yul\":12438:12485   */\n      mstore\n        /* \"#utility.yul\":12502:12633   */\n      tag_329\n        /* \"#utility.yul\":12628:12632   */\n      dup2\n        /* \"#utility.yul\":12502:12633   */\n      tag_196\n      jump\t// in\n    tag_329:\n        /* \"#utility.yul\":12494:12633   */\n      swap1\n      pop\n        /* \"#utility.yul\":12221:12640   */\n      swap2\n      swap1\n      pop\n      jump\t// out\n        /* \"#utility.yul\":12646:12822   */\n    tag_197:\n        /* \"#utility.yul\":12786:12814   */\n      0x54617267657420686173206e6f206265656e2072656163686564000000000000\n        /* \"#utility.yul\":12782:12783   */\n      0x00\n        /* \"#utility.yul\":12774:12780   */\n      dup3\n        /* \"#utility.yul\":12770:12784   */\n      add\n        /* \"#utility.yul\":12763:12815   */\n      mstore\n        /* \"#utility.yul\":12646:12822   */\n      pop\n      jump\t// out\n        /* \"#utility.yul\":12828:13194   */\n    tag_198:\n        /* \"#utility.yul\":12970:12973   */\n      0x00\n        /* \"#utility.yul\":12991:13058   */\n      tag_332\n        /* \"#utility.yul\":13055:13057   */\n      0x1a\n        /* \"#utility.yul\":13050:13053   */\n      dup4\n        /* \"#utility.yul\":12991:13058   */\n      tag_179\n      jump\t// in\n    tag_332:\n        /* \"#utility.yul\":12984:13058   */\n      swap2\n      pop\n        /* \"#utility.yul\":13067:13160   */\n      tag_333\n        /* \"#utility.yul\":13156:13159   */\n      dup3\n        /* \"#utility.yul\":13067:13160   */\n      tag_197\n      jump\t// in\n    tag_333:\n        /* \"#utility.yul\":13185:13187   */\n      0x20\n        /* \"#utility.yul\":13180:13183   */\n      dup3\n        /* \"#utility.yul\":13176:13188   */\n      add\n        /* \"#utility.yul\":13169:13188   */\n      swap1\n      pop\n        /* \"#utility.yul\":12828:13194   */\n      swap2\n      swap1\n      pop\n      jump\t// out\n        /* \"#utility.yul\":13200:13619   */\n    tag_121:\n        /* \"#utility.yul\":13366:13370   */\n      0x00\n        /* \"#utility.yul\":13404:13406   */\n      0x20\n        /* \"#utility.yul\":13393:13402   */\n      dup3\n        /* \"#utility.yul\":13389:13407   */\n      add\n        /* \"#utility.yul\":13381:13407   */\n      swap1\n      pop\n        /* \"#utility.yul\":13453:13462   */\n      dup2\n        /* \"#utility.yul\":13447:13451   */\n      dup2\n        /* \"#utility.yul\":13443:13463   */\n      sub\n        /* \"#utility.yul\":13439:13440   */\n      0x00\n        /* \"#utility.yul\":13428:13437   */\n      dup4\n        /* \"#utility.yul\":13424:13441   */\n      add\n        /* \"#utility.yul\":13417:13464   */\n      mstore\n        /* \"#utility.yul\":13481:13612   */\n      tag_335\n        /* \"#utility.yul\":13607:13611   */\n      dup2\n        /* \"#utility.yul\":13481:13612   */\n      tag_198\n      jump\t// in\n    tag_335:\n        /* \"#utility.yul\":13473:13612   */\n      swap1\n      pop\n        /* \"#utility.yul\":13200:13619   */\n      swap2\n      swap1\n      pop\n      jump\t// out\n        /* \"#utility.yul\":13625:13805   */\n    tag_199:\n        /* \"#utility.yul\":13765:13797   */\n      0x546865207265717565737420686173206265656e20636f6d706c657465640000\n        /* \"#utility.yul\":13761:13762   */\n      0x00\n        /* \"#utility.yul\":13753:13759   */\n      dup3\n        /* \"#utility.yul\":13749:13763   */\n      add\n        /* \"#utility.yul\":13742:13798   */\n      mstore\n        /* \"#utility.yul\":13625:13805   */\n      pop\n      jump\t// out\n        /* \"#utility.yul\":13811:14177   */\n    tag_200:\n        /* \"#utility.yul\":13953:13956   */\n      0x00\n        /* \"#utility.yul\":13974:14041   */\n      tag_338\n        /* \"#utility.yul\":14038:14040   */\n      0x1e\n        /* \"#utility.yul\":14033:14036   */\n      dup4\n        /* \"#utility.yul\":13974:14041   */\n      tag_179\n      jump\t// in\n    tag_338:\n        /* \"#utility.yul\":13967:14041   */\n      swap2\n      pop\n        /* \"#utility.yul\":14050:14143   */\n      tag_339\n        /* \"#utility.yul\":14139:14142   */\n      dup3\n        /* \"#utility.yul\":14050:14143   */\n      tag_199\n      jump\t// in\n    tag_339:\n        /* \"#utility.yul\":14168:14170   */\n      0x20\n        /* \"#utility.yul\":14163:14166   */\n      dup3\n        /* \"#utility.yul\":14159:14171   */\n      add\n        /* \"#utility.yul\":14152:14171   */\n      swap1\n      pop\n        /* \"#utility.yul\":13811:14177   */\n      swap2\n      swap1\n      pop\n      jump\t// out\n        /* \"#utility.yul\":14183:14602   */\n    tag_124:\n        /* \"#utility.yul\":14349:14353   */\n      0x00\n        /* \"#utility.yul\":14387:14389   */\n      0x20\n        /* \"#utility.yul\":14376:14385   */\n      dup3\n        /* \"#utility.yul\":14372:14390   */\n      add\n        /* \"#utility.yul\":14364:14390   */\n      swap1\n      pop\n        /* \"#utility.yul\":14436:14445   */\n      dup2\n        /* \"#utility.yul\":14430:14434   */\n      dup2\n        /* \"#utility.yul\":14426:14446   */\n      sub\n        /* \"#utility.yul\":14422:14423   */\n      0x00\n        /* \"#utility.yul\":14411:14420   */\n      dup4\n        /* \"#utility.yul\":14407:14424   */\n      add\n        /* \"#utility.yul\":14400:14447   */\n      mstore\n        /* \"#utility.yul\":14464:14595   */\n      tag_341\n        /* \"#utility.yul\":14590:14594   */\n      dup2\n        /* \"#utility.yul\":14464:14595   */\n      tag_200\n      jump\t// in\n    tag_341:\n        /* \"#utility.yul\":14456:14595   */\n      swap1\n      pop\n        /* \"#utility.yul\":14183:14602   */\n      swap2\n      swap1\n      pop\n      jump\t// out\n        /* \"#utility.yul\":14608:14788   */\n    tag_201:\n        /* \"#utility.yul\":14656:14733   */\n      0x4e487b7100000000000000000000000000000000000000000000000000000000\n        /* \"#utility.yul\":14653:14654   */\n      0x00\n        /* \"#utility.yul\":14646:14734   */\n      mstore\n        /* \"#utility.yul\":14753:14757   */\n      0x12\n        /* \"#utility.yul\":14750:14751   */\n      0x04\n        /* \"#utility.yul\":14743:14758   */\n      mstore\n        /* \"#utility.yul\":14777:14781   */\n      0x24\n        /* \"#utility.yul\":14774:14775   */\n      0x00\n        /* \"#utility.yul\":14767:14782   */\n      revert\n        /* \"#utility.yul\":14794:14979   */\n    tag_126:\n        /* \"#utility.yul\":14834:14835   */\n      0x00\n        /* \"#utility.yul\":14851:14871   */\n      tag_344\n        /* \"#utility.yul\":14869:14870   */\n      dup3\n        /* \"#utility.yul\":14851:14871   */\n      tag_170\n      jump\t// in\n    tag_344:\n        /* \"#utility.yul\":14846:14871   */\n      swap2\n      pop\n        /* \"#utility.yul\":14885:14905   */\n      tag_345\n        /* \"#utility.yul\":14903:14904   */\n      dup4\n        /* \"#utility.yul\":14885:14905   */\n      tag_170\n      jump\t// in\n    tag_345:\n        /* \"#utility.yul\":14880:14905   */\n      swap3\n      pop\n        /* \"#utility.yul\":14924:14925   */\n      dup3\n        /* \"#utility.yul\":14914:14949   */\n      tag_346\n      jumpi\n        /* \"#utility.yul\":14929:14947   */\n      tag_347\n      tag_201\n      jump\t// in\n    tag_347:\n        /* \"#utility.yul\":14914:14949   */\n    tag_346:\n        /* \"#utility.yul\":14971:14972   */\n      dup3\n        /* \"#utility.yul\":14968:14969   */\n      dup3\n        /* \"#utility.yul\":14964:14973   */\n      div\n        /* \"#utility.yul\":14959:14973   */\n      swap1\n      pop\n        /* \"#utility.yul\":14794:14979   */\n      swap3\n      swap2\n      pop\n      pop\n      jump\t// out\n        /* \"#utility.yul\":14985:15209   */\n    tag_202:\n        /* \"#utility.yul\":15125:15159   */\n      0x4d616a6f7269747920646f6573206e6f7420737570706f727420746865207265\n        /* \"#utility.yul\":15121:15122   */\n      0x00\n        /* \"#utility.yul\":15113:15119   */\n      dup3\n        /* \"#utility.yul\":15109:15123   */\n      add\n        /* \"#utility.yul\":15102:15160   */\n      mstore\n        /* \"#utility.yul\":15194:15201   */\n      0x7175657374000000000000000000000000000000000000000000000000000000\n        /* \"#utility.yul\":15189:15191   */\n      0x20\n        /* \"#utility.yul\":15181:15187   */\n      dup3\n        /* \"#utility.yul\":15177:15192   */\n      add\n        /* \"#utility.yul\":15170:15202   */\n      mstore\n        /* \"#utility.yul\":14985:15209   */\n      pop\n      jump\t// out\n        /* \"#utility.yul\":15215:15581   */\n    tag_203:\n        /* \"#utility.yul\":15357:15360   */\n      0x00\n        /* \"#utility.yul\":15378:15445   */\n      tag_350\n        /* \"#utility.yul\":15442:15444   */\n      0x25\n        /* \"#utility.yul\":15437:15440   */\n      dup4\n        /* \"#utility.yul\":15378:15445   */\n      tag_179\n      jump\t// in\n    tag_350:\n        /* \"#utility.yul\":15371:15445   */\n      swap2\n      pop\n        /* \"#utility.yul\":15454:15547   */\n      tag_351\n        /* \"#utility.yul\":15543:15546   */\n      dup3\n        /* \"#utility.yul\":15454:15547   */\n      tag_202\n      jump\t// in\n    tag_351:\n        /* \"#utility.yul\":15572:15574   */\n      0x40\n        /* \"#utility.yul\":15567:15570   */\n      dup3\n        /* \"#utility.yul\":15563:15575   */\n      add\n        /* \"#utility.yul\":15556:15575   */\n      swap1\n      pop\n        /* \"#utility.yul\":15215:15581   */\n      swap2\n      swap1\n      pop\n      jump\t// out\n        /* \"#utility.yul\":15587:16006   */\n    tag_129:\n        /* \"#utility.yul\":15753:15757   */\n      0x00\n        /* \"#utility.yul\":15791:15793   */\n      0x20\n        /* \"#utility.yul\":15780:15789   */\n      dup3\n        /* \"#utility.yul\":15776:15794   */\n      add\n        /* \"#utility.yul\":15768:15794   */\n      swap1\n      pop\n        /* \"#utility.yul\":15840:15849   */\n      dup2\n        /* \"#utility.yul\":15834:15838   */\n      dup2\n        /* \"#utility.yul\":15830:15850   */\n      sub\n        /* \"#utility.yul\":15826:15827   */\n      0x00\n        /* \"#utility.yul\":15815:15824   */\n      dup4\n        /* \"#utility.yul\":15811:15828   */\n      add\n        /* \"#utility.yul\":15804:15851   */\n      mstore\n        /* \"#utility.yul\":15868:15999   */\n      tag_353\n        /* \"#utility.yul\":15994:15998   */\n      dup2\n        /* \"#utility.yul\":15868:15999   */\n      tag_203\n      jump\t// in\n    tag_353:\n        /* \"#utility.yul\":15860:15999   */\n      swap1\n      pop\n        /* \"#utility.yul\":15587:16006   */\n      swap2\n      swap1\n      pop\n      jump\t// out\n        /* \"#utility.yul\":16012:16234   */\n    tag_204:\n        /* \"#utility.yul\":16152:16186   */\n      0x596f7520617265206e6f7420656c696769626c6520666f7220726566756e6420\n        /* \"#utility.yul\":16148:16149   */\n      0x00\n        /* \"#utility.yul\":16140:16146   */\n      dup3\n        /* \"#utility.yul\":16136:16150   */\n      add\n        /* \"#utility.yul\":16129:16187   */\n      mstore\n        /* \"#utility.yul\":16221:16226   */\n      0x6e6f770000000000000000000000000000000000000000000000000000000000\n        /* \"#utility.yul\":16216:16218   */\n      0x20\n        /* \"#utility.yul\":16208:16214   */\n      dup3\n        /* \"#utility.yul\":16204:16219   */\n      add\n        /* \"#utility.yul\":16197:16227   */\n      mstore\n        /* \"#utility.yul\":16012:16234   */\n      pop\n      jump\t// out\n        /* \"#utility.yul\":16240:16606   */\n    tag_205:\n        /* \"#utility.yul\":16382:16385   */\n      0x00\n        /* \"#utility.yul\":16403:16470   */\n      tag_356\n        /* \"#utility.yul\":16467:16469   */\n      0x23\n        /* \"#utility.yul\":16462:16465   */\n      dup4\n        /* \"#utility.yul\":16403:16470   */\n      tag_179\n      jump\t// in\n    tag_356:\n        /* \"#utility.yul\":16396:16470   */\n      swap2\n      pop\n        /* \"#utility.yul\":16479:16572   */\n      tag_357\n        /* \"#utility.yul\":16568:16571   */\n      dup3\n        /* \"#utility.yul\":16479:16572   */\n      tag_204\n      jump\t// in\n    tag_357:\n        /* \"#utility.yul\":16597:16599   */\n      0x40\n        /* \"#utility.yul\":16592:16595   */\n      dup3\n        /* \"#utility.yul\":16588:16600   */\n      add\n        /* \"#utility.yul\":16581:16600   */\n      swap1\n      pop\n        /* \"#utility.yul\":16240:16606   */\n      swap2\n      swap1\n      pop\n      jump\t// out\n        /* \"#utility.yul\":16612:17031   */\n    tag_139:\n        /* \"#utility.yul\":16778:16782   */\n      0x00\n        /* \"#utility.yul\":16816:16818   */\n      0x20\n        /* \"#utility.yul\":16805:16814   */\n      dup3\n        /* \"#utility.yul\":16801:16819   */\n      add\n        /* \"#utility.yul\":16793:16819   */\n      swap1\n      pop\n        /* \"#utility.yul\":16865:16874   */\n      dup2\n        /* \"#utility.yul\":16859:16863   */\n      dup2\n        /* \"#utility.yul\":16855:16875   */\n      sub\n        /* \"#utility.yul\":16851:16852   */\n      0x00\n        /* \"#utility.yul\":16840:16849   */\n      dup4\n        /* \"#utility.yul\":16836:16853   */\n      add\n        /* \"#utility.yul\":16829:16876   */\n      mstore\n        /* \"#utility.yul\":16893:17024   */\n      tag_359\n        /* \"#utility.yul\":17019:17023   */\n      dup2\n        /* \"#utility.yul\":16893:17024   */\n      tag_205\n      jump\t// in\n    tag_359:\n        /* \"#utility.yul\":16885:17024   */\n      swap1\n      pop\n        /* \"#utility.yul\":16612:17031   */\n      swap2\n      swap1\n      pop\n      jump\t// out\n        /* \"#utility.yul\":17037:17217   */\n    tag_206:\n        /* \"#utility.yul\":17085:17162   */\n      0x4e487b7100000000000000000000000000000000000000000000000000000000\n        /* \"#utility.yul\":17082:17083   */\n      0x00\n        /* \"#utility.yul\":17075:17163   */\n      mstore\n        /* \"#utility.yul\":17182:17186   */\n      0x22\n        /* \"#utility.yul\":17179:17180   */\n      0x04\n        /* \"#utility.yul\":17172:17187   */\n      mstore\n        /* \"#utility.yul\":17206:17210   */\n      0x24\n        /* \"#utility.yul\":17203:17204   */\n      0x00\n        /* \"#utility.yul\":17196:17211   */\n      revert\n        /* \"#utility.yul\":17223:17543   */\n    tag_143:\n        /* \"#utility.yul\":17267:17273   */\n      0x00\n        /* \"#utility.yul\":17304:17305   */\n      0x02\n        /* \"#utility.yul\":17298:17302   */\n      dup3\n        /* \"#utility.yul\":17294:17306   */\n      div\n        /* \"#utility.yul\":17284:17306   */\n      swap1\n      pop\n        /* \"#utility.yul\":17351:17352   */\n      0x01\n        /* \"#utility.yul\":17345:17349   */\n      dup3\n        /* \"#utility.yul\":17341:17353   */\n      and\n        /* \"#utility.yul\":17372:17390   */\n      dup1\n        /* \"#utility.yul\":17362:17443   */\n      tag_362\n      jumpi\n        /* \"#utility.yul\":17428:17432   */\n      0x7f\n        /* \"#utility.yul\":17420:17426   */\n      dup3\n        /* \"#utility.yul\":17416:17433   */\n      and\n        /* \"#utility.yul\":17406:17433   */\n      swap2\n      pop\n        /* \"#utility.yul\":17362:17443   */\n    tag_362:\n        /* \"#utility.yul\":17490:17492   */\n      0x20\n        /* \"#utility.yul\":17482:17488   */\n      dup3\n        /* \"#utility.yul\":17479:17493   */\n      lt\n        /* \"#utility.yul\":17459:17477   */\n      dup2\n        /* \"#utility.yul\":17456:17494   */\n      sub\n        /* \"#utility.yul\":17453:17537   */\n      tag_363\n      jumpi\n        /* \"#utility.yul\":17509:17527   */\n      tag_364\n      tag_206\n      jump\t// in\n    tag_364:\n        /* \"#utility.yul\":17453:17537   */\n    tag_363:\n        /* \"#utility.yul\":17274:17543   */\n      pop\n        /* \"#utility.yul\":17223:17543   */\n      swap2\n      swap1\n      pop\n      jump\t// out\n\n    auxdata: 0xa264697066735822122048602d7a5e57442f6152c28e6e043b11e505edbca15431149b149a05b60bf56d64736f6c634300080e0033\n}\n",
				"bytecode": {
					"linkReferences": {},
					"object": "60806040523480156200001157600080fd5b50604051620018b6380380620018b68339818101604052810190620000379190620000e3565b8160068190555080426200004c919062000159565b600581905550600a60048190555033600360006101000a81548173ffffffffffffffffffffffffffffffffffffffff021916908373ffffffffffffffffffffffffffffffffffffffff1602179055505050620001b6565b600080fd5b6000819050919050565b620000bd81620000a8565b8114620000c957600080fd5b50565b600081519050620000dd81620000b2565b92915050565b60008060408385031215620000fd57620000fc620000a3565b5b60006200010d85828601620000cc565b92505060206200012085828601620000cc565b9150509250929050565b7f4e487b7100000000000000000000000000000000000000000000000000000000600052601160045260246000fd5b60006200016682620000a8565b91506200017383620000a8565b9250827fffffffffffffffffffffffffffffffffffffffffffffffffffffffffffffffff03821115620001ab57620001aa6200012a565b5b828201905092915050565b6116f080620001c66000396000f3fe6080604052600436106100e85760003560e01c80635114cb521161008a578063c1f11b4c11610059578063c1f11b4c146102b3578063c59ee1dc146102de578063c71daccb14610309578063d4b8399214610334576100e8565b80635114cb5214610207578063590e1ae31461023057806381d12c5814610247578063937e09b114610288576100e8565b80632f81a635116100c65780632f81a6351461017e578063481c6a75146101885780634cb6f4a5146101b35780634e260f6f146101dc576100e8565b80631b16bb5c146100ed5780631f6d49421461011657806329dcb0cf14610153575b600080fd5b3480156100f957600080fd5b50610114600480360381019061010f9190610e72565b61035f565b005b34801561012257600080fd5b5061013d60048036038101906101389190610f24565b6104ad565b60405161014a9190610f60565b60405180910390f35b34801561015f57600080fd5b506101686104c5565b6040516101759190610f60565b60405180910390f35b6101866104cb565b005b34801561019457600080fd5b5061019d610625565b6040516101aa9190610f8a565b60405180910390f35b3480156101bf57600080fd5b506101da60048036038101906101d59190610fa5565b61064b565b005b3480156101e857600080fd5b506101f16107f0565b6040516101fe9190610f60565b60405180910390f35b34801561021357600080fd5b5061022e60048036038101906102299190610fa5565b6107f6565b005b34801561023c57600080fd5b50610245610a1f565b005b34801561025357600080fd5b5061026e60048036038101906102699190610fa5565b610bc1565b60405161027f959493929190611095565b60405180910390f35b34801561029457600080fd5b5061029d610cac565b6040516102aa9190610f60565b60405180910390f35b3480156102bf57600080fd5b506102c8610cb2565b6040516102d59190610f60565b60405180910390f35b3480156102ea57600080fd5b506102f3610cb8565b6040516103009190610f60565b60405180910390f35b34801561031557600080fd5b5061031e610cbe565b60405161032b9190610f60565b60405180910390f35b34801561034057600080fd5b50610349610cc6565b6040516103569190610f60565b60405180910390f35b600360009054906101000a900473ffffffffffffffffffffffffffffffffffffffff1673ffffffffffffffffffffffffffffffffffffffff163373ffffffffffffffffffffffffffffffffffffffff16146103ef576040517f08c379a00000000000000000000000000000000000000000000000000000000081526004016103e69061113b565b60405180910390fd5b6000806000600154815260200190815260200160002090506001600081548092919061041a9061118a565b91905055508484826000019190610432929190610ccc565b50828160010160006101000a81548173ffffffffffffffffffffffffffffffffffffffff021916908373ffffffffffffffffffffffffffffffffffffffff16021790555081816002018190555060008160030160006101000a81548160ff021916908315150217905550600081600401819055505050505050565b60026020528060005260406000206000915090505481565b60055481565b600554421061050f576040517f08c379a00000000000000000000000000000000000000000000000000000000081526004016105069061121e565b60405180910390fd5b600454341015610554576040517f08c379a000000000000000000000000000000000000000000000000000000000815260040161054b906112b0565b60405180910390fd5b6000600260003373ffffffffffffffffffffffffffffffffffffffff1673ffffffffffffffffffffffffffffffffffffffff16815260200190815260200160002054036105b457600860008154809291906105ae9061118a565b91905055505b34600260003373ffffffffffffffffffffffffffffffffffffffff1673ffffffffffffffffffffffffffffffffffffffff168152602001908152602001600020600082825461060391906112d0565b92505081905550346007600082825461061c91906112d0565b92505081905550565b600360009054906101000a900473ffffffffffffffffffffffffffffffffffffffff1681565b6000600260003373ffffffffffffffffffffffffffffffffffffffff1673ffffffffffffffffffffffffffffffffffffffff16815260200190815260200160002054116106cd576040517f08c379a00000000000000000000000000000000000000000000000000000000081526004016106c490611372565b60405180910390fd5b60008060008381526020019081526020016000209050600015158160050160003373ffffffffffffffffffffffffffffffffffffffff1673ffffffffffffffffffffffffffffffffffffffff16815260200190815260200160002060009054906101000a900460ff16151514610778576040517f08c379a000000000000000000000000000000000000000000000000000000000815260040161076f906113de565b60405180910390fd5b60018160050160003373ffffffffffffffffffffffffffffffffffffffff1673ffffffffffffffffffffffffffffffffffffffff16815260200190815260200160002060006101000a81548160ff0219169083151502179055508060040160008154809291906107e79061118a565b91905055505050565b60085481565b600360009054906101000a900473ffffffffffffffffffffffffffffffffffffffff1673ffffffffffffffffffffffffffffffffffffffff163373ffffffffffffffffffffffffffffffffffffffff1614610886576040517f08c379a000000000000000000000000000000000000000000000000000000000815260040161087d9061113b565b60405180910390fd5b60065460075410156108cd576040517f08c379a00000000000000000000000000000000000000000000000000000000081526004016108c49061144a565b60405180910390fd5b60008060008381526020019081526020016000209050600015158160030160009054906101000a900460ff1615151461093b576040517f08c379a0000000000000000000000000000000000000000000000000000000008152600401610932906114b6565b60405180910390fd5b600260085461094a9190611505565b81600401541161098f576040517f08c379a0000000000000000000000000000000000000000000000000000000008152600401610986906115a8565b60405180910390fd5b8060010160009054906101000a900473ffffffffffffffffffffffffffffffffffffffff1673ffffffffffffffffffffffffffffffffffffffff166108fc82600201549081150290604051600060405180830381858888f193505050501580156109fd573d6000803e3d6000fd5b5060018160030160006101000a81548160ff0219169083151502179055505050565b6000600260003373ffffffffffffffffffffffffffffffffffffffff1673ffffffffffffffffffffffffffffffffffffffff1681526020019081526020016000205411610aa1576040517f08c379a0000000000000000000000000000000000000000000000000000000008152600401610a9890611372565b60405180910390fd5b60055442118015610ab55750600654600754105b610af4576040517f08c379a0000000000000000000000000000000000000000000000000000000008152600401610aeb9061163a565b60405180910390fd5b3373ffffffffffffffffffffffffffffffffffffffff166108fc600260003373ffffffffffffffffffffffffffffffffffffffff1673ffffffffffffffffffffffffffffffffffffffff168152602001908152602001600020549081150290604051600060405180830381858888f19350505050158015610b79573d6000803e3d6000fd5b506000600260003373ffffffffffffffffffffffffffffffffffffffff1673ffffffffffffffffffffffffffffffffffffffff16815260200190815260200160002081905550565b6000602052806000526040600020600091509050806000018054610be490611689565b80601f0160208091040260200160405190810160405280929190818152602001828054610c1090611689565b8015610c5d5780601f10610c3257610100808354040283529160200191610c5d565b820191906000526020600020905b815481529060010190602001808311610c4057829003601f168201915b5050505050908060010160009054906101000a900473ffffffffffffffffffffffffffffffffffffffff16908060020154908060030160009054906101000a900460ff16908060040154905085565b60045481565b60015481565b60075481565b600047905090565b60065481565b828054610cd890611689565b90600052602060002090601f016020900481019282610cfa5760008555610d41565b82601f10610d1357803560ff1916838001178555610d41565b82800160010185558215610d41579182015b82811115610d40578235825591602001919060010190610d25565b5b509050610d4e9190610d52565b5090565b5b80821115610d6b576000816000905550600101610d53565b5090565b600080fd5b600080fd5b600080fd5b600080fd5b600080fd5b60008083601f840112610d9e57610d9d610d79565b5b8235905067ffffffffffffffff811115610dbb57610dba610d7e565b5b602083019150836001820283011115610dd757610dd6610d83565b5b9250929050565b600073ffffffffffffffffffffffffffffffffffffffff82169050919050565b6000610e0982610dde565b9050919050565b610e1981610dfe565b8114610e2457600080fd5b50565b600081359050610e3681610e10565b92915050565b6000819050919050565b610e4f81610e3c565b8114610e5a57600080fd5b50565b600081359050610e6c81610e46565b92915050565b60008060008060608587031215610e8c57610e8b610d6f565b5b600085013567ffffffffffffffff811115610eaa57610ea9610d74565b5b610eb687828801610d88565b94509450506020610ec987828801610e27565b9250506040610eda87828801610e5d565b91505092959194509250565b6000610ef182610dde565b9050919050565b610f0181610ee6565b8114610f0c57600080fd5b50565b600081359050610f1e81610ef8565b92915050565b600060208284031215610f3a57610f39610d6f565b5b6000610f4884828501610f0f565b91505092915050565b610f5a81610e3c565b82525050565b6000602082019050610f756000830184610f51565b92915050565b610f8481610ee6565b82525050565b6000602082019050610f9f6000830184610f7b565b92915050565b600060208284031215610fbb57610fba610d6f565b5b6000610fc984828501610e5d565b91505092915050565b600081519050919050565b600082825260208201905092915050565b60005b8381101561100c578082015181840152602081019050610ff1565b8381111561101b576000848401525b50505050565b6000601f19601f8301169050919050565b600061103d82610fd2565b6110478185610fdd565b9350611057818560208601610fee565b61106081611021565b840191505092915050565b61107481610dfe565b82525050565b60008115159050919050565b61108f8161107a565b82525050565b600060a08201905081810360008301526110af8188611032565b90506110be602083018761106b565b6110cb6040830186610f51565b6110d86060830185611086565b6110e56080830184610f51565b9695505050505050565b7f596f7520617265206e6f7420746865206d616e61676572000000000000000000600082015250565b6000611125601783610fdd565b9150611130826110ef565b602082019050919050565b6000602082019050818103600083015261115481611118565b9050919050565b7f4e487b7100000000000000000000000000000000000000000000000000000000600052601160045260246000fd5b600061119582610e3c565b91507fffffffffffffffffffffffffffffffffffffffffffffffffffffffffffffffff82036111c7576111c661115b565b5b600182019050919050565b7f446561646c696e65206861732070617373656400000000000000000000000000600082015250565b6000611208601383610fdd565b9150611213826111d2565b602082019050919050565b60006020820190508181036000830152611237816111fb565b9050919050565b7f4d696e696d756d20636f6e747269627574696f6e20726571756972656420697360008201527f2031302057656900000000000000000000000000000000000000000000000000602082015250565b600061129a602783610fdd565b91506112a58261123e565b604082019050919050565b600060208201905081810360008301526112c98161128d565b9050919050565b60006112db82610e3c565b91506112e683610e3c565b9250827fffffffffffffffffffffffffffffffffffffffffffffffffffffffffffffffff0382111561131b5761131a61115b565b5b828201905092915050565b7f596f7520617265206e6f74206120636f6e7472696275746f7200000000000000600082015250565b600061135c601983610fdd565b915061136782611326565b602082019050919050565b6000602082019050818103600083015261138b8161134f565b9050919050565b7f596f75206861766520616c726561647920766f74656400000000000000000000600082015250565b60006113c8601683610fdd565b91506113d382611392565b602082019050919050565b600060208201905081810360008301526113f7816113bb565b9050919050565b7f54617267657420686173206e6f206265656e2072656163686564000000000000600082015250565b6000611434601a83610fdd565b915061143f826113fe565b602082019050919050565b6000602082019050818103600083015261146381611427565b9050919050565b7f546865207265717565737420686173206265656e20636f6d706c657465640000600082015250565b60006114a0601e83610fdd565b91506114ab8261146a565b602082019050919050565b600060208201905081810360008301526114cf81611493565b9050919050565b7f4e487b7100000000000000000000000000000000000000000000000000000000600052601260045260246000fd5b600061151082610e3c565b915061151b83610e3c565b92508261152b5761152a6114d6565b5b828204905092915050565b7f4d616a6f7269747920646f6573206e6f7420737570706f72742074686520726560008201527f7175657374000000000000000000000000000000000000000000000000000000602082015250565b6000611592602583610fdd565b915061159d82611536565b604082019050919050565b600060208201905081810360008301526115c181611585565b9050919050565b7f596f7520617265206e6f7420656c696769626c6520666f7220726566756e642060008201527f6e6f770000000000000000000000000000000000000000000000000000000000602082015250565b6000611624602383610fdd565b915061162f826115c8565b604082019050919050565b6000602082019050818103600083015261165381611617565b9050919050565b7f4e487b7100000000000000000000000000000000000000000000000000000000600052602260045260246000fd5b600060028204905060018216806116a157607f821691505b6020821081036116b4576116b361165a565b5b5091905056fea264697066735822122048602d7a5e57442f6152c28e6e043b11e505edbca15431149b149a05b60bf56d64736f6c634300080e0033",
					"opcodes": "PUSH1 0x80 PUSH1 0x40 MSTORE CALLVALUE DUP1 ISZERO PUSH3 0x11 JUMPI PUSH1 0x0 DUP1 REVERT JUMPDEST POP PUSH1 0x40 MLOAD PUSH3 0x18B6 CODESIZE SUB DUP1 PUSH3 0x18B6 DUP4 CODECOPY DUP2 DUP2 ADD PUSH1 0x40 MSTORE DUP2 ADD SWAP1 PUSH3 0x37 SWAP2 SWAP1 PUSH3 0xE3 JUMP JUMPDEST DUP2 PUSH1 0x6 DUP2 SWAP1 SSTORE POP DUP1 TIMESTAMP PUSH3 0x4C SWAP2 SWAP1 PUSH3 0x159 JUMP JUMPDEST PUSH1 0x5 DUP2 SWAP1 SSTORE POP PUSH1 0xA PUSH1 0x4 DUP2 SWAP1 SSTORE POP CALLER PUSH1 0x3 PUSH1 0x0 PUSH2 0x100 EXP DUP2 SLOAD DUP2 PUSH20 0xFFFFFFFFFFFFFFFFFFFFFFFFFFFFFFFFFFFFFFFF MUL NOT AND SWAP1 DUP4 PUSH20 0xFFFFFFFFFFFFFFFFFFFFFFFFFFFFFFFFFFFFFFFF AND MUL OR SWAP1 SSTORE POP POP POP PUSH3 0x1B6 JUMP JUMPDEST PUSH1 0x0 DUP1 REVERT JUMPDEST PUSH1 0x0 DUP2 SWAP1 POP SWAP2 SWAP1 POP JUMP JUMPDEST PUSH3 0xBD DUP2 PUSH3 0xA8 JUMP JUMPDEST DUP2 EQ PUSH3 0xC9 JUMPI PUSH1 0x0 DUP1 REVERT JUMPDEST POP JUMP JUMPDEST PUSH1 0x0 DUP2 MLOAD SWAP1 POP PUSH3 0xDD DUP2 PUSH3 0xB2 JUMP JUMPDEST SWAP3 SWAP2 POP POP JUMP JUMPDEST PUSH1 0x0 DUP1 PUSH1 0x40 DUP4 DUP6 SUB SLT ISZERO PUSH3 0xFD JUMPI PUSH3 0xFC PUSH3 0xA3 JUMP JUMPDEST JUMPDEST PUSH1 0x0 PUSH3 0x10D DUP6 DUP3 DUP7 ADD PUSH3 0xCC JUMP JUMPDEST SWAP3 POP POP PUSH1 0x20 PUSH3 0x120 DUP6 DUP3 DUP7 ADD PUSH3 0xCC JUMP JUMPDEST SWAP2 POP POP SWAP3 POP SWAP3 SWAP1 POP JUMP JUMPDEST PUSH32 0x4E487B7100000000000000000000000000000000000000000000000000000000 PUSH1 0x0 MSTORE PUSH1 0x11 PUSH1 0x4 MSTORE PUSH1 0x24 PUSH1 0x0 REVERT JUMPDEST PUSH1 0x0 PUSH3 0x166 DUP3 PUSH3 0xA8 JUMP JUMPDEST SWAP2 POP PUSH3 0x173 DUP4 PUSH3 0xA8 JUMP JUMPDEST SWAP3 POP DUP3 PUSH32 0xFFFFFFFFFFFFFFFFFFFFFFFFFFFFFFFFFFFFFFFFFFFFFFFFFFFFFFFFFFFFFFFF SUB DUP3 GT ISZERO PUSH3 0x1AB JUMPI PUSH3 0x1AA PUSH3 0x12A JUMP JUMPDEST JUMPDEST DUP3 DUP3 ADD SWAP1 POP SWAP3 SWAP2 POP POP JUMP JUMPDEST PUSH2 0x16F0 DUP1 PUSH3 0x1C6 PUSH1 0x0 CODECOPY PUSH1 0x0 RETURN INVALID PUSH1 0x80 PUSH1 0x40 MSTORE PUSH1 0x4 CALLDATASIZE LT PUSH2 0xE8 JUMPI PUSH1 0x0 CALLDATALOAD PUSH1 0xE0 SHR DUP1 PUSH4 0x5114CB52 GT PUSH2 0x8A JUMPI DUP1 PUSH4 0xC1F11B4C GT PUSH2 0x59 JUMPI DUP1 PUSH4 0xC1F11B4C EQ PUSH2 0x2B3 JUMPI DUP1 PUSH4 0xC59EE1DC EQ PUSH2 0x2DE JUMPI DUP1 PUSH4 0xC71DACCB EQ PUSH2 0x309 JUMPI DUP1 PUSH4 0xD4B83992 EQ PUSH2 0x334 JUMPI PUSH2 0xE8 JUMP JUMPDEST DUP1 PUSH4 0x5114CB52 EQ PUSH2 0x207 JUMPI DUP1 PUSH4 0x590E1AE3 EQ PUSH2 0x230 JUMPI DUP1 PUSH4 0x81D12C58 EQ PUSH2 0x247 JUMPI DUP1 PUSH4 0x937E09B1 EQ PUSH2 0x288 JUMPI PUSH2 0xE8 JUMP JUMPDEST DUP1 PUSH4 0x2F81A635 GT PUSH2 0xC6 JUMPI DUP1 PUSH4 0x2F81A635 EQ PUSH2 0x17E JUMPI DUP1 PUSH4 0x481C6A75 EQ PUSH2 0x188 JUMPI DUP1 PUSH4 0x4CB6F4A5 EQ PUSH2 0x1B3 JUMPI DUP1 PUSH4 0x4E260F6F EQ PUSH2 0x1DC JUMPI PUSH2 0xE8 JUMP JUMPDEST DUP1 PUSH4 0x1B16BB5C EQ PUSH2 0xED JUMPI DUP1 PUSH4 0x1F6D4942 EQ PUSH2 0x116 JUMPI DUP1 PUSH4 0x29DCB0CF EQ PUSH2 0x153 JUMPI JUMPDEST PUSH1 0x0 DUP1 REVERT JUMPDEST CALLVALUE DUP1 ISZERO PUSH2 0xF9 JUMPI PUSH1 0x0 DUP1 REVERT JUMPDEST POP PUSH2 0x114 PUSH1 0x4 DUP1 CALLDATASIZE SUB DUP2 ADD SWAP1 PUSH2 0x10F SWAP2 SWAP1 PUSH2 0xE72 JUMP JUMPDEST PUSH2 0x35F JUMP JUMPDEST STOP JUMPDEST CALLVALUE DUP1 ISZERO PUSH2 0x122 JUMPI PUSH1 0x0 DUP1 REVERT JUMPDEST POP PUSH2 0x13D PUSH1 0x4 DUP1 CALLDATASIZE SUB DUP2 ADD SWAP1 PUSH2 0x138 SWAP2 SWAP1 PUSH2 0xF24 JUMP JUMPDEST PUSH2 0x4AD JUMP JUMPDEST PUSH1 0x40 MLOAD PUSH2 0x14A SWAP2 SWAP1 PUSH2 0xF60 JUMP JUMPDEST PUSH1 0x40 MLOAD DUP1 SWAP2 SUB SWAP1 RETURN JUMPDEST CALLVALUE DUP1 ISZERO PUSH2 0x15F JUMPI PUSH1 0x0 DUP1 REVERT JUMPDEST POP PUSH2 0x168 PUSH2 0x4C5 JUMP JUMPDEST PUSH1 0x40 MLOAD PUSH2 0x175 SWAP2 SWAP1 PUSH2 0xF60 JUMP JUMPDEST PUSH1 0x40 MLOAD DUP1 SWAP2 SUB SWAP1 RETURN JUMPDEST PUSH2 0x186 PUSH2 0x4CB JUMP JUMPDEST STOP JUMPDEST CALLVALUE DUP1 ISZERO PUSH2 0x194 JUMPI PUSH1 0x0 DUP1 REVERT JUMPDEST POP PUSH2 0x19D PUSH2 0x625 JUMP JUMPDEST PUSH1 0x40 MLOAD PUSH2 0x1AA SWAP2 SWAP1 PUSH2 0xF8A JUMP JUMPDEST PUSH1 0x40 MLOAD DUP1 SWAP2 SUB SWAP1 RETURN JUMPDEST CALLVALUE DUP1 ISZERO PUSH2 0x1BF JUMPI PUSH1 0x0 DUP1 REVERT JUMPDEST POP PUSH2 0x1DA PUSH1 0x4 DUP1 CALLDATASIZE SUB DUP2 ADD SWAP1 PUSH2 0x1D5 SWAP2 SWAP1 PUSH2 0xFA5 JUMP JUMPDEST PUSH2 0x64B JUMP JUMPDEST STOP JUMPDEST CALLVALUE DUP1 ISZERO PUSH2 0x1E8 JUMPI PUSH1 0x0 DUP1 REVERT JUMPDEST POP PUSH2 0x1F1 PUSH2 0x7F0 JUMP JUMPDEST PUSH1 0x40 MLOAD PUSH2 0x1FE SWAP2 SWAP1 PUSH2 0xF60 JUMP JUMPDEST PUSH1 0x40 MLOAD DUP1 SWAP2 SUB SWAP1 RETURN JUMPDEST CALLVALUE DUP1 ISZERO PUSH2 0x213 JUMPI PUSH1 0x0 DUP1 REVERT JUMPDEST POP PUSH2 0x22E PUSH1 0x4 DUP1 CALLDATASIZE SUB DUP2 ADD SWAP1 PUSH2 0x229 SWAP2 SWAP1 PUSH2 0xFA5 JUMP JUMPDEST PUSH2 0x7F6 JUMP JUMPDEST STOP JUMPDEST CALLVALUE DUP1 ISZERO PUSH2 0x23C JUMPI PUSH1 0x0 DUP1 REVERT JUMPDEST POP PUSH2 0x245 PUSH2 0xA1F JUMP JUMPDEST STOP JUMPDEST CALLVALUE DUP1 ISZERO PUSH2 0x253 JUMPI PUSH1 0x0 DUP1 REVERT JUMPDEST POP PUSH2 0x26E PUSH1 0x4 DUP1 CALLDATASIZE SUB DUP2 ADD SWAP1 PUSH2 0x269 SWAP2 SWAP1 PUSH2 0xFA5 JUMP JUMPDEST PUSH2 0xBC1 JUMP JUMPDEST PUSH1 0x40 MLOAD PUSH2 0x27F SWAP6 SWAP5 SWAP4 SWAP3 SWAP2 SWAP1 PUSH2 0x1095 JUMP JUMPDEST PUSH1 0x40 MLOAD DUP1 SWAP2 SUB SWAP1 RETURN JUMPDEST CALLVALUE DUP1 ISZERO PUSH2 0x294 JUMPI PUSH1 0x0 DUP1 REVERT JUMPDEST POP PUSH2 0x29D PUSH2 0xCAC JUMP JUMPDEST PUSH1 0x40 MLOAD PUSH2 0x2AA SWAP2 SWAP1 PUSH2 0xF60 JUMP JUMPDEST PUSH1 0x40 MLOAD DUP1 SWAP2 SUB SWAP1 RETURN JUMPDEST CALLVALUE DUP1 ISZERO PUSH2 0x2BF JUMPI PUSH1 0x0 DUP1 REVERT JUMPDEST POP PUSH2 0x2C8 PUSH2 0xCB2 JUMP JUMPDEST PUSH1 0x40 MLOAD PUSH2 0x2D5 SWAP2 SWAP1 PUSH2 0xF60 JUMP JUMPDEST PUSH1 0x40 MLOAD DUP1 SWAP2 SUB SWAP1 RETURN JUMPDEST CALLVALUE DUP1 ISZERO PUSH2 0x2EA JUMPI PUSH1 0x0 DUP1 REVERT JUMPDEST POP PUSH2 0x2F3 PUSH2 0xCB8 JUMP JUMPDEST PUSH1 0x40 MLOAD PUSH2 0x300 SWAP2 SWAP1 PUSH2 0xF60 JUMP JUMPDEST PUSH1 0x40 MLOAD DUP1 SWAP2 SUB SWAP1 RETURN JUMPDEST CALLVALUE DUP1 ISZERO PUSH2 0x315 JUMPI PUSH1 0x0 DUP1 REVERT JUMPDEST POP PUSH2 0x31E PUSH2 0xCBE JUMP JUMPDEST PUSH1 0x40 MLOAD PUSH2 0x32B SWAP2 SWAP1 PUSH2 0xF60 JUMP JUMPDEST PUSH1 0x40 MLOAD DUP1 SWAP2 SUB SWAP1 RETURN JUMPDEST CALLVALUE DUP1 ISZERO PUSH2 0x340 JUMPI PUSH1 0x0 DUP1 REVERT JUMPDEST POP PUSH2 0x349 PUSH2 0xCC6 JUMP JUMPDEST PUSH1 0x40 MLOAD PUSH2 0x356 SWAP2 SWAP1 PUSH2 0xF60 JUMP JUMPDEST PUSH1 0x40 MLOAD DUP1 SWAP2 SUB SWAP1 RETURN JUMPDEST PUSH1 0x3 PUSH1 0x0 SWAP1 SLOAD SWAP1 PUSH2 0x100 EXP SWAP1 DIV PUSH20 0xFFFFFFFFFFFFFFFFFFFFFFFFFFFFFFFFFFFFFFFF AND PUSH20 0xFFFFFFFFFFFFFFFFFFFFFFFFFFFFFFFFFFFFFFFF AND CALLER PUSH20 0xFFFFFFFFFFFFFFFFFFFFFFFFFFFFFFFFFFFFFFFF AND EQ PUSH2 0x3EF JUMPI PUSH1 0x40 MLOAD PUSH32 0x8C379A000000000000000000000000000000000000000000000000000000000 DUP2 MSTORE PUSH1 0x4 ADD PUSH2 0x3E6 SWAP1 PUSH2 0x113B JUMP JUMPDEST PUSH1 0x40 MLOAD DUP1 SWAP2 SUB SWAP1 REVERT JUMPDEST PUSH1 0x0 DUP1 PUSH1 0x0 PUSH1 0x1 SLOAD DUP2 MSTORE PUSH1 0x20 ADD SWAP1 DUP2 MSTORE PUSH1 0x20 ADD PUSH1 0x0 KECCAK256 SWAP1 POP PUSH1 0x1 PUSH1 0x0 DUP2 SLOAD DUP1 SWAP3 SWAP2 SWAP1 PUSH2 0x41A SWAP1 PUSH2 0x118A JUMP JUMPDEST SWAP2 SWAP1 POP SSTORE POP DUP5 DUP5 DUP3 PUSH1 0x0 ADD SWAP2 SWAP1 PUSH2 0x432 SWAP3 SWAP2 SWAP1 PUSH2 0xCCC JUMP JUMPDEST POP DUP3 DUP2 PUSH1 0x1 ADD PUSH1 0x0 PUSH2 0x100 EXP DUP2 SLOAD DUP2 PUSH20 0xFFFFFFFFFFFFFFFFFFFFFFFFFFFFFFFFFFFFFFFF MUL NOT AND SWAP1 DUP4 PUSH20 0xFFFFFFFFFFFFFFFFFFFFFFFFFFFFFFFFFFFFFFFF AND MUL OR SWAP1 SSTORE POP DUP2 DUP2 PUSH1 0x2 ADD DUP2 SWAP1 SSTORE POP PUSH1 0x0 DUP2 PUSH1 0x3 ADD PUSH1 0x0 PUSH2 0x100 EXP DUP2 SLOAD DUP2 PUSH1 0xFF MUL NOT AND SWAP1 DUP4 ISZERO ISZERO MUL OR SWAP1 SSTORE POP PUSH1 0x0 DUP2 PUSH1 0x4 ADD DUP2 SWAP1 SSTORE POP POP POP POP POP POP JUMP JUMPDEST PUSH1 0x2 PUSH1 0x20 MSTORE DUP1 PUSH1 0x0 MSTORE PUSH1 0x40 PUSH1 0x0 KECCAK256 PUSH1 0x0 SWAP2 POP SWAP1 POP SLOAD DUP2 JUMP JUMPDEST PUSH1 0x5 SLOAD DUP2 JUMP JUMPDEST PUSH1 0x5 SLOAD TIMESTAMP LT PUSH2 0x50F JUMPI PUSH1 0x40 MLOAD PUSH32 0x8C379A000000000000000000000000000000000000000000000000000000000 DUP2 MSTORE PUSH1 0x4 ADD PUSH2 0x506 SWAP1 PUSH2 0x121E JUMP JUMPDEST PUSH1 0x40 MLOAD DUP1 SWAP2 SUB SWAP1 REVERT JUMPDEST PUSH1 0x4 SLOAD CALLVALUE LT ISZERO PUSH2 0x554 JUMPI PUSH1 0x40 MLOAD PUSH32 0x8C379A000000000000000000000000000000000000000000000000000000000 DUP2 MSTORE PUSH1 0x4 ADD PUSH2 0x54B SWAP1 PUSH2 0x12B0 JUMP JUMPDEST PUSH1 0x40 MLOAD DUP1 SWAP2 SUB SWAP1 REVERT JUMPDEST PUSH1 0x0 PUSH1 0x2 PUSH1 0x0 CALLER PUSH20 0xFFFFFFFFFFFFFFFFFFFFFFFFFFFFFFFFFFFFFFFF AND PUSH20 0xFFFFFFFFFFFFFFFFFFFFFFFFFFFFFFFFFFFFFFFF AND DUP2 MSTORE PUSH1 0x20 ADD SWAP1 DUP2 MSTORE PUSH1 0x20 ADD PUSH1 0x0 KECCAK256 SLOAD SUB PUSH2 0x5B4 JUMPI PUSH1 0x8 PUSH1 0x0 DUP2 SLOAD DUP1 SWAP3 SWAP2 SWAP1 PUSH2 0x5AE SWAP1 PUSH2 0x118A JUMP JUMPDEST SWAP2 SWAP1 POP SSTORE POP JUMPDEST CALLVALUE PUSH1 0x2 PUSH1 0x0 CALLER PUSH20 0xFFFFFFFFFFFFFFFFFFFFFFFFFFFFFFFFFFFFFFFF AND PUSH20 0xFFFFFFFFFFFFFFFFFFFFFFFFFFFFFFFFFFFFFFFF AND DUP2 MSTORE PUSH1 0x20 ADD SWAP1 DUP2 MSTORE PUSH1 0x20 ADD PUSH1 0x0 KECCAK256 PUSH1 0x0 DUP3 DUP3 SLOAD PUSH2 0x603 SWAP2 SWAP1 PUSH2 0x12D0 JUMP JUMPDEST SWAP3 POP POP DUP2 SWAP1 SSTORE POP CALLVALUE PUSH1 0x7 PUSH1 0x0 DUP3 DUP3 SLOAD PUSH2 0x61C SWAP2 SWAP1 PUSH2 0x12D0 JUMP JUMPDEST SWAP3 POP POP DUP2 SWAP1 SSTORE POP JUMP JUMPDEST PUSH1 0x3 PUSH1 0x0 SWAP1 SLOAD SWAP1 PUSH2 0x100 EXP SWAP1 DIV PUSH20 0xFFFFFFFFFFFFFFFFFFFFFFFFFFFFFFFFFFFFFFFF AND DUP2 JUMP JUMPDEST PUSH1 0x0 PUSH1 0x2 PUSH1 0x0 CALLER PUSH20 0xFFFFFFFFFFFFFFFFFFFFFFFFFFFFFFFFFFFFFFFF AND PUSH20 0xFFFFFFFFFFFFFFFFFFFFFFFFFFFFFFFFFFFFFFFF AND DUP2 MSTORE PUSH1 0x20 ADD SWAP1 DUP2 MSTORE PUSH1 0x20 ADD PUSH1 0x0 KECCAK256 SLOAD GT PUSH2 0x6CD JUMPI PUSH1 0x40 MLOAD PUSH32 0x8C379A000000000000000000000000000000000000000000000000000000000 DUP2 MSTORE PUSH1 0x4 ADD PUSH2 0x6C4 SWAP1 PUSH2 0x1372 JUMP JUMPDEST PUSH1 0x40 MLOAD DUP1 SWAP2 SUB SWAP1 REVERT JUMPDEST PUSH1 0x0 DUP1 PUSH1 0x0 DUP4 DUP2 MSTORE PUSH1 0x20 ADD SWAP1 DUP2 MSTORE PUSH1 0x20 ADD PUSH1 0x0 KECCAK256 SWAP1 POP PUSH1 0x0 ISZERO ISZERO DUP2 PUSH1 0x5 ADD PUSH1 0x0 CALLER PUSH20 0xFFFFFFFFFFFFFFFFFFFFFFFFFFFFFFFFFFFFFFFF AND PUSH20 0xFFFFFFFFFFFFFFFFFFFFFFFFFFFFFFFFFFFFFFFF AND DUP2 MSTORE PUSH1 0x20 ADD SWAP1 DUP2 MSTORE PUSH1 0x20 ADD PUSH1 0x0 KECCAK256 PUSH1 0x0 SWAP1 SLOAD SWAP1 PUSH2 0x100 EXP SWAP1 DIV PUSH1 0xFF AND ISZERO ISZERO EQ PUSH2 0x778 JUMPI PUSH1 0x40 MLOAD PUSH32 0x8C379A000000000000000000000000000000000000000000000000000000000 DUP2 MSTORE PUSH1 0x4 ADD PUSH2 0x76F SWAP1 PUSH2 0x13DE JUMP JUMPDEST PUSH1 0x40 MLOAD DUP1 SWAP2 SUB SWAP1 REVERT JUMPDEST PUSH1 0x1 DUP2 PUSH1 0x5 ADD PUSH1 0x0 CALLER PUSH20 0xFFFFFFFFFFFFFFFFFFFFFFFFFFFFFFFFFFFFFFFF AND PUSH20 0xFFFFFFFFFFFFFFFFFFFFFFFFFFFFFFFFFFFFFFFF AND DUP2 MSTORE PUSH1 0x20 ADD SWAP1 DUP2 MSTORE PUSH1 0x20 ADD PUSH1 0x0 KECCAK256 PUSH1 0x0 PUSH2 0x100 EXP DUP2 SLOAD DUP2 PUSH1 0xFF MUL NOT AND SWAP1 DUP4 ISZERO ISZERO MUL OR SWAP1 SSTORE POP DUP1 PUSH1 0x4 ADD PUSH1 0x0 DUP2 SLOAD DUP1 SWAP3 SWAP2 SWAP1 PUSH2 0x7E7 SWAP1 PUSH2 0x118A JUMP JUMPDEST SWAP2 SWAP1 POP SSTORE POP POP POP JUMP JUMPDEST PUSH1 0x8 SLOAD DUP2 JUMP JUMPDEST PUSH1 0x3 PUSH1 0x0 SWAP1 SLOAD SWAP1 PUSH2 0x100 EXP SWAP1 DIV PUSH20 0xFFFFFFFFFFFFFFFFFFFFFFFFFFFFFFFFFFFFFFFF AND PUSH20 0xFFFFFFFFFFFFFFFFFFFFFFFFFFFFFFFFFFFFFFFF AND CALLER PUSH20 0xFFFFFFFFFFFFFFFFFFFFFFFFFFFFFFFFFFFFFFFF AND EQ PUSH2 0x886 JUMPI PUSH1 0x40 MLOAD PUSH32 0x8C379A000000000000000000000000000000000000000000000000000000000 DUP2 MSTORE PUSH1 0x4 ADD PUSH2 0x87D SWAP1 PUSH2 0x113B JUMP JUMPDEST PUSH1 0x40 MLOAD DUP1 SWAP2 SUB SWAP1 REVERT JUMPDEST PUSH1 0x6 SLOAD PUSH1 0x7 SLOAD LT ISZERO PUSH2 0x8CD JUMPI PUSH1 0x40 MLOAD PUSH32 0x8C379A000000000000000000000000000000000000000000000000000000000 DUP2 MSTORE PUSH1 0x4 ADD PUSH2 0x8C4 SWAP1 PUSH2 0x144A JUMP JUMPDEST PUSH1 0x40 MLOAD DUP1 SWAP2 SUB SWAP1 REVERT JUMPDEST PUSH1 0x0 DUP1 PUSH1 0x0 DUP4 DUP2 MSTORE PUSH1 0x20 ADD SWAP1 DUP2 MSTORE PUSH1 0x20 ADD PUSH1 0x0 KECCAK256 SWAP1 POP PUSH1 0x0 ISZERO ISZERO DUP2 PUSH1 0x3 ADD PUSH1 0x0 SWAP1 SLOAD SWAP1 PUSH2 0x100 EXP SWAP1 DIV PUSH1 0xFF AND ISZERO ISZERO EQ PUSH2 0x93B JUMPI PUSH1 0x40 MLOAD PUSH32 0x8C379A000000000000000000000000000000000000000000000000000000000 DUP2 MSTORE PUSH1 0x4 ADD PUSH2 0x932 SWAP1 PUSH2 0x14B6 JUMP JUMPDEST PUSH1 0x40 MLOAD DUP1 SWAP2 SUB SWAP1 REVERT JUMPDEST PUSH1 0x2 PUSH1 0x8 SLOAD PUSH2 0x94A SWAP2 SWAP1 PUSH2 0x1505 JUMP JUMPDEST DUP2 PUSH1 0x4 ADD SLOAD GT PUSH2 0x98F JUMPI PUSH1 0x40 MLOAD PUSH32 0x8C379A000000000000000000000000000000000000000000000000000000000 DUP2 MSTORE PUSH1 0x4 ADD PUSH2 0x986 SWAP1 PUSH2 0x15A8 JUMP JUMPDEST PUSH1 0x40 MLOAD DUP1 SWAP2 SUB SWAP1 REVERT JUMPDEST DUP1 PUSH1 0x1 ADD PUSH1 0x0 SWAP1 SLOAD SWAP1 PUSH2 0x100 EXP SWAP1 DIV PUSH20 0xFFFFFFFFFFFFFFFFFFFFFFFFFFFFFFFFFFFFFFFF AND PUSH20 0xFFFFFFFFFFFFFFFFFFFFFFFFFFFFFFFFFFFFFFFF AND PUSH2 0x8FC DUP3 PUSH1 0x2 ADD SLOAD SWAP1 DUP2 ISZERO MUL SWAP1 PUSH1 0x40 MLOAD PUSH1 0x0 PUSH1 0x40 MLOAD DUP1 DUP4 SUB DUP2 DUP6 DUP9 DUP9 CALL SWAP4 POP POP POP POP ISZERO DUP1 ISZERO PUSH2 0x9FD JUMPI RETURNDATASIZE PUSH1 0x0 DUP1 RETURNDATACOPY RETURNDATASIZE PUSH1 0x0 REVERT JUMPDEST POP PUSH1 0x1 DUP2 PUSH1 0x3 ADD PUSH1 0x0 PUSH2 0x100 EXP DUP2 SLOAD DUP2 PUSH1 0xFF MUL NOT AND SWAP1 DUP4 ISZERO ISZERO MUL OR SWAP1 SSTORE POP POP POP JUMP JUMPDEST PUSH1 0x0 PUSH1 0x2 PUSH1 0x0 CALLER PUSH20 0xFFFFFFFFFFFFFFFFFFFFFFFFFFFFFFFFFFFFFFFF AND PUSH20 0xFFFFFFFFFFFFFFFFFFFFFFFFFFFFFFFFFFFFFFFF AND DUP2 MSTORE PUSH1 0x20 ADD SWAP1 DUP2 MSTORE PUSH1 0x20 ADD PUSH1 0x0 KECCAK256 SLOAD GT PUSH2 0xAA1 JUMPI PUSH1 0x40 MLOAD PUSH32 0x8C379A000000000000000000000000000000000000000000000000000000000 DUP2 MSTORE PUSH1 0x4 ADD PUSH2 0xA98 SWAP1 PUSH2 0x1372 JUMP JUMPDEST PUSH1 0x40 MLOAD DUP1 SWAP2 SUB SWAP1 REVERT JUMPDEST PUSH1 0x5 SLOAD TIMESTAMP GT DUP1 ISZERO PUSH2 0xAB5 JUMPI POP PUSH1 0x6 SLOAD PUSH1 0x7 SLOAD LT JUMPDEST PUSH2 0xAF4 JUMPI PUSH1 0x40 MLOAD PUSH32 0x8C379A000000000000000000000000000000000000000000000000000000000 DUP2 MSTORE PUSH1 0x4 ADD PUSH2 0xAEB SWAP1 PUSH2 0x163A JUMP JUMPDEST PUSH1 0x40 MLOAD DUP1 SWAP2 SUB SWAP1 REVERT JUMPDEST CALLER PUSH20 0xFFFFFFFFFFFFFFFFFFFFFFFFFFFFFFFFFFFFFFFF AND PUSH2 0x8FC PUSH1 0x2 PUSH1 0x0 CALLER PUSH20 0xFFFFFFFFFFFFFFFFFFFFFFFFFFFFFFFFFFFFFFFF AND PUSH20 0xFFFFFFFFFFFFFFFFFFFFFFFFFFFFFFFFFFFFFFFF AND DUP2 MSTORE PUSH1 0x20 ADD SWAP1 DUP2 MSTORE PUSH1 0x20 ADD PUSH1 0x0 KECCAK256 SLOAD SWAP1 DUP2 ISZERO MUL SWAP1 PUSH1 0x40 MLOAD PUSH1 0x0 PUSH1 0x40 MLOAD DUP1 DUP4 SUB DUP2 DUP6 DUP9 DUP9 CALL SWAP4 POP POP POP POP ISZERO DUP1 ISZERO PUSH2 0xB79 JUMPI RETURNDATASIZE PUSH1 0x0 DUP1 RETURNDATACOPY RETURNDATASIZE PUSH1 0x0 REVERT JUMPDEST POP PUSH1 0x0 PUSH1 0x2 PUSH1 0x0 CALLER PUSH20 0xFFFFFFFFFFFFFFFFFFFFFFFFFFFFFFFFFFFFFFFF AND PUSH20 0xFFFFFFFFFFFFFFFFFFFFFFFFFFFFFFFFFFFFFFFF AND DUP2 MSTORE PUSH1 0x20 ADD SWAP1 DUP2 MSTORE PUSH1 0x20 ADD PUSH1 0x0 KECCAK256 DUP2 SWAP1 SSTORE POP JUMP JUMPDEST PUSH1 0x0 PUSH1 0x20 MSTORE DUP1 PUSH1 0x0 MSTORE PUSH1 0x40 PUSH1 0x0 KECCAK256 PUSH1 0x0 SWAP2 POP SWAP1 POP DUP1 PUSH1 0x0 ADD DUP1 SLOAD PUSH2 0xBE4 SWAP1 PUSH2 0x1689 JUMP JUMPDEST DUP1 PUSH1 0x1F ADD PUSH1 0x20 DUP1 SWAP2 DIV MUL PUSH1 0x20 ADD PUSH1 0x40 MLOAD SWAP1 DUP2 ADD PUSH1 0x40 MSTORE DUP1 SWAP3 SWAP2 SWAP1 DUP2 DUP2 MSTORE PUSH1 0x20 ADD DUP3 DUP1 SLOAD PUSH2 0xC10 SWAP1 PUSH2 0x1689 JUMP JUMPDEST DUP1 ISZERO PUSH2 0xC5D JUMPI DUP1 PUSH1 0x1F LT PUSH2 0xC32 JUMPI PUSH2 0x100 DUP1 DUP4 SLOAD DIV MUL DUP4 MSTORE SWAP2 PUSH1 0x20 ADD SWAP2 PUSH2 0xC5D JUMP JUMPDEST DUP3 ADD SWAP2 SWAP1 PUSH1 0x0 MSTORE PUSH1 0x20 PUSH1 0x0 KECCAK256 SWAP1 JUMPDEST DUP2 SLOAD DUP2 MSTORE SWAP1 PUSH1 0x1 ADD SWAP1 PUSH1 0x20 ADD DUP1 DUP4 GT PUSH2 0xC40 JUMPI DUP3 SWAP1 SUB PUSH1 0x1F AND DUP3 ADD SWAP2 JUMPDEST POP POP POP POP POP SWAP1 DUP1 PUSH1 0x1 ADD PUSH1 0x0 SWAP1 SLOAD SWAP1 PUSH2 0x100 EXP SWAP1 DIV PUSH20 0xFFFFFFFFFFFFFFFFFFFFFFFFFFFFFFFFFFFFFFFF AND SWAP1 DUP1 PUSH1 0x2 ADD SLOAD SWAP1 DUP1 PUSH1 0x3 ADD PUSH1 0x0 SWAP1 SLOAD SWAP1 PUSH2 0x100 EXP SWAP1 DIV PUSH1 0xFF AND SWAP1 DUP1 PUSH1 0x4 ADD SLOAD SWAP1 POP DUP6 JUMP JUMPDEST PUSH1 0x4 SLOAD DUP2 JUMP JUMPDEST PUSH1 0x1 SLOAD DUP2 JUMP JUMPDEST PUSH1 0x7 SLOAD DUP2 JUMP JUMPDEST PUSH1 0x0 SELFBALANCE SWAP1 POP SWAP1 JUMP JUMPDEST PUSH1 0x6 SLOAD DUP2 JUMP JUMPDEST DUP3 DUP1 SLOAD PUSH2 0xCD8 SWAP1 PUSH2 0x1689 JUMP JUMPDEST SWAP1 PUSH1 0x0 MSTORE PUSH1 0x20 PUSH1 0x0 KECCAK256 SWAP1 PUSH1 0x1F ADD PUSH1 0x20 SWAP1 DIV DUP2 ADD SWAP3 DUP3 PUSH2 0xCFA JUMPI PUSH1 0x0 DUP6 SSTORE PUSH2 0xD41 JUMP JUMPDEST DUP3 PUSH1 0x1F LT PUSH2 0xD13 JUMPI DUP1 CALLDATALOAD PUSH1 0xFF NOT AND DUP4 DUP1 ADD OR DUP6 SSTORE PUSH2 0xD41 JUMP JUMPDEST DUP3 DUP1 ADD PUSH1 0x1 ADD DUP6 SSTORE DUP3 ISZERO PUSH2 0xD41 JUMPI SWAP2 DUP3 ADD JUMPDEST DUP3 DUP2 GT ISZERO PUSH2 0xD40 JUMPI DUP3 CALLDATALOAD DUP3 SSTORE SWAP2 PUSH1 0x20 ADD SWAP2 SWAP1 PUSH1 0x1 ADD SWAP1 PUSH2 0xD25 JUMP JUMPDEST JUMPDEST POP SWAP1 POP PUSH2 0xD4E SWAP2 SWAP1 PUSH2 0xD52 JUMP JUMPDEST POP SWAP1 JUMP JUMPDEST JUMPDEST DUP1 DUP3 GT ISZERO PUSH2 0xD6B JUMPI PUSH1 0x0 DUP2 PUSH1 0x0 SWAP1 SSTORE POP PUSH1 0x1 ADD PUSH2 0xD53 JUMP JUMPDEST POP SWAP1 JUMP JUMPDEST PUSH1 0x0 DUP1 REVERT JUMPDEST PUSH1 0x0 DUP1 REVERT JUMPDEST PUSH1 0x0 DUP1 REVERT JUMPDEST PUSH1 0x0 DUP1 REVERT JUMPDEST PUSH1 0x0 DUP1 REVERT JUMPDEST PUSH1 0x0 DUP1 DUP4 PUSH1 0x1F DUP5 ADD SLT PUSH2 0xD9E JUMPI PUSH2 0xD9D PUSH2 0xD79 JUMP JUMPDEST JUMPDEST DUP3 CALLDATALOAD SWAP1 POP PUSH8 0xFFFFFFFFFFFFFFFF DUP2 GT ISZERO PUSH2 0xDBB JUMPI PUSH2 0xDBA PUSH2 0xD7E JUMP JUMPDEST JUMPDEST PUSH1 0x20 DUP4 ADD SWAP2 POP DUP4 PUSH1 0x1 DUP3 MUL DUP4 ADD GT ISZERO PUSH2 0xDD7 JUMPI PUSH2 0xDD6 PUSH2 0xD83 JUMP JUMPDEST JUMPDEST SWAP3 POP SWAP3 SWAP1 POP JUMP JUMPDEST PUSH1 0x0 PUSH20 0xFFFFFFFFFFFFFFFFFFFFFFFFFFFFFFFFFFFFFFFF DUP3 AND SWAP1 POP SWAP2 SWAP1 POP JUMP JUMPDEST PUSH1 0x0 PUSH2 0xE09 DUP3 PUSH2 0xDDE JUMP JUMPDEST SWAP1 POP SWAP2 SWAP1 POP JUMP JUMPDEST PUSH2 0xE19 DUP2 PUSH2 0xDFE JUMP JUMPDEST DUP2 EQ PUSH2 0xE24 JUMPI PUSH1 0x0 DUP1 REVERT JUMPDEST POP JUMP JUMPDEST PUSH1 0x0 DUP2 CALLDATALOAD SWAP1 POP PUSH2 0xE36 DUP2 PUSH2 0xE10 JUMP JUMPDEST SWAP3 SWAP2 POP POP JUMP JUMPDEST PUSH1 0x0 DUP2 SWAP1 POP SWAP2 SWAP1 POP JUMP JUMPDEST PUSH2 0xE4F DUP2 PUSH2 0xE3C JUMP JUMPDEST DUP2 EQ PUSH2 0xE5A JUMPI PUSH1 0x0 DUP1 REVERT JUMPDEST POP JUMP JUMPDEST PUSH1 0x0 DUP2 CALLDATALOAD SWAP1 POP PUSH2 0xE6C DUP2 PUSH2 0xE46 JUMP JUMPDEST SWAP3 SWAP2 POP POP JUMP JUMPDEST PUSH1 0x0 DUP1 PUSH1 0x0 DUP1 PUSH1 0x60 DUP6 DUP8 SUB SLT ISZERO PUSH2 0xE8C JUMPI PUSH2 0xE8B PUSH2 0xD6F JUMP JUMPDEST JUMPDEST PUSH1 0x0 DUP6 ADD CALLDATALOAD PUSH8 0xFFFFFFFFFFFFFFFF DUP2 GT ISZERO PUSH2 0xEAA JUMPI PUSH2 0xEA9 PUSH2 0xD74 JUMP JUMPDEST JUMPDEST PUSH2 0xEB6 DUP8 DUP3 DUP9 ADD PUSH2 0xD88 JUMP JUMPDEST SWAP5 POP SWAP5 POP POP PUSH1 0x20 PUSH2 0xEC9 DUP8 DUP3 DUP9 ADD PUSH2 0xE27 JUMP JUMPDEST SWAP3 POP POP PUSH1 0x40 PUSH2 0xEDA DUP8 DUP3 DUP9 ADD PUSH2 0xE5D JUMP JUMPDEST SWAP2 POP POP SWAP3 SWAP6 SWAP2 SWAP5 POP SWAP3 POP JUMP JUMPDEST PUSH1 0x0 PUSH2 0xEF1 DUP3 PUSH2 0xDDE JUMP JUMPDEST SWAP1 POP SWAP2 SWAP1 POP JUMP JUMPDEST PUSH2 0xF01 DUP2 PUSH2 0xEE6 JUMP JUMPDEST DUP2 EQ PUSH2 0xF0C JUMPI PUSH1 0x0 DUP1 REVERT JUMPDEST POP JUMP JUMPDEST PUSH1 0x0 DUP2 CALLDATALOAD SWAP1 POP PUSH2 0xF1E DUP2 PUSH2 0xEF8 JUMP JUMPDEST SWAP3 SWAP2 POP POP JUMP JUMPDEST PUSH1 0x0 PUSH1 0x20 DUP3 DUP5 SUB SLT ISZERO PUSH2 0xF3A JUMPI PUSH2 0xF39 PUSH2 0xD6F JUMP JUMPDEST JUMPDEST PUSH1 0x0 PUSH2 0xF48 DUP5 DUP3 DUP6 ADD PUSH2 0xF0F JUMP JUMPDEST SWAP2 POP POP SWAP3 SWAP2 POP POP JUMP JUMPDEST PUSH2 0xF5A DUP2 PUSH2 0xE3C JUMP JUMPDEST DUP3 MSTORE POP POP JUMP JUMPDEST PUSH1 0x0 PUSH1 0x20 DUP3 ADD SWAP1 POP PUSH2 0xF75 PUSH1 0x0 DUP4 ADD DUP5 PUSH2 0xF51 JUMP JUMPDEST SWAP3 SWAP2 POP POP JUMP JUMPDEST PUSH2 0xF84 DUP2 PUSH2 0xEE6 JUMP JUMPDEST DUP3 MSTORE POP POP JUMP JUMPDEST PUSH1 0x0 PUSH1 0x20 DUP3 ADD SWAP1 POP PUSH2 0xF9F PUSH1 0x0 DUP4 ADD DUP5 PUSH2 0xF7B JUMP JUMPDEST SWAP3 SWAP2 POP POP JUMP JUMPDEST PUSH1 0x0 PUSH1 0x20 DUP3 DUP5 SUB SLT ISZERO PUSH2 0xFBB JUMPI PUSH2 0xFBA PUSH2 0xD6F JUMP JUMPDEST JUMPDEST PUSH1 0x0 PUSH2 0xFC9 DUP5 DUP3 DUP6 ADD PUSH2 0xE5D JUMP JUMPDEST SWAP2 POP POP SWAP3 SWAP2 POP POP JUMP JUMPDEST PUSH1 0x0 DUP2 MLOAD SWAP1 POP SWAP2 SWAP1 POP JUMP JUMPDEST PUSH1 0x0 DUP3 DUP3 MSTORE PUSH1 0x20 DUP3 ADD SWAP1 POP SWAP3 SWAP2 POP POP JUMP JUMPDEST PUSH1 0x0 JUMPDEST DUP4 DUP2 LT ISZERO PUSH2 0x100C JUMPI DUP1 DUP3 ADD MLOAD DUP2 DUP5 ADD MSTORE PUSH1 0x20 DUP2 ADD SWAP1 POP PUSH2 0xFF1 JUMP JUMPDEST DUP4 DUP2 GT ISZERO PUSH2 0x101B JUMPI PUSH1 0x0 DUP5 DUP5 ADD MSTORE JUMPDEST POP POP POP POP JUMP JUMPDEST PUSH1 0x0 PUSH1 0x1F NOT PUSH1 0x1F DUP4 ADD AND SWAP1 POP SWAP2 SWAP1 POP JUMP JUMPDEST PUSH1 0x0 PUSH2 0x103D DUP3 PUSH2 0xFD2 JUMP JUMPDEST PUSH2 0x1047 DUP2 DUP6 PUSH2 0xFDD JUMP JUMPDEST SWAP4 POP PUSH2 0x1057 DUP2 DUP6 PUSH1 0x20 DUP7 ADD PUSH2 0xFEE JUMP JUMPDEST PUSH2 0x1060 DUP2 PUSH2 0x1021 JUMP JUMPDEST DUP5 ADD SWAP2 POP POP SWAP3 SWAP2 POP POP JUMP JUMPDEST PUSH2 0x1074 DUP2 PUSH2 0xDFE JUMP JUMPDEST DUP3 MSTORE POP POP JUMP JUMPDEST PUSH1 0x0 DUP2 ISZERO ISZERO SWAP1 POP SWAP2 SWAP1 POP JUMP JUMPDEST PUSH2 0x108F DUP2 PUSH2 0x107A JUMP JUMPDEST DUP3 MSTORE POP POP JUMP JUMPDEST PUSH1 0x0 PUSH1 0xA0 DUP3 ADD SWAP1 POP DUP2 DUP2 SUB PUSH1 0x0 DUP4 ADD MSTORE PUSH2 0x10AF DUP2 DUP9 PUSH2 0x1032 JUMP JUMPDEST SWAP1 POP PUSH2 0x10BE PUSH1 0x20 DUP4 ADD DUP8 PUSH2 0x106B JUMP JUMPDEST PUSH2 0x10CB PUSH1 0x40 DUP4 ADD DUP7 PUSH2 0xF51 JUMP JUMPDEST PUSH2 0x10D8 PUSH1 0x60 DUP4 ADD DUP6 PUSH2 0x1086 JUMP JUMPDEST PUSH2 0x10E5 PUSH1 0x80 DUP4 ADD DUP5 PUSH2 0xF51 JUMP JUMPDEST SWAP7 SWAP6 POP POP POP POP POP POP JUMP JUMPDEST PUSH32 0x596F7520617265206E6F7420746865206D616E61676572000000000000000000 PUSH1 0x0 DUP3 ADD MSTORE POP JUMP JUMPDEST PUSH1 0x0 PUSH2 0x1125 PUSH1 0x17 DUP4 PUSH2 0xFDD JUMP JUMPDEST SWAP2 POP PUSH2 0x1130 DUP3 PUSH2 0x10EF JUMP JUMPDEST PUSH1 0x20 DUP3 ADD SWAP1 POP SWAP2 SWAP1 POP JUMP JUMPDEST PUSH1 0x0 PUSH1 0x20 DUP3 ADD SWAP1 POP DUP2 DUP2 SUB PUSH1 0x0 DUP4 ADD MSTORE PUSH2 0x1154 DUP2 PUSH2 0x1118 JUMP JUMPDEST SWAP1 POP SWAP2 SWAP1 POP JUMP JUMPDEST PUSH32 0x4E487B7100000000000000000000000000000000000000000000000000000000 PUSH1 0x0 MSTORE PUSH1 0x11 PUSH1 0x4 MSTORE PUSH1 0x24 PUSH1 0x0 REVERT JUMPDEST PUSH1 0x0 PUSH2 0x1195 DUP3 PUSH2 0xE3C JUMP JUMPDEST SWAP2 POP PUSH32 0xFFFFFFFFFFFFFFFFFFFFFFFFFFFFFFFFFFFFFFFFFFFFFFFFFFFFFFFFFFFFFFFF DUP3 SUB PUSH2 0x11C7 JUMPI PUSH2 0x11C6 PUSH2 0x115B JUMP JUMPDEST JUMPDEST PUSH1 0x1 DUP3 ADD SWAP1 POP SWAP2 SWAP1 POP JUMP JUMPDEST PUSH32 0x446561646C696E65206861732070617373656400000000000000000000000000 PUSH1 0x0 DUP3 ADD MSTORE POP JUMP JUMPDEST PUSH1 0x0 PUSH2 0x1208 PUSH1 0x13 DUP4 PUSH2 0xFDD JUMP JUMPDEST SWAP2 POP PUSH2 0x1213 DUP3 PUSH2 0x11D2 JUMP JUMPDEST PUSH1 0x20 DUP3 ADD SWAP1 POP SWAP2 SWAP1 POP JUMP JUMPDEST PUSH1 0x0 PUSH1 0x20 DUP3 ADD SWAP1 POP DUP2 DUP2 SUB PUSH1 0x0 DUP4 ADD MSTORE PUSH2 0x1237 DUP2 PUSH2 0x11FB JUMP JUMPDEST SWAP1 POP SWAP2 SWAP1 POP JUMP JUMPDEST PUSH32 0x4D696E696D756D20636F6E747269627574696F6E207265717569726564206973 PUSH1 0x0 DUP3 ADD MSTORE PUSH32 0x2031302057656900000000000000000000000000000000000000000000000000 PUSH1 0x20 DUP3 ADD MSTORE POP JUMP JUMPDEST PUSH1 0x0 PUSH2 0x129A PUSH1 0x27 DUP4 PUSH2 0xFDD JUMP JUMPDEST SWAP2 POP PUSH2 0x12A5 DUP3 PUSH2 0x123E JUMP JUMPDEST PUSH1 0x40 DUP3 ADD SWAP1 POP SWAP2 SWAP1 POP JUMP JUMPDEST PUSH1 0x0 PUSH1 0x20 DUP3 ADD SWAP1 POP DUP2 DUP2 SUB PUSH1 0x0 DUP4 ADD MSTORE PUSH2 0x12C9 DUP2 PUSH2 0x128D JUMP JUMPDEST SWAP1 POP SWAP2 SWAP1 POP JUMP JUMPDEST PUSH1 0x0 PUSH2 0x12DB DUP3 PUSH2 0xE3C JUMP JUMPDEST SWAP2 POP PUSH2 0x12E6 DUP4 PUSH2 0xE3C JUMP JUMPDEST SWAP3 POP DUP3 PUSH32 0xFFFFFFFFFFFFFFFFFFFFFFFFFFFFFFFFFFFFFFFFFFFFFFFFFFFFFFFFFFFFFFFF SUB DUP3 GT ISZERO PUSH2 0x131B JUMPI PUSH2 0x131A PUSH2 0x115B JUMP JUMPDEST JUMPDEST DUP3 DUP3 ADD SWAP1 POP SWAP3 SWAP2 POP POP JUMP JUMPDEST PUSH32 0x596F7520617265206E6F74206120636F6E7472696275746F7200000000000000 PUSH1 0x0 DUP3 ADD MSTORE POP JUMP JUMPDEST PUSH1 0x0 PUSH2 0x135C PUSH1 0x19 DUP4 PUSH2 0xFDD JUMP JUMPDEST SWAP2 POP PUSH2 0x1367 DUP3 PUSH2 0x1326 JUMP JUMPDEST PUSH1 0x20 DUP3 ADD SWAP1 POP SWAP2 SWAP1 POP JUMP JUMPDEST PUSH1 0x0 PUSH1 0x20 DUP3 ADD SWAP1 POP DUP2 DUP2 SUB PUSH1 0x0 DUP4 ADD MSTORE PUSH2 0x138B DUP2 PUSH2 0x134F JUMP JUMPDEST SWAP1 POP SWAP2 SWAP1 POP JUMP JUMPDEST PUSH32 0x596F75206861766520616C726561647920766F74656400000000000000000000 PUSH1 0x0 DUP3 ADD MSTORE POP JUMP JUMPDEST PUSH1 0x0 PUSH2 0x13C8 PUSH1 0x16 DUP4 PUSH2 0xFDD JUMP JUMPDEST SWAP2 POP PUSH2 0x13D3 DUP3 PUSH2 0x1392 JUMP JUMPDEST PUSH1 0x20 DUP3 ADD SWAP1 POP SWAP2 SWAP1 POP JUMP JUMPDEST PUSH1 0x0 PUSH1 0x20 DUP3 ADD SWAP1 POP DUP2 DUP2 SUB PUSH1 0x0 DUP4 ADD MSTORE PUSH2 0x13F7 DUP2 PUSH2 0x13BB JUMP JUMPDEST SWAP1 POP SWAP2 SWAP1 POP JUMP JUMPDEST PUSH32 0x54617267657420686173206E6F206265656E2072656163686564000000000000 PUSH1 0x0 DUP3 ADD MSTORE POP JUMP JUMPDEST PUSH1 0x0 PUSH2 0x1434 PUSH1 0x1A DUP4 PUSH2 0xFDD JUMP JUMPDEST SWAP2 POP PUSH2 0x143F DUP3 PUSH2 0x13FE JUMP JUMPDEST PUSH1 0x20 DUP3 ADD SWAP1 POP SWAP2 SWAP1 POP JUMP JUMPDEST PUSH1 0x0 PUSH1 0x20 DUP3 ADD SWAP1 POP DUP2 DUP2 SUB PUSH1 0x0 DUP4 ADD MSTORE PUSH2 0x1463 DUP2 PUSH2 0x1427 JUMP JUMPDEST SWAP1 POP SWAP2 SWAP1 POP JUMP JUMPDEST PUSH32 0x546865207265717565737420686173206265656E20636F6D706C657465640000 PUSH1 0x0 DUP3 ADD MSTORE POP JUMP JUMPDEST PUSH1 0x0 PUSH2 0x14A0 PUSH1 0x1E DUP4 PUSH2 0xFDD JUMP JUMPDEST SWAP2 POP PUSH2 0x14AB DUP3 PUSH2 0x146A JUMP JUMPDEST PUSH1 0x20 DUP3 ADD SWAP1 POP SWAP2 SWAP1 POP JUMP JUMPDEST PUSH1 0x0 PUSH1 0x20 DUP3 ADD SWAP1 POP DUP2 DUP2 SUB PUSH1 0x0 DUP4 ADD MSTORE PUSH2 0x14CF DUP2 PUSH2 0x1493 JUMP JUMPDEST SWAP1 POP SWAP2 SWAP1 POP JUMP JUMPDEST PUSH32 0x4E487B7100000000000000000000000000000000000000000000000000000000 PUSH1 0x0 MSTORE PUSH1 0x12 PUSH1 0x4 MSTORE PUSH1 0x24 PUSH1 0x0 REVERT JUMPDEST PUSH1 0x0 PUSH2 0x1510 DUP3 PUSH2 0xE3C JUMP JUMPDEST SWAP2 POP PUSH2 0x151B DUP4 PUSH2 0xE3C JUMP JUMPDEST SWAP3 POP DUP3 PUSH2 0x152B JUMPI PUSH2 0x152A PUSH2 0x14D6 JUMP JUMPDEST JUMPDEST DUP3 DUP3 DIV SWAP1 POP SWAP3 SWAP2 POP POP JUMP JUMPDEST PUSH32 0x4D616A6F7269747920646F6573206E6F7420737570706F727420746865207265 PUSH1 0x0 DUP3 ADD MSTORE PUSH32 0x7175657374000000000000000000000000000000000000000000000000000000 PUSH1 0x20 DUP3 ADD MSTORE POP JUMP JUMPDEST PUSH1 0x0 PUSH2 0x1592 PUSH1 0x25 DUP4 PUSH2 0xFDD JUMP JUMPDEST SWAP2 POP PUSH2 0x159D DUP3 PUSH2 0x1536 JUMP JUMPDEST PUSH1 0x40 DUP3 ADD SWAP1 POP SWAP2 SWAP1 POP JUMP JUMPDEST PUSH1 0x0 PUSH1 0x20 DUP3 ADD SWAP1 POP DUP2 DUP2 SUB PUSH1 0x0 DUP4 ADD MSTORE PUSH2 0x15C1 DUP2 PUSH2 0x1585 JUMP JUMPDEST SWAP1 POP SWAP2 SWAP1 POP JUMP JUMPDEST PUSH32 0x596F7520617265206E6F7420656C696769626C6520666F7220726566756E6420 PUSH1 0x0 DUP3 ADD MSTORE PUSH32 0x6E6F770000000000000000000000000000000000000000000000000000000000 PUSH1 0x20 DUP3 ADD MSTORE POP JUMP JUMPDEST PUSH1 0x0 PUSH2 0x1624 PUSH1 0x23 DUP4 PUSH2 0xFDD JUMP JUMPDEST SWAP2 POP PUSH2 0x162F DUP3 PUSH2 0x15C8 JUMP JUMPDEST PUSH1 0x40 DUP3 ADD SWAP1 POP SWAP2 SWAP1 POP JUMP JUMPDEST PUSH1 0x0 PUSH1 0x20 DUP3 ADD SWAP1 POP DUP2 DUP2 SUB PUSH1 0x0 DUP4 ADD MSTORE PUSH2 0x1653 DUP2 PUSH2 0x1617 JUMP JUMPDEST SWAP1 POP SWAP2 SWAP1 POP JUMP JUMPDEST PUSH32 0x4E487B7100000000000000000000000000000000000000000000000000000000 PUSH1 0x0 MSTORE PUSH1 0x22 PUSH1 0x4 MSTORE PUSH1 0x24 PUSH1 0x0 REVERT JUMPDEST PUSH1 0x0 PUSH1 0x2 DUP3 DIV SWAP1 POP PUSH1 0x1 DUP3 AND DUP1 PUSH2 0x16A1 JUMPI PUSH1 0x7F DUP3 AND SWAP2 POP JUMPDEST PUSH1 0x20 DUP3 LT DUP2 SUB PUSH2 0x16B4 JUMPI PUSH2 0x16B3 PUSH2 0x165A JUMP JUMPDEST JUMPDEST POP SWAP2 SWAP1 POP JUMP INVALID LOG2 PUSH5 0x6970667358 0x22 SLT KECCAK256 BASEFEE PUSH1 0x2D PUSH27 0x5E57442F6152C28E6E043B11E505EDBCA15431149B149A05B60BF5 PUSH14 0x64736F6C634300080E0033000000 "
				},
				"gasEstimates": {
					"creation": {
						"codeDepositCost": "1174400",
						"executionCost": "infinite",
						"totalCost": "infinite"
					},
					"external": {
						"checkBalance()": "405",
						"contributors(address)": "2860",
						"contrubution()": "infinite",
						"createRequest(string,address,uint256)": "infinite",
						"deadline()": "2497",
						"makePayment(uint256)": "infinite",
						"manager()": "2559",
						"minimumContribution()": "2518",
						"noOfContributors()": "2518",
						"noOfRequests()": "2451",
						"raisedAmount()": "2473",
						"refund()": "infinite",
						"requests(uint256)": "infinite",
						"target()": "2517",
						"voteRequest(uint256)": "infinite"
					}
				},
				"methodIdentifiers": {
					"checkBalance()": "c71daccb",
					"contributors(address)": "1f6d4942",
					"contrubution()": "2f81a635",
					"createRequest(string,address,uint256)": "1b16bb5c",
					"deadline()": "29dcb0cf",
					"makePayment(uint256)": "5114cb52",
					"manager()": "481c6a75",
					"minimumContribution()": "937e09b1",
					"noOfContributors()": "4e260f6f",
					"noOfRequests()": "c1f11b4c",
					"raisedAmount()": "c59ee1dc",
					"refund()": "590e1ae3",
					"requests(uint256)": "81d12c58",
					"target()": "d4b83992",
					"voteRequest(uint256)": "4cb6f4a5"
				}
			},
			"storageLayout": {
				"storage": [
					{
						"astId": 21,
						"contract": "contracts/MainContract.sol:MainContract",
						"label": "requests",
						"offset": 0,
						"slot": "0",
						"type": "t_mapping(t_uint256,t_struct(Request)16_storage)"
					},
					{
						"astId": 23,
						"contract": "contracts/MainContract.sol:MainContract",
						"label": "noOfRequests",
						"offset": 0,
						"slot": "1",
						"type": "t_uint256"
					},
					{
						"astId": 27,
						"contract": "contracts/MainContract.sol:MainContract",
						"label": "contributors",
						"offset": 0,
						"slot": "2",
						"type": "t_mapping(t_address,t_uint256)"
					},
					{
						"astId": 29,
						"contract": "contracts/MainContract.sol:MainContract",
						"label": "manager",
						"offset": 0,
						"slot": "3",
						"type": "t_address"
					},
					{
						"astId": 31,
						"contract": "contracts/MainContract.sol:MainContract",
						"label": "minimumContribution",
						"offset": 0,
						"slot": "4",
						"type": "t_uint256"
					},
					{
						"astId": 33,
						"contract": "contracts/MainContract.sol:MainContract",
						"label": "deadline",
						"offset": 0,
						"slot": "5",
						"type": "t_uint256"
					},
					{
						"astId": 35,
						"contract": "contracts/MainContract.sol:MainContract",
						"label": "target",
						"offset": 0,
						"slot": "6",
						"type": "t_uint256"
					},
					{
						"astId": 37,
						"contract": "contracts/MainContract.sol:MainContract",
						"label": "raisedAmount",
						"offset": 0,
						"slot": "7",
						"type": "t_uint256"
					},
					{
						"astId": 39,
						"contract": "contracts/MainContract.sol:MainContract",
						"label": "noOfContributors",
						"offset": 0,
						"slot": "8",
						"type": "t_uint256"
					}
				],
				"types": {
					"t_address": {
						"encoding": "inplace",
						"label": "address",
						"numberOfBytes": "20"
					},
					"t_address_payable": {
						"encoding": "inplace",
						"label": "address payable",
						"numberOfBytes": "20"
					},
					"t_bool": {
						"encoding": "inplace",
						"label": "bool",
						"numberOfBytes": "1"
					},
					"t_mapping(t_address,t_bool)": {
						"encoding": "mapping",
						"key": "t_address",
						"label": "mapping(address => bool)",
						"numberOfBytes": "32",
						"value": "t_bool"
					},
					"t_mapping(t_address,t_uint256)": {
						"encoding": "mapping",
						"key": "t_address",
						"label": "mapping(address => uint256)",
						"numberOfBytes": "32",
						"value": "t_uint256"
					},
					"t_mapping(t_uint256,t_struct(Request)16_storage)": {
						"encoding": "mapping",
						"key": "t_uint256",
						"label": "mapping(uint256 => struct MainContract.Request)",
						"numberOfBytes": "32",
						"value": "t_struct(Request)16_storage"
					},
					"t_string_storage": {
						"encoding": "bytes",
						"label": "string",
						"numberOfBytes": "32"
					},
					"t_struct(Request)16_storage": {
						"encoding": "inplace",
						"label": "struct MainContract.Request",
						"members": [
							{
								"astId": 3,
								"contract": "contracts/MainContract.sol:MainContract",
								"label": "description",
								"offset": 0,
								"slot": "0",
								"type": "t_string_storage"
							},
							{
								"astId": 5,
								"contract": "contracts/MainContract.sol:MainContract",
								"label": "recipient",
								"offset": 0,
								"slot": "1",
								"type": "t_address_payable"
							},
							{
								"astId": 7,
								"contract": "contracts/MainContract.sol:MainContract",
								"label": "value",
								"offset": 0,
								"slot": "2",
								"type": "t_uint256"
							},
							{
								"astId": 9,
								"contract": "contracts/MainContract.sol:MainContract",
								"label": "completed",
								"offset": 0,
								"slot": "3",
								"type": "t_bool"
							},
							{
								"astId": 11,
								"contract": "contracts/MainContract.sol:MainContract",
								"label": "noOfVoters",
								"offset": 0,
								"slot": "4",
								"type": "t_uint256"
							},
							{
								"astId": 15,
								"contract": "contracts/MainContract.sol:MainContract",
								"label": "voters",
								"offset": 0,
								"slot": "5",
								"type": "t_mapping(t_address,t_bool)"
							}
						],
						"numberOfBytes": "192"
					},
					"t_uint256": {
						"encoding": "inplace",
						"label": "uint256",
						"numberOfBytes": "32"
					}
				}
			},
			"userdoc": {
				"kind": "user",
				"methods": {},
				"version": 1
			}
		}
	}
}